{
  "contractName": "Buyable",
  "abi": [
    {
      "constant": false,
      "inputs": [],
      "name": "destroy",
      "outputs": [],
      "payable": false,
      "stateMutability": "nonpayable",
      "type": "function"
    },
    {
      "constant": true,
      "inputs": [],
      "name": "owner",
      "outputs": [
        {
          "name": "",
          "type": "address"
        }
      ],
      "payable": false,
      "stateMutability": "view",
      "type": "function"
    },
    {
      "constant": false,
      "inputs": [
        {
          "name": "newOwner",
          "type": "address"
        }
      ],
      "name": "transferOwnership",
      "outputs": [],
      "payable": false,
      "stateMutability": "nonpayable",
      "type": "function"
    },
    {
      "constant": false,
      "inputs": [
        {
          "name": "_recipient",
          "type": "address"
        }
      ],
      "name": "destroyAndSend",
      "outputs": [],
      "payable": false,
      "stateMutability": "nonpayable",
      "type": "function"
    },
    {
      "payable": true,
      "stateMutability": "payable",
      "type": "fallback"
    },
    {
      "anonymous": false,
      "inputs": [
        {
          "indexed": false,
          "name": "exOwner",
          "type": "address"
        },
        {
          "indexed": false,
          "name": "newOwner",
          "type": "address"
        },
        {
          "indexed": false,
          "name": "id",
          "type": "uint256"
        },
        {
          "indexed": false,
          "name": "Price",
          "type": "uint256"
        }
      ],
      "name": "BuyTokens",
      "type": "event"
    },
    {
      "anonymous": false,
      "inputs": [
        {
          "indexed": true,
          "name": "previousOwner",
          "type": "address"
        },
        {
          "indexed": true,
          "name": "newOwner",
          "type": "address"
        }
      ],
      "name": "OwnershipTransferred",
      "type": "event"
    },
    {
      "constant": false,
      "inputs": [
        {
          "name": "_tokensId",
          "type": "uint256[]"
        },
        {
          "name": "_newTokensPrice",
          "type": "uint256[]"
        }
      ],
      "name": "buyTokens",
      "outputs": [],
      "payable": true,
      "stateMutability": "payable",
      "type": "function"
    }
  ],
  "bytecode": "0x606060405260008054600160a060020a033316600160a060020a031990911617905561056a806100306000396000f3006060604052600436106100535763ffffffff60e060020a60003504166383197ef081146100585780638da5cb5b1461006d578063942a84671461009c578063f2fde38b146100bb578063f5074f41146100da575b600080fd5b341561006357600080fd5b61006b6100f9565b005b341561007857600080fd5b610080610122565b604051600160a060020a03909116815260200160405180910390f35b61006b6024600480358281019290820135918135918201910135610131565b34156100c657600080fd5b61006b600160a060020a0360043516610453565b34156100e557600080fd5b61006b600160a060020a03600435166104ee565b60005433600160a060020a0390811691161461011457600080fd5b600054600160a060020a0316ff5b600054600160a060020a031681565b60008080803481901161014357600080fd5b33600160a060020a0316151561015857600080fd5b600587111561016657600080fd5b86851461017257600080fd5b349350600092505b8683101561043e57600154600160a060020a0316638e36977a89898681811061019f57fe5b9050602002013560006040516020015260405160e060020a63ffffffff84160281526004810191909152602401602060405180830381600087803b15156101e557600080fd5b6102c65a03f115156101f657600080fd5b50505060405180519250508382111561020e57600080fd5b831561022757610224848363ffffffff61051516565b93505b600154600160a060020a0316636352211e89898681811061024457fe5b9050602002013560006040516020015260405160e060020a63ffffffff84160281526004810191909152602401602060405180830381600087803b151561028a57600080fd5b6102c65a03f1151561029b57600080fd5b5050506040518051915050600160a060020a0381166108fc6102d46102c785606463ffffffff61052716565b859063ffffffff61051516565b9081150290604051600060405180830381858888f1935050505015156102f957600080fd5b600054600160a060020a03166108fc61031984606463ffffffff61052716565b9081150290604051600060405180830381858888f19350505050151561033e57600080fd5b600154600160a060020a031663dc8b020382338b8b8881811061035d57fe5b9050602002013560405160e060020a63ffffffff8616028152600160a060020a0393841660048201529190921660248201526044810191909152606401600060405180830381600087803b15156103b357600080fd5b6102c65a03f115156103c457600080fd5b5050507e77a7b9b8b8207f3903ca75eade7730a828eadd952909ed2de6b640b069fb1781338a8a8781811015156103f757fe5b9050602002013585604051600160a060020a0394851681529290931660208301526040808301919091526060820192909252608001905180910390a160019092019161017a565b831561044957600080fd5b5050505050505050565b60005433600160a060020a0390811691161461046e57600080fd5b600160a060020a038116151561048357600080fd5b600054600160a060020a0380831691167f8be0079c531659141344cd1fd0a4f28419497f9722a3daafe3b4186f6b6457e060405160405180910390a36000805473ffffffffffffffffffffffffffffffffffffffff1916600160a060020a0392909216919091179055565b60005433600160a060020a0390811691161461050957600080fd5b80600160a060020a0316ff5b60008282111561052157fe5b50900390565b600080828481151561053557fe5b049493505050505600a165627a7a723058203cd2c4989509c8a774104deeb6e0ffaa76ed65b381f47443487ba2cda699498a0029",
  "source": "pragma solidity ^0.4.19;\n\nimport \"../ERC721/ERC721Token.sol\";\nimport \"../../node_modules/zeppelin-solidity/contracts/math/SafeMath.sol\";\nimport \"../../node_modules/zeppelin-solidity/contracts/lifecycle/Destructible.sol\";\n\n\ncontract Buyable is Destructible {\n    using SafeMath for uint256;\n\n    ERC721Token tokenERC721;\n    \n    event BuyTokens(address exOwner, address newOwner, uint id, uint Price);\n\n    function () public payable {\n        revert();\n    }\n    \n    function buyTokens(uint[] _tokensId, uint[] _newTokensPrice) payable external {\n        require(msg.value > 0);\n        require(msg.sender != address(0));\n        require(_tokensId.length <= 5);\n        require(_tokensId.length == _newTokensPrice.length);\n\n        uint amount = msg.value;\n\n        for ( uint i = 0; i < _tokensId.length; i++ ) {\n            uint tokenPrice = tokenERC721.tokenPriceOf(_tokensId[i]);\n\n            require(tokenPrice <= amount);\n\n            if(amount != 0) {\n                amount = amount.sub(tokenPrice);\n            }\n            \n            address exOwner = tokenERC721.ownerOf(_tokensId[i]);\n            \n            //substract Trading fees is 1%\n            exOwner.transfer(tokenPrice.sub(tokenPrice.div(100)));\n\n            //send trading fee to contract Owner\n            owner.transfer(tokenPrice.div(100));\n            \n            tokenERC721.clearApprovalAndTransfer(exOwner, msg.sender, _tokensId[i]);\n\n            BuyTokens(exOwner, msg.sender, _tokensId[i], tokenPrice);\n        }\n\n        require(amount == 0);\n\n    }\n\n}",
  "sourcePath": "/home/cyril/Documents/headInTheStars_Smart_Contract/contracts/logic/Buyable.sol",
  "compiler": {
    "name": "solc",
    "version": "0.4.19+commit.c4cbbb05.Emscripten.clang"
  },
  "schemaVersion": "2.0.0",
  "updatedAt": "2018-03-24T22:45:40.680Z"
}