{
  "contractName": "ERC721Token",
  "abi": [
    {
      "constant": true,
      "inputs": [],
      "name": "initDwarfPlanetsPrice",
      "outputs": [
        {
          "name": "",
          "type": "uint256"
        }
      ],
      "payable": false,
      "stateMutability": "view",
      "type": "function"
    },
    {
      "constant": true,
      "inputs": [],
      "name": "initPlanetsPrice",
      "outputs": [
        {
          "name": "",
          "type": "uint256"
        }
      ],
      "payable": false,
      "stateMutability": "view",
      "type": "function"
    },
    {
      "constant": true,
      "inputs": [],
      "name": "totalSupply",
      "outputs": [
        {
          "name": "",
          "type": "uint256"
        }
      ],
      "payable": false,
      "stateMutability": "view",
      "type": "function"
    },
    {
      "constant": true,
      "inputs": [
        {
          "name": "_tokenId",
          "type": "uint256"
        }
      ],
      "name": "approvedFor",
      "outputs": [
        {
          "name": "",
          "type": "address"
        }
      ],
      "payable": false,
      "stateMutability": "view",
      "type": "function"
    },
    {
      "constant": true,
      "inputs": [
        {
          "name": "_owner",
          "type": "address"
        }
      ],
      "name": "tokensOf",
      "outputs": [
        {
          "name": "",
          "type": "uint256[]"
        }
      ],
      "payable": false,
      "stateMutability": "view",
      "type": "function"
    },
    {
      "constant": true,
      "inputs": [
        {
          "name": "_tokenId",
          "type": "uint256"
        }
      ],
      "name": "tokenDetailsOf",
      "outputs": [
        {
          "name": "",
          "type": "address"
        },
        {
          "name": "",
          "type": "uint256"
        },
        {
          "name": "",
          "type": "string"
        },
        {
          "name": "",
          "type": "address"
        }
      ],
      "payable": false,
      "stateMutability": "view",
      "type": "function"
    },
    {
      "constant": true,
      "inputs": [
        {
          "name": "_tokenId",
          "type": "uint256"
        }
      ],
      "name": "ownerOf",
      "outputs": [
        {
          "name": "",
          "type": "address"
        }
      ],
      "payable": false,
      "stateMutability": "view",
      "type": "function"
    },
    {
      "constant": true,
      "inputs": [
        {
          "name": "_owner",
          "type": "address"
        }
      ],
      "name": "balanceOf",
      "outputs": [
        {
          "name": "",
          "type": "uint256"
        }
      ],
      "payable": false,
      "stateMutability": "view",
      "type": "function"
    },
    {
      "constant": true,
      "inputs": [],
      "name": "initExoplanetsPrice",
      "outputs": [
        {
          "name": "",
          "type": "uint256"
        }
      ],
      "payable": false,
      "stateMutability": "view",
      "type": "function"
    },
    {
      "constant": true,
      "inputs": [
        {
          "name": "",
          "type": "uint256"
        }
      ],
      "name": "ownedTokensIndex",
      "outputs": [
        {
          "name": "",
          "type": "uint256"
        }
      ],
      "payable": false,
      "stateMutability": "view",
      "type": "function"
    },
    {
      "constant": true,
      "inputs": [],
      "name": "totalTokens",
      "outputs": [
        {
          "name": "",
          "type": "uint256"
        }
      ],
      "payable": false,
      "stateMutability": "view",
      "type": "function"
    },
    {
      "constant": true,
      "inputs": [],
      "name": "initStarsPrice",
      "outputs": [
        {
          "name": "",
          "type": "uint256"
        }
      ],
      "payable": false,
      "stateMutability": "view",
      "type": "function"
    },
    {
      "constant": true,
      "inputs": [],
      "name": "owner",
      "outputs": [
        {
          "name": "",
          "type": "address"
        }
      ],
      "payable": false,
      "stateMutability": "view",
      "type": "function"
    },
    {
      "constant": true,
      "inputs": [
        {
          "name": "_tokenId",
          "type": "uint256"
        }
      ],
      "name": "tokenPriceOf",
      "outputs": [
        {
          "name": "",
          "type": "uint256"
        }
      ],
      "payable": false,
      "stateMutability": "view",
      "type": "function"
    },
    {
      "constant": true,
      "inputs": [],
      "name": "initSatellitesPrice",
      "outputs": [
        {
          "name": "",
          "type": "uint256"
        }
      ],
      "payable": false,
      "stateMutability": "view",
      "type": "function"
    },
    {
      "constant": true,
      "inputs": [],
      "name": "amount",
      "outputs": [
        {
          "name": "",
          "type": "uint256"
        }
      ],
      "payable": false,
      "stateMutability": "view",
      "type": "function"
    },
    {
      "constant": true,
      "inputs": [
        {
          "name": "",
          "type": "address"
        },
        {
          "name": "",
          "type": "uint256"
        }
      ],
      "name": "ownedTokens",
      "outputs": [
        {
          "name": "",
          "type": "uint256"
        }
      ],
      "payable": false,
      "stateMutability": "view",
      "type": "function"
    },
    {
      "constant": true,
      "inputs": [
        {
          "name": "_tokenId",
          "type": "uint256"
        }
      ],
      "name": "tokenNameOf",
      "outputs": [
        {
          "name": "",
          "type": "string"
        }
      ],
      "payable": false,
      "stateMutability": "view",
      "type": "function"
    },
    {
      "constant": false,
      "inputs": [
        {
          "name": "newOwner",
          "type": "address"
        }
      ],
      "name": "transferOwnership",
      "outputs": [],
      "payable": false,
      "stateMutability": "nonpayable",
      "type": "function"
    },
    {
      "anonymous": false,
      "inputs": [
        {
          "indexed": true,
          "name": "previousOwner",
          "type": "address"
        },
        {
          "indexed": true,
          "name": "newOwner",
          "type": "address"
        }
      ],
      "name": "OwnershipTransferred",
      "type": "event"
    },
    {
      "anonymous": false,
      "inputs": [
        {
          "indexed": true,
          "name": "_from",
          "type": "address"
        },
        {
          "indexed": true,
          "name": "_to",
          "type": "address"
        },
        {
          "indexed": false,
          "name": "_tokenId",
          "type": "uint256"
        }
      ],
      "name": "Transfer",
      "type": "event"
    },
    {
      "anonymous": false,
      "inputs": [
        {
          "indexed": true,
          "name": "_owner",
          "type": "address"
        },
        {
          "indexed": true,
          "name": "_approved",
          "type": "address"
        },
        {
          "indexed": false,
          "name": "_tokenId",
          "type": "uint256"
        }
      ],
      "name": "Approval",
      "type": "event"
    },
    {
      "constant": false,
      "inputs": [
        {
          "name": "_to",
          "type": "address"
        },
        {
          "name": "_tokenId",
          "type": "uint256"
        }
      ],
      "name": "transfer",
      "outputs": [],
      "payable": false,
      "stateMutability": "nonpayable",
      "type": "function"
    },
    {
      "constant": false,
      "inputs": [
        {
          "name": "_to",
          "type": "address"
        },
        {
          "name": "_tokenId",
          "type": "uint256"
        }
      ],
      "name": "approve",
      "outputs": [],
      "payable": false,
      "stateMutability": "nonpayable",
      "type": "function"
    },
    {
      "constant": false,
      "inputs": [
        {
          "name": "_tokenId",
          "type": "uint256"
        }
      ],
      "name": "takeOwnership",
      "outputs": [],
      "payable": false,
      "stateMutability": "nonpayable",
      "type": "function"
    }
  ],
  "bytecode": "0x6060604052600a8054600160a060020a03191633600160a060020a0316179055610de28061002e6000396000f3006060604052600436106101275763ffffffff7c0100000000000000000000000000000000000000000000000000000000600035041663095ea7b3811461012c578063110c961214610150578063133b489c1461017557806318160ddd146101885780632a6dd48f1461019b5780635a3f2672146101cd5780635e61af8d1461023f5780636352211e146102ed57806370a0823114610303578063725c74041461032257806374e24367146103355780637e1c0c091461034b5780638c9d329a1461035e5780638da5cb5b146103715780638e36977a14610384578063938a09c11461039a578063a9059cbb146103ad578063aa8c217c146103cf578063b2e6ceeb146103e2578063e149f036146103f8578063e324c6641461041a578063f2fde38b146104a7575b600080fd5b341561013757600080fd5b61014e600160a060020a03600435166024356104c6565b005b341561015b57600080fd5b6101636105bb565b60405190815260200160405180910390f35b341561018057600080fd5b6101636105c1565b341561019357600080fd5b6101636105c7565b34156101a657600080fd5b6101b16004356105ce565b604051600160a060020a03909116815260200160405180910390f35b34156101d857600080fd5b6101ec600160a060020a03600435166105ec565b60405160208082528190810183818151815260200191508051906020019060200280838360005b8381101561022b578082015183820152602001610213565b505050509050019250505060405180910390f35b341561024a57600080fd5b61025560043561066f565b604051600160a060020a038086168252602082018590528216606082015260806040820181815290820184818151815260200191508051906020019080838360005b838110156102af578082015183820152602001610297565b50505050905090810190601f1680156102dc5780820380516001836020036101000a031916815260200191505b509550505050505060405180910390f35b34156102f857600080fd5b6101b16004356106d6565b341561030e57600080fd5b610163600160a060020a0360043516610700565b341561032d57600080fd5b61016361071b565b341561034057600080fd5b610163600435610721565b341561035657600080fd5b610163610733565b341561036957600080fd5b610163610739565b341561037c57600080fd5b6101b161073f565b341561038f57600080fd5b61016360043561074e565b34156103a557600080fd5b61016361076c565b34156103b857600080fd5b61014e600160a060020a0360043516602435610772565b34156103da57600080fd5b6101636107a9565b34156103ed57600080fd5b61014e6004356107af565b341561040357600080fd5b610163600160a060020a03600435166024356107da565b341561042557600080fd5b610430600435610808565b60405160208082528190810183818151815260200191508051906020019080838360005b8381101561046c578082015183820152602001610454565b50505050905090810190601f1680156104995780820380516001836020036101000a031916815260200191505b509250505060405180910390f35b34156104b257600080fd5b61014e600160a060020a0360043516610832565b60008133600160a060020a03166104dc826106d6565b600160a060020a0316146104ef57600080fd5b6104f8836106d6565b9150600160a060020a03848116908316141561051357600080fd5b61051c836105ce565b600160a060020a031615158061053a5750600160a060020a03841615155b156105b55760008381526001602052604090819020600301805473ffffffffffffffffffffffffffffffffffffffff1916600160a060020a0387811691821790925591908416907f8c5be1e5ebec7d5bd14f71427d1e84f3dd0314c0f7b2291e5b200ac8c7c3b9259086905190815260200160405180910390a35b50505050565b60065481565b60055481565b6000545b90565b600090815260016020526040902060030154600160a060020a031690565b6105f4610d67565b6002600083600160a060020a0316600160a060020a0316815260200190815260200160002080548060200260200160405190810160405280929190818152602001828054801561066357602002820191906000526020600020905b81548152602001906001019080831161064f575b50505050509050919050565b60008061067a610d67565b60008481526001602081905260408220805491810154600290910154600160a060020a03909216916106ab906108cd565b60009788526001602052604090972060030154919790969550600160a060020a039091169350915050565b600081815260016020526040812054600160a060020a03168015156106fa57600080fd5b92915050565b600160a060020a031660009081526002602052604090205490565b60085481565b60036020526000908152604090205481565b60005481565b60045481565b600a54600160a060020a031681565b6000818152600160208190526040822001548181116106fa57600080fd5b60075481565b8033600160a060020a0316610786826106d6565b600160a060020a03161461079957600080fd5b6107a4338484610989565b505050565b60095481565b6107b93382610a4f565b15156107c457600080fd5b6107d76107d0826106d6565b3383610989565b50565b6002602052816000526040600020818154811015156107f557fe5b6000918252602090912001549150829050565b610810610d67565b60008281526001602052604090206002015461082b816108cd565b9392505050565b600a5433600160a060020a0390811691161461084d57600080fd5b600160a060020a038116151561086257600080fd5b600a54600160a060020a0380831691167f8be0079c531659141344cd1fd0a4f28419497f9722a3daafe3b4186f6b6457e060405160405180910390a3600a805473ffffffffffffffffffffffffffffffffffffffff1916600160a060020a0392909216919091179055565b6108d5610d67565b6108dd610d67565b600060206040518059106108ee5750595b818152601f19601f8301168101602001604052905091505b60208110156109825783816020811061091b57fe5b1a7f01000000000000000000000000000000000000000000000000000000000000000282828151811061094a57fe5b9060200101907effffffffffffffffffffffffffffffffffffffffffffffffffffffffffffff1916908160001a905350600101610906565b5092915050565b600160a060020a038216151561099e57600080fd5b6109a7816106d6565b600160a060020a03838116911614156109bf57600080fd5b82600160a060020a03166109d2826106d6565b600160a060020a0316146109e557600080fd5b6109ef8382610a75565b6109f98382610b0a565b610a038282610c81565b81600160a060020a031683600160a060020a03167fddf252ad1be2c89b69c2b068fc378daa952ba7f163c4a11628f55a4df523b3ef8360405190815260200160405180910390a3505050565b600082600160a060020a0316610a64836105ce565b600160a060020a0316149392505050565b81600160a060020a0316610a88826106d6565b600160a060020a031614610a9b57600080fd5b600081815260016020526040808220600301805473ffffffffffffffffffffffffffffffffffffffff19169055600160a060020a038416907f8c5be1e5ebec7d5bd14f71427d1e84f3dd0314c0f7b2291e5b200ac8c7c3b9259084905190815260200160405180910390a35050565b600080600084600160a060020a0316610b22856106d6565b600160a060020a031614610b3557600080fd5b6000848152600360205260409020549250610b606001610b5487610700565b9063ffffffff610d4616565b600160a060020a038616600090815260026020526040902080549193509083908110610b8857fe5b6000918252602080832090910154868352600182526040808420805473ffffffffffffffffffffffffffffffffffffffff19169055600160a060020a0389168452600290925291208054919250829185908110610be157fe5b6000918252602080832090910192909255600160a060020a0387168152600290915260408120805484908110610c1357fe5b6000918252602080832090910192909255600160a060020a0387168152600290915260409020805490610c4a906000198301610d79565b50600084815260036020526040808220829055828252812084905554610c7790600163ffffffff610d4616565b6000555050505050565b600081815260016020526040812054600160a060020a031615610ca357600080fd5b6000828152600160205260409020805473ffffffffffffffffffffffffffffffffffffffff1916600160a060020a038516179055610ce083610700565b600160a060020a038416600090815260026020526040902080549192509060018101610d0c8382610d79565b506000918252602080832091909101849055838252600390526040812082905554610d3e90600163ffffffff610d5816565b600055505050565b600082821115610d5257fe5b50900390565b60008282018381101561082b57fe5b60206040519081016040526000815290565b8154818355818115116107a4576000838152602090206107a49181019083016105cb91905b80821115610db25760008155600101610d9e565b50905600a165627a7a72305820e7e79cd8b3d5ad10787e1369600594fbc6e8035dc0a4dee6341e8ad95df260c50029",
  "source": "pragma solidity ^0.4.18;\n\nimport \"../node_modules/zeppelin-solidity/contracts/token/ERC721/ERC721.sol\";\nimport \"../node_modules/zeppelin-solidity/contracts/math/SafeMath.sol\";\nimport \"./Getter.sol\";\n\n/**\n * @title ERC721Token\n * Generic implementation for the required functionality of the ERC721 standard\n */\ncontract ERC721Token is ERC721, Getter {\n    using SafeMath for uint256;\n\n    /**\n    * @dev Guarantees msg.sender is owner of the given token\n    * @param _tokenId uint256 ID of the token to validate its ownership belongs to msg.sender\n    */\n    modifier onlyOwnerOf(uint256 _tokenId) {\n        require(ownerOf(_tokenId) == msg.sender);\n        _;\n    }\n\n    /**\n    * @dev Transfers the ownership of a given token ID to another address\n    * @param _to address to receive the ownership of the given token ID\n    * @param _tokenId uint256 ID of the token to be transferred\n    */\n    function transfer(address _to, uint256 _tokenId) public onlyOwnerOf(_tokenId) {\n        clearApprovalAndTransfer(msg.sender, _to, _tokenId);\n    }\n\n    /**\n    * @dev Approves another address to claim for the ownership of the given token ID\n    * @param _to address to be approved for the given token ID\n    * @param _tokenId uint256 ID of the token to be approved\n    */\n    function approve(address _to, uint256 _tokenId) public onlyOwnerOf(_tokenId) {\n        address owner = ownerOf(_tokenId);\n        require(_to != owner);\n        if (approvedFor(_tokenId) != 0 || _to != 0) {\n            tokens[_tokenId].tokenApproval = _to;\n            Approval(owner, _to, _tokenId);\n        }\n    }\n\n    /**\n    * @dev Tells whether the msg.sender is approved for the given token ID or not\n    * This function is not private so it can be extended in further implementations like the operatable ERC721\n    * @param _owner address of the owner to query the approval of\n    * @param _tokenId uint256 ID of the token to query the approval of\n    * @return bool whether the msg.sender is approved for the given token ID or not\n    */\n    function isApprovedFor(address _owner, uint256 _tokenId) internal view returns (bool) {\n        return approvedFor(_tokenId) == _owner;\n    }\n\n    /**\n    * @dev Claims the ownership of a given token ID\n    * @param _tokenId uint256 ID of the token being claimed by the msg.sender\n    */\n    function takeOwnership(uint256 _tokenId) public {\n        require(isApprovedFor(msg.sender, _tokenId));\n        clearApprovalAndTransfer(ownerOf(_tokenId), msg.sender, _tokenId);\n    }\n\n    /**\n    * @dev Internal function to clear current approval and transfer the ownership of a given token ID\n    * @param _from address which you want to send tokens from\n    * @param _to address which you want to transfer the token to\n    * @param _tokenId uint256 ID of the token to be transferred\n    */\n    function clearApprovalAndTransfer(address _from, address _to, uint256 _tokenId) internal {\n        require(_to != address(0));\n        require(_to != ownerOf(_tokenId));\n        require(ownerOf(_tokenId) == _from);\n\n        clearApproval(_from, _tokenId);\n        removeToken(_from, _tokenId);\n        addToken(_to, _tokenId);\n        Transfer(_from, _to, _tokenId);\n    }\n\n    /**\n    * @dev Internal function to clear current approval of a given token ID\n    * @param _tokenId uint256 ID of the token to be transferred\n    */\n    function clearApproval(address _owner, uint256 _tokenId) internal {\n        require(ownerOf(_tokenId) == _owner);\n        tokens[_tokenId].tokenApproval = 0;\n        Approval(_owner, 0, _tokenId);\n    }\n\n    /**\n    * @dev Internal function to add a token ID to the list of a given address\n    * @param _to address representing the new owner of the given token ID\n    * @param _tokenId uint256 ID of the token to be added to the tokens list of the given address\n    */\n    function addToken(address _to, uint256 _tokenId) internal {\n        require(tokens[_tokenId].tokenOwner == address(0));\n        tokens[_tokenId].tokenOwner = _to;\n        uint256 length = balanceOf(_to);\n        ownedTokens[_to].push(_tokenId);\n        ownedTokensIndex[_tokenId] = length;\n        totalTokens = totalTokens.add(1);\n    }\n\n    /**\n    * @dev Internal function to remove a token ID from the list of a given address\n    * @param _from address representing the previous owner of the given token ID\n    * @param _tokenId uint256 ID of the token to be removed from the tokens list of the given address\n    */\n    function removeToken(address _from, uint256 _tokenId) internal {\n        require(ownerOf(_tokenId) == _from);\n\n        uint256 tokenIndex = ownedTokensIndex[_tokenId];\n        uint256 lastTokenIndex = balanceOf(_from).sub(1);\n        uint256 lastToken = ownedTokens[_from][lastTokenIndex];\n\n        tokens[_tokenId].tokenOwner = 0;\n        ownedTokens[_from][tokenIndex] = lastToken;\n        ownedTokens[_from][lastTokenIndex] = 0;\n        // Note that this will handle single-element arrays. In that case, both tokenIndex and lastTokenIndex are going to\n        // be zero. Then we can make sure that we will remove _tokenId from the ownedTokens list since we are first swapping\n        // the lastToken to the first position, and then dropping the element placed in the last position of the list\n\n        ownedTokens[_from].length--;\n        ownedTokensIndex[_tokenId] = 0;\n        ownedTokensIndex[lastToken] = tokenIndex;\n        totalTokens = totalTokens.sub(1);\n    }\n}",
  "sourcePath": "/home/cyril/Documents/Personal_Projects/Smart_contract_Stars/contracts/ERC721Token.sol",
  "compiler": {
    "name": "solc",
    "version": "0.4.19+commit.c4cbbb05.Emscripten.clang"
  },
  "schemaVersion": "2.0.0",
  "updatedAt": "2018-03-21T15:15:10.694Z"
}