{
  "contractName": "ERC721Token",
  "abi": [
    {
      "constant": true,
      "inputs": [],
      "name": "totalSupply",
      "outputs": [
        {
          "name": "",
          "type": "uint256"
        }
      ],
      "payable": false,
      "stateMutability": "view",
      "type": "function"
    },
    {
      "constant": false,
      "inputs": [
        {
          "name": "_tokenId",
          "type": "uint256"
        },
        {
          "name": "_tokenName",
          "type": "bytes32"
        }
      ],
      "name": "changeTokenName",
      "outputs": [],
      "payable": false,
      "stateMutability": "nonpayable",
      "type": "function"
    },
    {
      "constant": true,
      "inputs": [
        {
          "name": "_tokenId",
          "type": "uint256"
        }
      ],
      "name": "approvedFor",
      "outputs": [
        {
          "name": "",
          "type": "address"
        }
      ],
      "payable": false,
      "stateMutability": "view",
      "type": "function"
    },
    {
      "constant": false,
      "inputs": [
        {
          "name": "_tokenId",
          "type": "uint256"
        },
        {
          "name": "_to",
          "type": "address"
        }
      ],
      "name": "changeTokenOwner",
      "outputs": [],
      "payable": false,
      "stateMutability": "nonpayable",
      "type": "function"
    },
    {
      "constant": true,
      "inputs": [
        {
          "name": "_owner",
          "type": "address"
        }
      ],
      "name": "tokensOf",
      "outputs": [
        {
          "name": "",
          "type": "uint256[]"
        }
      ],
      "payable": false,
      "stateMutability": "view",
      "type": "function"
    },
    {
      "constant": true,
      "inputs": [
        {
          "name": "_tokenId",
          "type": "uint256"
        }
      ],
      "name": "tokenDetailsOf",
      "outputs": [
        {
          "name": "",
          "type": "address"
        },
        {
          "name": "",
          "type": "uint256"
        },
        {
          "name": "",
          "type": "string"
        },
        {
          "name": "",
          "type": "string"
        },
        {
          "name": "",
          "type": "address"
        }
      ],
      "payable": false,
      "stateMutability": "view",
      "type": "function"
    },
    {
      "constant": false,
      "inputs": [
        {
          "name": "_address",
          "type": "address"
        }
      ],
      "name": "denyAccess",
      "outputs": [],
      "payable": false,
      "stateMutability": "nonpayable",
      "type": "function"
    },
    {
      "constant": false,
      "inputs": [
        {
          "name": "_tokenId",
          "type": "uint256"
        },
        {
          "name": "_tokenPrice",
          "type": "uint256"
        }
      ],
      "name": "changeTokenPrice",
      "outputs": [],
      "payable": false,
      "stateMutability": "nonpayable",
      "type": "function"
    },
    {
      "constant": true,
      "inputs": [
        {
          "name": "_tokenId",
          "type": "uint256"
        }
      ],
      "name": "ownerOf",
      "outputs": [
        {
          "name": "",
          "type": "address"
        }
      ],
      "payable": false,
      "stateMutability": "view",
      "type": "function"
    },
    {
      "constant": true,
      "inputs": [
        {
          "name": "_owner",
          "type": "address"
        }
      ],
      "name": "balanceOf",
      "outputs": [
        {
          "name": "",
          "type": "uint256"
        }
      ],
      "payable": false,
      "stateMutability": "view",
      "type": "function"
    },
    {
      "constant": true,
      "inputs": [
        {
          "name": "",
          "type": "address"
        }
      ],
      "name": "accessAllowed",
      "outputs": [
        {
          "name": "",
          "type": "bool"
        }
      ],
      "payable": false,
      "stateMutability": "view",
      "type": "function"
    },
    {
      "constant": true,
      "inputs": [
        {
          "name": "",
          "type": "uint256"
        }
      ],
      "name": "ownedTokensIndex",
      "outputs": [
        {
          "name": "",
          "type": "uint256"
        }
      ],
      "payable": false,
      "stateMutability": "view",
      "type": "function"
    },
    {
      "constant": true,
      "inputs": [],
      "name": "totalTokens",
      "outputs": [
        {
          "name": "",
          "type": "uint256"
        }
      ],
      "payable": false,
      "stateMutability": "view",
      "type": "function"
    },
    {
      "constant": true,
      "inputs": [
        {
          "name": "_tokenId",
          "type": "uint256"
        }
      ],
      "name": "tokenPriceOf",
      "outputs": [
        {
          "name": "",
          "type": "uint256"
        }
      ],
      "payable": false,
      "stateMutability": "view",
      "type": "function"
    },
    {
      "constant": false,
      "inputs": [
        {
          "name": "_address",
          "type": "address"
        }
      ],
      "name": "allowAccess",
      "outputs": [],
      "payable": false,
      "stateMutability": "nonpayable",
      "type": "function"
    },
    {
      "constant": false,
      "inputs": [
        {
          "name": "_tokenId",
          "type": "uint256"
        },
        {
          "name": "_tokenType",
          "type": "bytes32"
        },
        {
          "name": "_tokenName",
          "type": "bytes32"
        },
        {
          "name": "_tokenPrice",
          "type": "uint256"
        }
      ],
      "name": "createToken",
      "outputs": [],
      "payable": false,
      "stateMutability": "nonpayable",
      "type": "function"
    },
    {
      "constant": true,
      "inputs": [
        {
          "name": "",
          "type": "address"
        },
        {
          "name": "",
          "type": "uint256"
        }
      ],
      "name": "ownedTokens",
      "outputs": [
        {
          "name": "",
          "type": "uint256"
        }
      ],
      "payable": false,
      "stateMutability": "view",
      "type": "function"
    },
    {
      "constant": true,
      "inputs": [
        {
          "name": "_tokenId",
          "type": "uint256"
        }
      ],
      "name": "tokenNameOf",
      "outputs": [
        {
          "name": "",
          "type": "string"
        }
      ],
      "payable": false,
      "stateMutability": "view",
      "type": "function"
    },
    {
      "anonymous": false,
      "inputs": [
        {
          "indexed": true,
          "name": "_from",
          "type": "address"
        },
        {
          "indexed": true,
          "name": "_to",
          "type": "address"
        },
        {
          "indexed": false,
          "name": "_tokenId",
          "type": "uint256"
        }
      ],
      "name": "Transfer",
      "type": "event"
    },
    {
      "anonymous": false,
      "inputs": [
        {
          "indexed": true,
          "name": "_owner",
          "type": "address"
        },
        {
          "indexed": true,
          "name": "_approved",
          "type": "address"
        },
        {
          "indexed": false,
          "name": "_tokenId",
          "type": "uint256"
        }
      ],
      "name": "Approval",
      "type": "event"
    },
    {
      "constant": false,
      "inputs": [
        {
          "name": "_to",
          "type": "address"
        },
        {
          "name": "_tokenId",
          "type": "uint256"
        }
      ],
      "name": "transfer",
      "outputs": [],
      "payable": false,
      "stateMutability": "nonpayable",
      "type": "function"
    },
    {
      "constant": false,
      "inputs": [
        {
          "name": "_to",
          "type": "address"
        },
        {
          "name": "_tokenId",
          "type": "uint256"
        }
      ],
      "name": "approve",
      "outputs": [],
      "payable": false,
      "stateMutability": "nonpayable",
      "type": "function"
    },
    {
      "constant": false,
      "inputs": [
        {
          "name": "_tokenId",
          "type": "uint256"
        }
      ],
      "name": "takeOwnership",
      "outputs": [],
      "payable": false,
      "stateMutability": "nonpayable",
      "type": "function"
    },
    {
      "constant": false,
      "inputs": [
        {
          "name": "_from",
          "type": "address"
        },
        {
          "name": "_to",
          "type": "address"
        },
        {
          "name": "_tokenId",
          "type": "uint256"
        }
      ],
      "name": "clearApprovalAndTransfer",
      "outputs": [],
      "payable": false,
      "stateMutability": "nonpayable",
      "type": "function"
    },
    {
      "constant": false,
      "inputs": [
        {
          "name": "_to",
          "type": "address"
        },
        {
          "name": "_tokenId",
          "type": "uint256"
        }
      ],
      "name": "addToken",
      "outputs": [],
      "payable": false,
      "stateMutability": "nonpayable",
      "type": "function"
    },
    {
      "constant": false,
      "inputs": [
        {
          "name": "_from",
          "type": "address"
        },
        {
          "name": "_tokenId",
          "type": "uint256"
        }
      ],
      "name": "removeToken",
      "outputs": [],
      "payable": false,
      "stateMutability": "nonpayable",
      "type": "function"
    }
  ],
  "bytecode": "0x60606040908152600160a060020a0333811660009081526004602052828120805460ff19908116600190811790925530909316825292902080549091169091179055611100806100506000396000f30060606040526004361061013d5763ffffffff7c0100000000000000000000000000000000000000000000000000000000600035041663095ea7b3811461014257806313baf1e61461016657806318160ddd1461018857806327701247146101ad5780632a6dd48f146101c65780634fc06994146101f85780635a3f26721461021a5780635e61af8d1461028c57806361afd5ac146103a457806362e8e8ac146103c35780636352211e146103dc57806370a08231146103f2578063725019761461041157806374e24367146104445780637e1c0c091461045a5780638e36977a1461046d578063a9059cbb14610483578063af81c5b9146104a5578063b2e6ceeb146104c7578063c4a85bc1146104dd578063c81e128b146104fc578063dc8b02031461051b578063e149f03614610543578063e324c66414610565575b600080fd5b341561014d57600080fd5b610164600160a060020a03600435166024356105f2565b005b341561017157600080fd5b610164600160a060020a03600435166024356106e7565b341561019357600080fd5b61019b610887565b60405190815260200160405180910390f35b34156101b857600080fd5b61016460043560243561088e565b34156101d157600080fd5b6101dc6004356108ee565b604051600160a060020a03909116815260200160405180910390f35b341561020357600080fd5b610164600435600160a060020a036024351661090c565b341561022557600080fd5b610239600160a060020a0360043516610971565b60405160208082528190810183818151815260200191508051906020019060200280838360005b83811015610278578082015183820152602001610260565b505050509050019250505060405180910390f35b341561029757600080fd5b6102a26004356109f4565b604051600160a060020a038087168252602082018690528216608082015260a060408201818152906060830190830186818151815260200191508051906020019080838360005b838110156103015780820151838201526020016102e9565b50505050905090810190601f16801561032e5780820380516001836020036101000a031916815260200191505b50838103825285818151815260200191508051906020019080838360005b8381101561036457808201518382015260200161034c565b50505050905090810190601f1680156103915780820380516001836020036101000a031916815260200191505b5097505050505050505060405180910390f35b34156103af57600080fd5b610164600160a060020a0360043516610a81565b34156103ce57600080fd5b610164600435602435610acc565b34156103e757600080fd5b6101dc600435610b0d565b34156103fd57600080fd5b61019b600160a060020a0360043516610b37565b341561041c57600080fd5b610430600160a060020a0360043516610b52565b604051901515815260200160405180910390f35b341561044f57600080fd5b61019b600435610b67565b341561046557600080fd5b61019b610b79565b341561047857600080fd5b61019b600435610b7f565b341561048e57600080fd5b610164600160a060020a0360043516602435610b95565b34156104b057600080fd5b610164600160a060020a0360043516602435610bcc565b34156104d257600080fd5b610164600435610cbb565b34156104e857600080fd5b610164600160a060020a0360043516610ce6565b341561050757600080fd5b610164600435602435604435606435610d34565b341561052657600080fd5b610164600160a060020a0360043581169060243516604435610da0565b341561054e57600080fd5b61019b600160a060020a0360043516602435610e90565b341561057057600080fd5b61057b600435610ebe565b60405160208082528190810183818151815260200191508051906020019080838360005b838110156105b757808201518382015260200161059f565b50505050905090810190601f1680156105e45780820380516001836020036101000a031916815260200191505b509250505060405180910390f35b60008133600160a060020a031661060882610b0d565b600160a060020a03161461061b57600080fd5b61062483610b0d565b9150600160a060020a03848116908316141561063f57600080fd5b610648836108ee565b600160a060020a03161515806106665750600160a060020a03841615155b156106e15760008381526001602052604090819020600401805473ffffffffffffffffffffffffffffffffffffffff1916600160a060020a0387811691821790925591908416907f8c5be1e5ebec7d5bd14f71427d1e84f3dd0314c0f7b2291e5b200ac8c7c3b9259086905190815260200160405180910390a35b50505050565b600160a060020a0333166000908152600460205260408120548190819060ff16151560011461071557600080fd5b84600160a060020a031661072885610b0d565b600160a060020a03161461073b57600080fd5b6000848152600360205260409020549250610766600161075a87610b37565b9063ffffffff610ee816565b600160a060020a03861660009081526002602052604090208054919350908390811061078e57fe5b6000918252602080832090910154868352600182526040808420805473ffffffffffffffffffffffffffffffffffffffff19169055600160a060020a03891684526002909252912080549192508291859081106107e757fe5b6000918252602080832090910192909255600160a060020a038716815260029091526040812080548490811061081957fe5b6000918252602080832090910192909255600160a060020a0387168152600290915260409020805490610850906000198301611080565b5060008481526003602052604080822082905582825281208490555461087d90600163ffffffff610ee816565b6000555050505050565b6000545b90565b600160a060020a03331660009081526004602052604090205460ff1615156001146108b857600080fd5b6000828152600160205260409020600301546373746172146108d957600080fd5b60009182526001602052604090912060020155565b600090815260016020526040902060040154600160a060020a031690565b600160a060020a03331660009081526004602052604090205460ff16151560011461093657600080fd5b600091825260016020526040909120805473ffffffffffffffffffffffffffffffffffffffff1916600160a060020a03909216919091179055565b6109796110a4565b6002600083600160a060020a0316600160a060020a031681526020019081526020016000208054806020026020016040519081016040528092919081815260200182805480156109e857602002820191906000526020600020905b8154815260200190600101908083116109d4575b50505050509050919050565b6000806109ff6110a4565b610a076110a4565b60008581526001602081905260408220805491810154600390910154600160a060020a0390921691610a3890610efa565b600089815260016020526040902060020154610a5390610efa565b6000998a526001602052604090992060040154929991989097509550600160a060020a039091169350915050565b600160a060020a03331660009081526004602052604090205460ff161515600114610aab57600080fd5b600160a060020a03166000908152600460205260409020805460ff19169055565b600160a060020a03331660009081526004602052604090205460ff161515600114610af657600080fd5b600091825260016020819052604090922090910155565b600081815260016020526040812054600160a060020a0316801515610b3157600080fd5b92915050565b600160a060020a031660009081526002602052604090205490565b60046020526000908152604090205460ff1681565b60036020526000908152604090205481565b60005481565b6000908152600160208190526040909120015490565b8033600160a060020a0316610ba982610b0d565b600160a060020a031614610bbc57600080fd5b610bc7338484610da0565b505050565b600160a060020a03331660009081526004602052604081205460ff161515600114610bf657600080fd5b600082815260016020526040902054600160a060020a031615610c1857600080fd5b6000828152600160205260409020805473ffffffffffffffffffffffffffffffffffffffff1916600160a060020a038516179055610c5583610b37565b600160a060020a038416600090815260026020526040902080549192509060018101610c818382611080565b506000918252602080832091909101849055838252600390526040812082905554610cb390600163ffffffff610fb616565b600055505050565b610cc53382610fc5565b1515610cd057600080fd5b610ce3610cdc82610b0d565b3383610da0565b50565b600160a060020a03331660009081526004602052604090205460ff161515600114610d1057600080fd5b600160a060020a03166000908152600460205260409020805460ff19166001179055565b600160a060020a03331660009081526004602052604090205460ff161515600114610d5e57600080fd5b60008481526001602052604090206003015415610d7a57600080fd5b600093845260016020819052604090942060038101939093556002830191909155910155565b600160a060020a03331660009081526004602052604090205460ff161515600114610dca57600080fd5b600160a060020a0382161515610ddf57600080fd5b610de881610b0d565b600160a060020a0383811691161415610e0057600080fd5b82600160a060020a0316610e1382610b0d565b600160a060020a031614610e2657600080fd5b610e308382610feb565b610e3a83826106e7565b610e448282610bcc565b81600160a060020a031683600160a060020a03167fddf252ad1be2c89b69c2b068fc378daa952ba7f163c4a11628f55a4df523b3ef8360405190815260200160405180910390a3505050565b600260205281600052604060002081815481101515610eab57fe5b6000918252602090912001549150829050565b610ec66110a4565b600082815260016020526040902060020154610ee181610efa565b9392505050565b600082821115610ef457fe5b50900390565b610f026110a4565b610f0a6110a4565b60006020604051805910610f1b5750595b818152601f19601f8301168101602001604052905091505b6020811015610faf57838160208110610f4857fe5b1a7f010000000000000000000000000000000000000000000000000000000000000002828281518110610f7757fe5b9060200101907effffffffffffffffffffffffffffffffffffffffffffffffffffffffffffff1916908160001a905350600101610f33565b5092915050565b600082820183811015610ee157fe5b600082600160a060020a0316610fda836108ee565b600160a060020a0316149392505050565b81600160a060020a0316610ffe82610b0d565b600160a060020a03161461101157600080fd5b600081815260016020526040808220600401805473ffffffffffffffffffffffffffffffffffffffff19169055600160a060020a038416907f8c5be1e5ebec7d5bd14f71427d1e84f3dd0314c0f7b2291e5b200ac8c7c3b9259084905190815260200160405180910390a35050565b815481835581811511610bc757600083815260209020610bc79181019083016110b6565b60206040519081016040526000815290565b61088b91905b808211156110d057600081556001016110bc565b50905600a165627a7a72305820c198ba650d1dcb71c0504788df93f108b18c66e82edba31ebf27575f3f64e3f80029",
  "source": "pragma solidity ^0.4.18;\n\nimport \"../../node_modules/zeppelin-solidity/contracts/token/ERC721/ERC721.sol\";\nimport \"../../node_modules/zeppelin-solidity/contracts/math/SafeMath.sol\";\nimport \"./StorageModifier.sol\";\n\n/**\n * @title ERC721Token\n * Generic implementation for the required functionality of the ERC721 standard\n */\ncontract ERC721Token is ERC721, StorageModifier {\n    using SafeMath for uint256;\n\n    /**\n    * @dev Guarantees msg.sender is owner of the given token\n    * @param _tokenId uint256 ID of the token to validate its ownership belongs to msg.sender\n    */\n    modifier onlyOwnerOf(uint256 _tokenId) {\n        require(ownerOf(_tokenId) == msg.sender);\n        _;\n    }\n\n    /**\n    * @dev Transfers the ownership of a given token ID to another address\n    * @param _to address to receive the ownership of the given token ID\n    * @param _tokenId uint256 ID of the token to be transferred\n    */\n    function transfer(address _to, uint256 _tokenId) public onlyOwnerOf(_tokenId) {\n        clearApprovalAndTransfer(msg.sender, _to, _tokenId);\n    }\n\n    /**\n    * @dev Approves another address to claim for the ownership of the given token ID\n    * @param _to address to be approved for the given token ID\n    * @param _tokenId uint256 ID of the token to be approved\n    */\n    function approve(address _to, uint256 _tokenId) public onlyOwnerOf(_tokenId) {\n        address owner = ownerOf(_tokenId);\n        require(_to != owner);\n        if (approvedFor(_tokenId) != 0 || _to != 0) {\n            tokens[_tokenId].tokenApproval = _to;\n            Approval(owner, _to, _tokenId);\n        }\n    }\n\n    /**\n    * @dev Claims the ownership of a given token ID\n    * @param _tokenId uint256 ID of the token being claimed by the msg.sender\n    */\n    function takeOwnership(uint256 _tokenId) public {\n        require(isApprovedFor(msg.sender, _tokenId));\n        clearApprovalAndTransfer(ownerOf(_tokenId), msg.sender, _tokenId);\n    }\n\n    /**\n    * @dev function to clear current approval and transfer the ownership of a given token ID\n    * @param _from address which you want to send tokens from\n    * @param _to address which you want to transfer the token to\n    * @param _tokenId uint256 ID of the token to be transferred\n    */\n    function clearApprovalAndTransfer(address _from, address _to, uint256 _tokenId) onlyAllowedAddresses public {\n        require(_to != address(0));\n        require(_to != ownerOf(_tokenId));\n        require(ownerOf(_tokenId) == _from);\n\n        clearApproval(_from, _tokenId);\n        removeToken(_from, _tokenId);\n        addToken(_to, _tokenId);\n        Transfer(_from, _to, _tokenId);\n    }\n\n    /**\n    * @dev Internal function to clear current approval of a given token ID\n    * @param _tokenId uint256 ID of the token to be transferred\n    */\n    function clearApproval(address _owner, uint256 _tokenId) internal {\n        require(ownerOf(_tokenId) == _owner);\n        tokens[_tokenId].tokenApproval = 0;\n        Approval(_owner, 0, _tokenId);\n    }\n\n    /**\n    * @dev function to add a token ID to the list of a given address\n    * @param _to address representing the new owner of the given token ID\n    * @param _tokenId uint256 ID of the token to be added to the tokens list of the given address\n    */\n    function addToken(address _to, uint256 _tokenId) onlyAllowedAddresses public {\n        require(tokens[_tokenId].tokenOwner == address(0));\n        tokens[_tokenId].tokenOwner = _to;\n        uint256 length = balanceOf(_to);\n        ownedTokens[_to].push(_tokenId);\n        ownedTokensIndex[_tokenId] = length;\n        totalTokens = totalTokens.add(1);\n    }\n\n    /**\n    * @dev function to remove a token ID from the list of a given address\n    * @param _from address representing the previous owner of the given token ID\n    * @param _tokenId uint256 ID of the token to be removed from the tokens list of the given address\n    */\n    function removeToken(address _from, uint256 _tokenId) onlyAllowedAddresses public {\n        require(ownerOf(_tokenId) == _from);\n\n        uint256 tokenIndex = ownedTokensIndex[_tokenId];\n        uint256 lastTokenIndex = balanceOf(_from).sub(1);\n        uint256 lastToken = ownedTokens[_from][lastTokenIndex];\n\n        tokens[_tokenId].tokenOwner = 0;\n        ownedTokens[_from][tokenIndex] = lastToken;\n        ownedTokens[_from][lastTokenIndex] = 0;\n        // Note that this will handle single-element arrays. In that case, both tokenIndex and lastTokenIndex are going to\n        // be zero. Then we can make sure that we will remove _tokenId from the ownedTokens list since we are first swapping\n        // the lastToken to the first position, and then dropping the element placed in the last position of the list\n\n        ownedTokens[_from].length--;\n        ownedTokensIndex[_tokenId] = 0;\n        ownedTokensIndex[lastToken] = tokenIndex;\n        totalTokens = totalTokens.sub(1);\n    }\n\n}",
  "sourcePath": "/home/cyril/Documents/headInTheStars_Smart_Contract/contracts/ERC721/ERC721Token.sol",
  "compiler": {
    "name": "solc",
    "version": "0.4.19+commit.c4cbbb05.Emscripten.clang"
  },
  "schemaVersion": "2.0.0",
  "updatedAt": "2018-03-24T22:49:43.328Z"
}