{
  "contractName": "ERC721Token",
  "abi": [
    {
      "constant": true,
      "inputs": [],
      "name": "totalSupply",
      "outputs": [
        {
          "name": "",
          "type": "uint256"
        }
      ],
      "payable": false,
      "stateMutability": "view",
      "type": "function"
    },
    {
      "constant": false,
      "inputs": [
        {
          "name": "_tokenId",
          "type": "uint256"
        },
        {
          "name": "_tokenName",
          "type": "bytes32"
        }
      ],
      "name": "changeTokenName",
      "outputs": [],
      "payable": false,
      "stateMutability": "nonpayable",
      "type": "function"
    },
    {
      "constant": true,
      "inputs": [
        {
          "name": "_tokenId",
          "type": "uint256"
        }
      ],
      "name": "approvedFor",
      "outputs": [
        {
          "name": "",
          "type": "address"
        }
      ],
      "payable": false,
      "stateMutability": "view",
      "type": "function"
    },
    {
      "constant": false,
      "inputs": [
        {
          "name": "_tokenId",
          "type": "uint256"
        },
        {
          "name": "_to",
          "type": "address"
        }
      ],
      "name": "changeTokenOwner",
      "outputs": [],
      "payable": false,
      "stateMutability": "nonpayable",
      "type": "function"
    },
    {
      "constant": true,
      "inputs": [
        {
          "name": "_owner",
          "type": "address"
        }
      ],
      "name": "tokensOf",
      "outputs": [
        {
          "name": "",
          "type": "uint256[]"
        }
      ],
      "payable": false,
      "stateMutability": "view",
      "type": "function"
    },
    {
      "constant": true,
      "inputs": [
        {
          "name": "_tokenId",
          "type": "uint256"
        }
      ],
      "name": "tokenDetailsOf",
      "outputs": [
        {
          "name": "",
          "type": "address"
        },
        {
          "name": "",
          "type": "uint256"
        },
        {
          "name": "",
          "type": "string"
        },
        {
          "name": "",
          "type": "address"
        }
      ],
      "payable": false,
      "stateMutability": "view",
      "type": "function"
    },
    {
      "constant": false,
      "inputs": [
        {
          "name": "_address",
          "type": "address"
        }
      ],
      "name": "denyAccess",
      "outputs": [],
      "payable": false,
      "stateMutability": "nonpayable",
      "type": "function"
    },
    {
      "constant": false,
      "inputs": [
        {
          "name": "_tokenId",
          "type": "uint256"
        },
        {
          "name": "_tokenPrice",
          "type": "uint256"
        }
      ],
      "name": "changeTokenPrice",
      "outputs": [],
      "payable": false,
      "stateMutability": "nonpayable",
      "type": "function"
    },
    {
      "constant": true,
      "inputs": [
        {
          "name": "_tokenId",
          "type": "uint256"
        }
      ],
      "name": "ownerOf",
      "outputs": [
        {
          "name": "",
          "type": "address"
        }
      ],
      "payable": false,
      "stateMutability": "view",
      "type": "function"
    },
    {
      "constant": true,
      "inputs": [
        {
          "name": "_owner",
          "type": "address"
        }
      ],
      "name": "balanceOf",
      "outputs": [
        {
          "name": "",
          "type": "uint256"
        }
      ],
      "payable": false,
      "stateMutability": "view",
      "type": "function"
    },
    {
      "constant": true,
      "inputs": [
        {
          "name": "",
          "type": "address"
        }
      ],
      "name": "accessAllowed",
      "outputs": [
        {
          "name": "",
          "type": "bool"
        }
      ],
      "payable": false,
      "stateMutability": "view",
      "type": "function"
    },
    {
      "constant": true,
      "inputs": [
        {
          "name": "",
          "type": "uint256"
        }
      ],
      "name": "ownedTokensIndex",
      "outputs": [
        {
          "name": "",
          "type": "uint256"
        }
      ],
      "payable": false,
      "stateMutability": "view",
      "type": "function"
    },
    {
      "constant": true,
      "inputs": [],
      "name": "totalTokens",
      "outputs": [
        {
          "name": "",
          "type": "uint256"
        }
      ],
      "payable": false,
      "stateMutability": "view",
      "type": "function"
    },
    {
      "constant": true,
      "inputs": [
        {
          "name": "_tokenId",
          "type": "uint256"
        }
      ],
      "name": "tokenPriceOf",
      "outputs": [
        {
          "name": "",
          "type": "uint256"
        }
      ],
      "payable": false,
      "stateMutability": "view",
      "type": "function"
    },
    {
      "constant": false,
      "inputs": [
        {
          "name": "_address",
          "type": "address"
        }
      ],
      "name": "allowAccess",
      "outputs": [],
      "payable": false,
      "stateMutability": "nonpayable",
      "type": "function"
    },
    {
      "constant": true,
      "inputs": [
        {
          "name": "",
          "type": "address"
        },
        {
          "name": "",
          "type": "uint256"
        }
      ],
      "name": "ownedTokens",
      "outputs": [
        {
          "name": "",
          "type": "uint256"
        }
      ],
      "payable": false,
      "stateMutability": "view",
      "type": "function"
    },
    {
      "constant": true,
      "inputs": [
        {
          "name": "_tokenId",
          "type": "uint256"
        }
      ],
      "name": "tokenNameOf",
      "outputs": [
        {
          "name": "",
          "type": "string"
        }
      ],
      "payable": false,
      "stateMutability": "view",
      "type": "function"
    },
    {
      "anonymous": false,
      "inputs": [
        {
          "indexed": false,
          "name": "",
          "type": "address"
        }
      ],
      "name": "Test",
      "type": "event"
    },
    {
      "anonymous": false,
      "inputs": [
        {
          "indexed": true,
          "name": "_from",
          "type": "address"
        },
        {
          "indexed": true,
          "name": "_to",
          "type": "address"
        },
        {
          "indexed": false,
          "name": "_tokenId",
          "type": "uint256"
        }
      ],
      "name": "Transfer",
      "type": "event"
    },
    {
      "anonymous": false,
      "inputs": [
        {
          "indexed": true,
          "name": "_owner",
          "type": "address"
        },
        {
          "indexed": true,
          "name": "_approved",
          "type": "address"
        },
        {
          "indexed": false,
          "name": "_tokenId",
          "type": "uint256"
        }
      ],
      "name": "Approval",
      "type": "event"
    },
    {
      "constant": false,
      "inputs": [
        {
          "name": "_to",
          "type": "address"
        },
        {
          "name": "_tokenId",
          "type": "uint256"
        }
      ],
      "name": "transfer",
      "outputs": [],
      "payable": false,
      "stateMutability": "nonpayable",
      "type": "function"
    },
    {
      "constant": false,
      "inputs": [
        {
          "name": "_to",
          "type": "address"
        },
        {
          "name": "_tokenId",
          "type": "uint256"
        }
      ],
      "name": "approve",
      "outputs": [],
      "payable": false,
      "stateMutability": "nonpayable",
      "type": "function"
    },
    {
      "constant": false,
      "inputs": [
        {
          "name": "_tokenId",
          "type": "uint256"
        }
      ],
      "name": "takeOwnership",
      "outputs": [],
      "payable": false,
      "stateMutability": "nonpayable",
      "type": "function"
    },
    {
      "constant": false,
      "inputs": [
        {
          "name": "_owner",
          "type": "address"
        },
        {
          "name": "_tokenId",
          "type": "uint256"
        }
      ],
      "name": "clearApproval",
      "outputs": [],
      "payable": false,
      "stateMutability": "nonpayable",
      "type": "function"
    },
    {
      "constant": false,
      "inputs": [
        {
          "name": "_to",
          "type": "address"
        },
        {
          "name": "_tokenId",
          "type": "uint256"
        }
      ],
      "name": "addToken",
      "outputs": [],
      "payable": false,
      "stateMutability": "nonpayable",
      "type": "function"
    },
    {
      "constant": false,
      "inputs": [
        {
          "name": "_from",
          "type": "address"
        },
        {
          "name": "_tokenId",
          "type": "uint256"
        }
      ],
      "name": "removeToken",
      "outputs": [],
      "payable": false,
      "stateMutability": "nonpayable",
      "type": "function"
    }
  ],
  "bytecode": "0x60606040908152600160a060020a0333166000908152600460205220805460ff19166001179055610fc8806100356000396000f3006060604052600436106101325763ffffffff7c0100000000000000000000000000000000000000000000000000000000600035041663095ea7b3811461013757806313baf1e61461015b57806318160ddd1461017d57806327701247146101a25780632a6dd48f146101bb5780634fc06994146101ed5780635a3f26721461020f5780635e61af8d1461028157806361afd5ac1461032f57806362e8e8ac1461034e5780636352211e146103675780636de530011461037d57806370a082311461039f57806372501976146103be57806374e24367146103f15780637e1c0c09146104075780638e36977a1461041a578063a9059cbb14610430578063af81c5b914610452578063b2e6ceeb14610474578063c4a85bc11461048a578063e149f036146104a9578063e324c664146104cb575b600080fd5b341561014257600080fd5b610159600160a060020a0360043516602435610558565b005b341561016657600080fd5b610159600160a060020a036004351660243561064d565b341561018857600080fd5b6101906107ed565b60405190815260200160405180910390f35b34156101ad57600080fd5b6101596004356024356107f4565b34156101c657600080fd5b6101d1600435610833565b604051600160a060020a03909116815260200160405180910390f35b34156101f857600080fd5b610159600435600160a060020a0360243516610851565b341561021a57600080fd5b61022e600160a060020a03600435166108b6565b60405160208082528190810183818151815260200191508051906020019060200280838360005b8381101561026d578082015183820152602001610255565b505050509050019250505060405180910390f35b341561028c57600080fd5b610297600435610939565b604051600160a060020a038086168252602082018590528216606082015260806040820181815290820184818151815260200191508051906020019080838360005b838110156102f15780820151838201526020016102d9565b50505050905090810190601f16801561031e5780820380516001836020036101000a031916815260200191505b509550505050505060405180910390f35b341561033a57600080fd5b610159600160a060020a03600435166109a0565b341561035957600080fd5b6101596004356024356109eb565b341561037257600080fd5b6101d1600435610a2c565b341561038857600080fd5b610159600160a060020a0360043516602435610a56565b34156103aa57600080fd5b610190600160a060020a0360043516610b15565b34156103c957600080fd5b6103dd600160a060020a0360043516610b30565b604051901515815260200160405180910390f35b34156103fc57600080fd5b610190600435610b45565b341561041257600080fd5b610190610b57565b341561042557600080fd5b610190600435610b5d565b341561043b57600080fd5b610159600160a060020a0360043516602435610b73565b341561045d57600080fd5b610159600160a060020a0360043516602435610baa565b341561047f57600080fd5b610159600435610cae565b341561049557600080fd5b610159600160a060020a0360043516610cd9565b34156104b457600080fd5b610190600160a060020a0360043516602435610d27565b34156104d657600080fd5b6104e1600435610d55565b60405160208082528190810183818151815260200191508051906020019080838360005b8381101561051d578082015183820152602001610505565b50505050905090810190601f16801561054a5780820380516001836020036101000a031916815260200191505b509250505060405180910390f35b60008133600160a060020a031661056e82610a2c565b600160a060020a03161461058157600080fd5b61058a83610a2c565b9150600160a060020a0384811690831614156105a557600080fd5b6105ae83610833565b600160a060020a03161515806105cc5750600160a060020a03841615155b156106475760008381526001602052604090819020600301805473ffffffffffffffffffffffffffffffffffffffff1916600160a060020a0387811691821790925591908416907f8c5be1e5ebec7d5bd14f71427d1e84f3dd0314c0f7b2291e5b200ac8c7c3b9259086905190815260200160405180910390a35b50505050565b600160a060020a0333166000908152600460205260408120548190819060ff16151560011461067b57600080fd5b84600160a060020a031661068e85610a2c565b600160a060020a0316146106a157600080fd5b60008481526003602052604090205492506106cc60016106c087610b15565b9063ffffffff610d7f16565b600160a060020a0386166000908152600260205260409020805491935090839081106106f457fe5b6000918252602080832090910154868352600182526040808420805473ffffffffffffffffffffffffffffffffffffffff19169055600160a060020a038916845260029092529120805491925082918590811061074d57fe5b6000918252602080832090910192909255600160a060020a038716815260029091526040812080548490811061077f57fe5b6000918252602080832090910192909255600160a060020a03871681526002909152604090208054906107b6906000198301610f48565b506000848152600360205260408082208290558282528120849055546107e390600163ffffffff610d7f16565b6000555050505050565b6000545b90565b600160a060020a03331660009081526004602052604090205460ff16151560011461081e57600080fd5b60009182526001602052604090912060020155565b600090815260016020526040902060030154600160a060020a031690565b600160a060020a03331660009081526004602052604090205460ff16151560011461087b57600080fd5b600091825260016020526040909120805473ffffffffffffffffffffffffffffffffffffffff1916600160a060020a03909216919091179055565b6108be610f6c565b6002600083600160a060020a0316600160a060020a0316815260200190815260200160002080548060200260200160405190810160405280929190818152602001828054801561092d57602002820191906000526020600020905b815481526020019060010190808311610919575b50505050509050919050565b600080610944610f6c565b60008481526001602081905260408220805491810154600290910154600160a060020a039092169161097590610d91565b60009788526001602052604090972060030154919790969550600160a060020a039091169350915050565b600160a060020a03331660009081526004602052604090205460ff1615156001146109ca57600080fd5b600160a060020a03166000908152600460205260409020805460ff19169055565b600160a060020a03331660009081526004602052604090205460ff161515600114610a1557600080fd5b600091825260016020819052604090922090910155565b600081815260016020526040812054600160a060020a0316801515610a5057600080fd5b92915050565b600160a060020a03331660009081526004602052604090205460ff161515600114610a8057600080fd5b81600160a060020a0316610a9382610a2c565b600160a060020a031614610aa657600080fd5b600081815260016020526040808220600301805473ffffffffffffffffffffffffffffffffffffffff19169055600160a060020a038416907f8c5be1e5ebec7d5bd14f71427d1e84f3dd0314c0f7b2291e5b200ac8c7c3b9259084905190815260200160405180910390a35050565b600160a060020a031660009081526002602052604090205490565b60046020526000908152604090205460ff1681565b60036020526000908152604090205481565b60005481565b6000908152600160208190526040909120015490565b8033600160a060020a0316610b8782610a2c565b600160a060020a031614610b9a57600080fd5b610ba5338484610e4d565b505050565b60007faa9449f2bca09a7b28319d46fd3f3b58a1bb7d94039fc4b69b7bfe5d8535d52733604051600160a060020a03909116815260200160405180910390a1600082815260016020526040902054600160a060020a031615610c0b57600080fd5b6000828152600160205260409020805473ffffffffffffffffffffffffffffffffffffffff1916600160a060020a038516179055610c4883610b15565b600160a060020a038416600090815260026020526040902080549192509060018101610c748382610f48565b506000918252602080832091909101849055838252600390526040812082905554610ca690600163ffffffff610f1316565b600055505050565b610cb83382610f22565b1515610cc357600080fd5b610cd6610ccf82610a2c565b3383610e4d565b50565b600160a060020a03331660009081526004602052604090205460ff161515600114610d0357600080fd5b600160a060020a03166000908152600460205260409020805460ff19166001179055565b600260205281600052604060002081815481101515610d4257fe5b6000918252602090912001549150829050565b610d5d610f6c565b600082815260016020526040902060020154610d7881610d91565b9392505050565b600082821115610d8b57fe5b50900390565b610d99610f6c565b610da1610f6c565b60006020604051805910610db25750595b818152601f19601f8301168101602001604052905091505b6020811015610e4657838160208110610ddf57fe5b1a7f010000000000000000000000000000000000000000000000000000000000000002828281518110610e0e57fe5b9060200101907effffffffffffffffffffffffffffffffffffffffffffffffffffffffffffff1916908160001a905350600101610dca565b5092915050565b600160a060020a0382161515610e6257600080fd5b610e6b81610a2c565b600160a060020a0383811691161415610e8357600080fd5b82600160a060020a0316610e9682610a2c565b600160a060020a031614610ea957600080fd5b610eb38382610a56565b610ebd838261064d565b610ec78282610baa565b81600160a060020a031683600160a060020a03167fddf252ad1be2c89b69c2b068fc378daa952ba7f163c4a11628f55a4df523b3ef8360405190815260200160405180910390a3505050565b600082820183811015610d7857fe5b600082600160a060020a0316610f3783610833565b600160a060020a0316149392505050565b815481835581811511610ba557600083815260209020610ba5918101908301610f7e565b60206040519081016040526000815290565b6107f191905b80821115610f985760008155600101610f84565b50905600a165627a7a72305820279502ce1225dbee0ff3c1506bc55db5afc17b4184cf1ab36d45256e69e83d890029",
  "source": "pragma solidity ^0.4.18;\n\nimport \"../../node_modules/zeppelin-solidity/contracts/token/ERC721/ERC721.sol\";\nimport \"../../node_modules/zeppelin-solidity/contracts/math/SafeMath.sol\";\nimport \"./StorageModifier.sol\";\n\n/**\n * @title ERC721Token\n * Generic implementation for the required functionality of the ERC721 standard\n */\ncontract ERC721Token is ERC721, StorageModifier {\n    using SafeMath for uint256;\n\n    /**\n    * @dev Guarantees msg.sender is owner of the given token\n    * @param _tokenId uint256 ID of the token to validate its ownership belongs to msg.sender\n    */\n    modifier onlyOwnerOf(uint256 _tokenId) {\n        require(ownerOf(_tokenId) == msg.sender);\n        _;\n    }\n\n    /**\n    * @dev Transfers the ownership of a given token ID to another address\n    * @param _to address to receive the ownership of the given token ID\n    * @param _tokenId uint256 ID of the token to be transferred\n    */\n    function transfer(address _to, uint256 _tokenId) public onlyOwnerOf(_tokenId) {\n        clearApprovalAndTransfer(msg.sender, _to, _tokenId);\n    }\n\n    /**\n    * @dev Approves another address to claim for the ownership of the given token ID\n    * @param _to address to be approved for the given token ID\n    * @param _tokenId uint256 ID of the token to be approved\n    */\n    function approve(address _to, uint256 _tokenId) public onlyOwnerOf(_tokenId) {\n        address owner = ownerOf(_tokenId);\n        require(_to != owner);\n        if (approvedFor(_tokenId) != 0 || _to != 0) {\n            tokens[_tokenId].tokenApproval = _to;\n            Approval(owner, _to, _tokenId);\n        }\n    }\n\n    /**\n    * @dev Claims the ownership of a given token ID\n    * @param _tokenId uint256 ID of the token being claimed by the msg.sender\n    */\n    function takeOwnership(uint256 _tokenId) public {\n        require(isApprovedFor(msg.sender, _tokenId));\n        clearApprovalAndTransfer(ownerOf(_tokenId), msg.sender, _tokenId);\n    }\n\n    /**\n    * @dev Internal function to clear current approval and transfer the ownership of a given token ID\n    * @param _from address which you want to send tokens from\n    * @param _to address which you want to transfer the token to\n    * @param _tokenId uint256 ID of the token to be transferred\n    */\n    function clearApprovalAndTransfer(address _from, address _to, uint256 _tokenId) internal {\n        require(_to != address(0));\n        require(_to != ownerOf(_tokenId));\n        require(ownerOf(_tokenId) == _from);\n\n        clearApproval(_from, _tokenId);\n        removeToken(_from, _tokenId);\n        addToken(_to, _tokenId);\n        Transfer(_from, _to, _tokenId);\n    }\n\n    /**\n    * @dev Internal function to clear current approval of a given token ID\n    * @param _tokenId uint256 ID of the token to be transferred\n    */\n    function clearApproval(address _owner, uint256 _tokenId) platform public {\n        require(ownerOf(_tokenId) == _owner);\n        tokens[_tokenId].tokenApproval = 0;\n        Approval(_owner, 0, _tokenId);\n    }\n\n    event Test(address);\n    /**\n    * @dev Internal function to add a token ID to the list of a given address\n    * @param _to address representing the new owner of the given token ID\n    * @param _tokenId uint256 ID of the token to be added to the tokens list of the given address\n    */\n    function addToken(address _to, uint256 _tokenId) public {\n        Test(msg.sender);\n        require(tokens[_tokenId].tokenOwner == address(0));\n        tokens[_tokenId].tokenOwner = _to;\n        uint256 length = balanceOf(_to);\n        ownedTokens[_to].push(_tokenId);\n        ownedTokensIndex[_tokenId] = length;\n        totalTokens = totalTokens.add(1);\n    }\n\n    /**\n    * @dev Internal function to remove a token ID from the list of a given address\n    * @param _from address representing the previous owner of the given token ID\n    * @param _tokenId uint256 ID of the token to be removed from the tokens list of the given address\n    */\n    function removeToken(address _from, uint256 _tokenId) platform public {\n        require(ownerOf(_tokenId) == _from);\n\n        uint256 tokenIndex = ownedTokensIndex[_tokenId];\n        uint256 lastTokenIndex = balanceOf(_from).sub(1);\n        uint256 lastToken = ownedTokens[_from][lastTokenIndex];\n\n        tokens[_tokenId].tokenOwner = 0;\n        ownedTokens[_from][tokenIndex] = lastToken;\n        ownedTokens[_from][lastTokenIndex] = 0;\n        // Note that this will handle single-element arrays. In that case, both tokenIndex and lastTokenIndex are going to\n        // be zero. Then we can make sure that we will remove _tokenId from the ownedTokens list since we are first swapping\n        // the lastToken to the first position, and then dropping the element placed in the last position of the list\n\n        ownedTokens[_from].length--;\n        ownedTokensIndex[_tokenId] = 0;\n        ownedTokensIndex[lastToken] = tokenIndex;\n        totalTokens = totalTokens.sub(1);\n    }\n\n}",
  "sourcePath": "/home/cyril/Documents/Personal_Projects/Smart_contract_Stars/contracts/ERC721/ERC721Token.sol",
  "compiler": {
    "name": "solc",
    "version": "0.4.19+commit.c4cbbb05.Emscripten.clang"
  },
  "schemaVersion": "2.0.0",
  "updatedAt": "2018-03-22T17:09:12.778Z"
}