{
  "contractName": "Getter",
  "abi": [
    {
      "constant": true,
      "inputs": [],
      "name": "initDwarfPlanetsPrice",
      "outputs": [
        {
          "name": "",
          "type": "uint256"
        }
      ],
      "payable": false,
      "stateMutability": "view",
      "type": "function"
    },
    {
      "constant": true,
      "inputs": [],
      "name": "initPlanetsPrice",
      "outputs": [
        {
          "name": "",
          "type": "uint256"
        }
      ],
      "payable": false,
      "stateMutability": "view",
      "type": "function"
    },
    {
      "constant": true,
      "inputs": [],
      "name": "initExoplanetsPrice",
      "outputs": [
        {
          "name": "",
          "type": "uint256"
        }
      ],
      "payable": false,
      "stateMutability": "view",
      "type": "function"
    },
    {
      "constant": true,
      "inputs": [
        {
          "name": "",
          "type": "uint256"
        }
      ],
      "name": "ownedTokensIndex",
      "outputs": [
        {
          "name": "",
          "type": "uint256"
        }
      ],
      "payable": false,
      "stateMutability": "view",
      "type": "function"
    },
    {
      "constant": true,
      "inputs": [],
      "name": "totalTokens",
      "outputs": [
        {
          "name": "",
          "type": "uint256"
        }
      ],
      "payable": false,
      "stateMutability": "view",
      "type": "function"
    },
    {
      "constant": true,
      "inputs": [],
      "name": "initStarsPrice",
      "outputs": [
        {
          "name": "",
          "type": "uint256"
        }
      ],
      "payable": false,
      "stateMutability": "view",
      "type": "function"
    },
    {
      "constant": true,
      "inputs": [],
      "name": "owner",
      "outputs": [
        {
          "name": "",
          "type": "address"
        }
      ],
      "payable": false,
      "stateMutability": "view",
      "type": "function"
    },
    {
      "constant": true,
      "inputs": [],
      "name": "initSatellitesPrice",
      "outputs": [
        {
          "name": "",
          "type": "uint256"
        }
      ],
      "payable": false,
      "stateMutability": "view",
      "type": "function"
    },
    {
      "constant": true,
      "inputs": [],
      "name": "amount",
      "outputs": [
        {
          "name": "",
          "type": "uint256"
        }
      ],
      "payable": false,
      "stateMutability": "view",
      "type": "function"
    },
    {
      "constant": true,
      "inputs": [
        {
          "name": "",
          "type": "address"
        },
        {
          "name": "",
          "type": "uint256"
        }
      ],
      "name": "ownedTokens",
      "outputs": [
        {
          "name": "",
          "type": "uint256"
        }
      ],
      "payable": false,
      "stateMutability": "view",
      "type": "function"
    },
    {
      "constant": false,
      "inputs": [
        {
          "name": "newOwner",
          "type": "address"
        }
      ],
      "name": "transferOwnership",
      "outputs": [],
      "payable": false,
      "stateMutability": "nonpayable",
      "type": "function"
    },
    {
      "anonymous": false,
      "inputs": [
        {
          "indexed": true,
          "name": "previousOwner",
          "type": "address"
        },
        {
          "indexed": true,
          "name": "newOwner",
          "type": "address"
        }
      ],
      "name": "OwnershipTransferred",
      "type": "event"
    },
    {
      "constant": true,
      "inputs": [],
      "name": "totalSupply",
      "outputs": [
        {
          "name": "",
          "type": "uint256"
        }
      ],
      "payable": false,
      "stateMutability": "view",
      "type": "function"
    },
    {
      "constant": true,
      "inputs": [
        {
          "name": "_owner",
          "type": "address"
        }
      ],
      "name": "balanceOf",
      "outputs": [
        {
          "name": "",
          "type": "uint256"
        }
      ],
      "payable": false,
      "stateMutability": "view",
      "type": "function"
    },
    {
      "constant": true,
      "inputs": [
        {
          "name": "_owner",
          "type": "address"
        }
      ],
      "name": "tokensOf",
      "outputs": [
        {
          "name": "",
          "type": "uint256[]"
        }
      ],
      "payable": false,
      "stateMutability": "view",
      "type": "function"
    },
    {
      "constant": true,
      "inputs": [
        {
          "name": "_tokenId",
          "type": "uint256"
        }
      ],
      "name": "ownerOf",
      "outputs": [
        {
          "name": "",
          "type": "address"
        }
      ],
      "payable": false,
      "stateMutability": "view",
      "type": "function"
    },
    {
      "constant": true,
      "inputs": [
        {
          "name": "_tokenId",
          "type": "uint256"
        }
      ],
      "name": "approvedFor",
      "outputs": [
        {
          "name": "",
          "type": "address"
        }
      ],
      "payable": false,
      "stateMutability": "view",
      "type": "function"
    },
    {
      "constant": true,
      "inputs": [
        {
          "name": "_tokenId",
          "type": "uint256"
        }
      ],
      "name": "tokenPriceOf",
      "outputs": [
        {
          "name": "",
          "type": "uint256"
        }
      ],
      "payable": false,
      "stateMutability": "view",
      "type": "function"
    },
    {
      "constant": true,
      "inputs": [
        {
          "name": "_tokenId",
          "type": "uint256"
        }
      ],
      "name": "tokenNameOf",
      "outputs": [
        {
          "name": "",
          "type": "string"
        }
      ],
      "payable": false,
      "stateMutability": "view",
      "type": "function"
    },
    {
      "constant": true,
      "inputs": [
        {
          "name": "_tokenId",
          "type": "uint256"
        }
      ],
      "name": "tokenDetailsOf",
      "outputs": [
        {
          "name": "",
          "type": "address"
        },
        {
          "name": "",
          "type": "uint256"
        },
        {
          "name": "",
          "type": "string"
        },
        {
          "name": "",
          "type": "address"
        }
      ],
      "payable": false,
      "stateMutability": "view",
      "type": "function"
    }
  ],
  "bytecode": "0x6060604052600a8054600160a060020a03191633600160a060020a03161790556107f48061002e6000396000f3006060604052600436106101065763ffffffff7c0100000000000000000000000000000000000000000000000000000000600035041663110c9612811461010b578063133b489c1461013057806318160ddd146101435780632a6dd48f146101565780635a3f2672146101885780635e61af8d146101fa5780636352211e146102a857806370a08231146102be578063725c7404146102dd57806374e24367146102f05780637e1c0c09146103065780638c9d329a146103195780638da5cb5b1461032c5780638e36977a1461033f578063938a09c114610355578063aa8c217c14610368578063e149f0361461037b578063e324c6641461039d578063f2fde38b1461042a575b600080fd5b341561011657600080fd5b61011e61044b565b60405190815260200160405180910390f35b341561013b57600080fd5b61011e610451565b341561014e57600080fd5b61011e610457565b341561016157600080fd5b61016c60043561045d565b604051600160a060020a03909116815260200160405180910390f35b341561019357600080fd5b6101a7600160a060020a036004351661047b565b60405160208082528190810183818151815260200191508051906020019060200280838360005b838110156101e65780820151838201526020016101ce565b505050509050019250505060405180910390f35b341561020557600080fd5b6102106004356104fe565b604051600160a060020a038086168252602082018590528216606082015260806040820181815290820184818151815260200191508051906020019080838360005b8381101561026a578082015183820152602001610252565b50505050905090810190601f1680156102975780820380516001836020036101000a031916815260200191505b509550505050505060405180910390f35b34156102b357600080fd5b61016c600435610565565b34156102c957600080fd5b61011e600160a060020a036004351661058f565b34156102e857600080fd5b61011e6105aa565b34156102fb57600080fd5b61011e6004356105b0565b341561031157600080fd5b61011e6105c2565b341561032457600080fd5b61011e6105c8565b341561033757600080fd5b61016c6105ce565b341561034a57600080fd5b61011e6004356105dd565b341561036057600080fd5b61011e6105fb565b341561037357600080fd5b61011e610601565b341561038657600080fd5b61011e600160a060020a0360043516602435610607565b34156103a857600080fd5b6103b3600435610635565b60405160208082528190810183818151815260200191508051906020019080838360005b838110156103ef5780820151838201526020016103d7565b50505050905090810190601f16801561041c5780820380516001836020036101000a031916815260200191505b509250505060405180910390f35b341561043557600080fd5b610449600160a060020a036004351661065f565b005b60065481565b60055481565b60005490565b600090815260016020526040902060030154600160a060020a031690565b6104836107b6565b6002600083600160a060020a0316600160a060020a031681526020019081526020016000208054806020026020016040519081016040528092919081815260200182805480156104f257602002820191906000526020600020905b8154815260200190600101908083116104de575b50505050509050919050565b6000806105096107b6565b60008481526001602081905260408220805491810154600290910154600160a060020a039092169161053a906106fa565b60009788526001602052604090972060030154919790969550600160a060020a039091169350915050565b600081815260016020526040812054600160a060020a031680151561058957600080fd5b92915050565b600160a060020a031660009081526002602052604090205490565b60085481565b60036020526000908152604090205481565b60005481565b60045481565b600a54600160a060020a031681565b60008181526001602081905260408220015481811161058957600080fd5b60075481565b60095481565b60026020528160005260406000208181548110151561062257fe5b6000918252602090912001549150829050565b61063d6107b6565b600082815260016020526040902060020154610658816106fa565b9392505050565b600a5433600160a060020a0390811691161461067a57600080fd5b600160a060020a038116151561068f57600080fd5b600a54600160a060020a0380831691167f8be0079c531659141344cd1fd0a4f28419497f9722a3daafe3b4186f6b6457e060405160405180910390a3600a805473ffffffffffffffffffffffffffffffffffffffff1916600160a060020a0392909216919091179055565b6107026107b6565b61070a6107b6565b6000602060405180591061071b5750595b818152601f19601f8301168101602001604052905091505b60208110156107af5783816020811061074857fe5b1a7f01000000000000000000000000000000000000000000000000000000000000000282828151811061077757fe5b9060200101907effffffffffffffffffffffffffffffffffffffffffffffffffffffffffffff1916908160001a905350600101610733565b5092915050565b602060405190810160405260008152905600a165627a7a723058203c64eecb699f858b3c347586b457032576293e73d6157fae9078b75a3213a3f70029",
  "source": "pragma solidity ^0.4.19;\n\nimport \"../node_modules/zeppelin-solidity/contracts/ownership/Ownable.sol\";\nimport \"./Storage.sol\";\nimport \"./ByteString.sol\";\n\ncontract Getter is Storage, ByteString, Ownable {\n    /**\n    * @dev Gets the total amount of tokens stored by the contract\n    * @return uint256 representing the total amount of tokens\n    */\n    function totalSupply() public view returns (uint256) {\n        return totalTokens;\n    }\n\n    /**\n    * @dev Gets the balance of the specified address\n    * @param _owner address to query the balance of\n    * @return uint256 representing the amount owned by the passed address\n    */\n    function balanceOf(address _owner) public view returns (uint256) {\n        return ownedTokens[_owner].length;\n    }\n\n    /**\n    * @dev Gets the list of tokens owned by a given address\n    * @param _owner address to query the tokens of\n    * @return uint256[] representing the list of tokens owned by the passed address\n    */\n    function tokensOf(address _owner) public view returns (uint256[]) {\n        return ownedTokens[_owner];\n    }\n\n    /**\n    * @dev Gets the owner of the specified token ID\n    * @param _tokenId uint256 ID of the token to query the owner of\n    * @return owner address currently marked as the owner of the given token ID\n    */\n    function ownerOf(uint256 _tokenId) public view returns (address) {\n        address owner = tokens[_tokenId].tokenOwner;\n        require(owner != address(0));\n        return owner;\n    }\n\n    /**\n    * @dev Gets the approved address to take ownership of a given token ID\n    * @param _tokenId uint256 ID of the token to query the approval of\n    * @return address currently approved to take ownership of the given token ID\n    */\n    function approvedFor(uint256 _tokenId) public view returns (address) {\n        return tokens[_tokenId].tokenApproval;\n    }\n\n    function tokenPriceOf(uint256 _tokenId) external view returns (uint) {\n        uint price = tokens[_tokenId].tokenPrice;\n        require(price > 0);\n        return price;\n    }\n\n    function tokenNameOf(uint256 _tokenId) external view returns (string) {\n        bytes32 name = tokens[_tokenId].tokenName;\n        return bytes32ToStr(name);\n    }\n\n    function tokenDetailsOf(uint256 _tokenId) external view returns (address, uint, string, address) {\n        return (\n            tokens[_tokenId].tokenOwner, \n            tokens[_tokenId].tokenPrice,\n            bytes32ToStr(tokens[_tokenId].tokenName),\n            tokens[_tokenId].tokenApproval\n            );\n    }\n\n}",
  "sourcePath": "/home/cyril/Documents/Personal_Projects/Smart_contract_Stars/contracts/Getter.sol",
  "compiler": {
    "name": "solc",
    "version": "0.4.19+commit.c4cbbb05.Emscripten.clang"
  },
  "schemaVersion": "2.0.0",
  "updatedAt": "2018-03-21T15:15:10.697Z"
}