{
  "contractName": "HeadInTheStars",
  "abi": [
    {
      "constant": false,
      "inputs": [
        {
          "name": "_to",
          "type": "address"
        },
        {
          "name": "_tokenId",
          "type": "uint256"
        }
      ],
      "name": "approve",
      "outputs": [],
      "payable": false,
      "stateMutability": "nonpayable",
      "type": "function"
    },
    {
      "constant": true,
      "inputs": [],
      "name": "initDwarfPlanetsPrice",
      "outputs": [
        {
          "name": "",
          "type": "uint256"
        }
      ],
      "payable": false,
      "stateMutability": "view",
      "type": "function"
    },
    {
      "constant": true,
      "inputs": [],
      "name": "initPlanetsPrice",
      "outputs": [
        {
          "name": "",
          "type": "uint256"
        }
      ],
      "payable": false,
      "stateMutability": "view",
      "type": "function"
    },
    {
      "constant": true,
      "inputs": [],
      "name": "totalSupply",
      "outputs": [
        {
          "name": "",
          "type": "uint256"
        }
      ],
      "payable": false,
      "stateMutability": "view",
      "type": "function"
    },
    {
      "constant": true,
      "inputs": [
        {
          "name": "_tokenId",
          "type": "uint256"
        }
      ],
      "name": "approvedFor",
      "outputs": [
        {
          "name": "",
          "type": "address"
        }
      ],
      "payable": false,
      "stateMutability": "view",
      "type": "function"
    },
    {
      "constant": true,
      "inputs": [
        {
          "name": "_owner",
          "type": "address"
        }
      ],
      "name": "tokensOf",
      "outputs": [
        {
          "name": "",
          "type": "uint256[]"
        }
      ],
      "payable": false,
      "stateMutability": "view",
      "type": "function"
    },
    {
      "constant": true,
      "inputs": [
        {
          "name": "_tokenId",
          "type": "uint256"
        }
      ],
      "name": "ownerOf",
      "outputs": [
        {
          "name": "",
          "type": "address"
        }
      ],
      "payable": false,
      "stateMutability": "view",
      "type": "function"
    },
    {
      "constant": true,
      "inputs": [
        {
          "name": "_owner",
          "type": "address"
        }
      ],
      "name": "balanceOf",
      "outputs": [
        {
          "name": "",
          "type": "uint256"
        }
      ],
      "payable": false,
      "stateMutability": "view",
      "type": "function"
    },
    {
      "constant": true,
      "inputs": [],
      "name": "initExoplanetsPrice",
      "outputs": [
        {
          "name": "",
          "type": "uint256"
        }
      ],
      "payable": false,
      "stateMutability": "view",
      "type": "function"
    },
    {
      "constant": true,
      "inputs": [],
      "name": "initStarsPrice",
      "outputs": [
        {
          "name": "",
          "type": "uint256"
        }
      ],
      "payable": false,
      "stateMutability": "view",
      "type": "function"
    },
    {
      "constant": true,
      "inputs": [],
      "name": "owner",
      "outputs": [
        {
          "name": "",
          "type": "address"
        }
      ],
      "payable": false,
      "stateMutability": "view",
      "type": "function"
    },
    {
      "constant": true,
      "inputs": [],
      "name": "initSatellitesPrice",
      "outputs": [
        {
          "name": "",
          "type": "uint256"
        }
      ],
      "payable": false,
      "stateMutability": "view",
      "type": "function"
    },
    {
      "constant": false,
      "inputs": [
        {
          "name": "_to",
          "type": "address"
        },
        {
          "name": "_tokenId",
          "type": "uint256"
        }
      ],
      "name": "transfer",
      "outputs": [],
      "payable": false,
      "stateMutability": "nonpayable",
      "type": "function"
    },
    {
      "constant": false,
      "inputs": [
        {
          "name": "_tokenId",
          "type": "uint256"
        }
      ],
      "name": "takeOwnership",
      "outputs": [],
      "payable": false,
      "stateMutability": "nonpayable",
      "type": "function"
    },
    {
      "constant": false,
      "inputs": [
        {
          "name": "newOwner",
          "type": "address"
        }
      ],
      "name": "transferOwnership",
      "outputs": [],
      "payable": false,
      "stateMutability": "nonpayable",
      "type": "function"
    },
    {
      "inputs": [
        {
          "name": "_sun",
          "type": "uint256[]"
        },
        {
          "name": "_initPrice",
          "type": "uint256[]"
        }
      ],
      "payable": false,
      "stateMutability": "nonpayable",
      "type": "constructor"
    },
    {
      "payable": true,
      "stateMutability": "payable",
      "type": "fallback"
    },
    {
      "anonymous": false,
      "inputs": [
        {
          "indexed": true,
          "name": "_from",
          "type": "address"
        },
        {
          "indexed": true,
          "name": "_to",
          "type": "address"
        },
        {
          "indexed": false,
          "name": "_tokenId",
          "type": "uint256"
        }
      ],
      "name": "Transfer",
      "type": "event"
    },
    {
      "anonymous": false,
      "inputs": [
        {
          "indexed": true,
          "name": "_owner",
          "type": "address"
        },
        {
          "indexed": true,
          "name": "_approved",
          "type": "address"
        },
        {
          "indexed": false,
          "name": "_tokenId",
          "type": "uint256"
        }
      ],
      "name": "Approval",
      "type": "event"
    },
    {
      "anonymous": false,
      "inputs": [
        {
          "indexed": true,
          "name": "previousOwner",
          "type": "address"
        },
        {
          "indexed": true,
          "name": "newOwner",
          "type": "address"
        }
      ],
      "name": "OwnershipTransferred",
      "type": "event"
    },
    {
      "constant": false,
      "inputs": [
        {
          "name": "_tokenId",
          "type": "uint256"
        },
        {
          "name": "_tokenType",
          "type": "string"
        },
        {
          "name": "_tokenPrice",
          "type": "uint256"
        }
      ],
      "name": "mint",
      "outputs": [],
      "payable": true,
      "stateMutability": "payable",
      "type": "function"
    },
    {
      "constant": false,
      "inputs": [
        {
          "name": "_tokenId",
          "type": "uint256"
        },
        {
          "name": "_tokenPrice",
          "type": "uint256"
        }
      ],
      "name": "changeTokenPriceByOwner",
      "outputs": [],
      "payable": false,
      "stateMutability": "nonpayable",
      "type": "function"
    },
    {
      "constant": false,
      "inputs": [
        {
          "name": "_tokenId",
          "type": "uint256"
        },
        {
          "name": "_tokenPrice",
          "type": "uint256"
        }
      ],
      "name": "changeTokenPrice",
      "outputs": [],
      "payable": false,
      "stateMutability": "nonpayable",
      "type": "function"
    },
    {
      "constant": false,
      "inputs": [
        {
          "name": "_tokensId",
          "type": "uint256[]"
        },
        {
          "name": "_newTokensPrice",
          "type": "uint256[]"
        }
      ],
      "name": "buyTokens",
      "outputs": [],
      "payable": true,
      "stateMutability": "payable",
      "type": "function"
    },
    {
      "constant": false,
      "inputs": [
        {
          "name": "_tokenId",
          "type": "uint256"
        },
        {
          "name": "_newTokenPrice",
          "type": "uint256"
        }
      ],
      "name": "buyToken",
      "outputs": [],
      "payable": true,
      "stateMutability": "payable",
      "type": "function"
    },
    {
      "constant": true,
      "inputs": [
        {
          "name": "_tokenId",
          "type": "uint256"
        }
      ],
      "name": "tokenPriceOf",
      "outputs": [
        {
          "name": "",
          "type": "uint256"
        }
      ],
      "payable": false,
      "stateMutability": "view",
      "type": "function"
    }
  ],
  "bytecode": "0x606060405234156200001057600080fd5b60405162001581380380620015818339810160405280805182019190602001805160008054600160a060020a03191633600160a060020a0316178155920191829150815181106200005d57fe5b90602001906020020151600755806001815181106200007857fe5b90602001906020020151600855806002815181106200009357fe5b9060200190602002015160095580600381518110620000ae57fe5b90602001906020020151600a5580600481518110620000c957fe5b90602001906020020151600b5581600181518110620000e457fe5b9060200190602002015160066000846000815181106200010057fe5b906020019060200201518152602001908152602001600020819055506200014d33836000815181106200012f57fe5b9060200190602002015164010000000062000c34620001ab82021704565b33600160a060020a031660007fddf252ad1be2c89b69c2b068fc378daa952ba7f163c4a11628f55a4df523b3ef846000815181106200018857fe5b9060200190602002015160405190815260200160405180910390a3505062000303565b600081815260026020526040812054600160a060020a031615620001ce57600080fd5b60008281526002602052604090208054600160a060020a031916600160a060020a0385161790556200020e836401000000006200028181026200079b1704565b600160a060020a0384166000908152600460205260409020805491925090600181016200023c8382620002b3565b5060009182526020808320919091018490558382526005905260409020819055600180546200027991640100000000620011dd6200029c82021704565b600155505050565b600160a060020a031660009081526004602052604090205490565b600082820183811015620002ac57fe5b9392505050565b815481835581811511620002da57600083815260209020620002da918101908301620002df565b505050565b6200030091905b80821115620002fc5760008155600101620002e6565b5090565b90565b61126e80620003136000396000f30060606040526004361061011c5763ffffffff7c0100000000000000000000000000000000000000000000000000000000600035041663057466ea8114610121578063095ea7b3146101315780630dd350a714610153578063110c96121461016c578063133b489c1461019157806318160ddd146101a45780632a6dd48f146101b75780635a3f2672146101e957806362e8e8ac1461025b5780636352211e1461027457806370a082311461028a578063725c7404146102a95780638c9d329a146102bc5780638da5cb5b146102cf5780638e36977a146102e2578063938a09c1146102f8578063942a84671461030b578063a9059cbb1461038f578063acca6b31146103b1578063b2e6ceeb146103fe578063f2fde38b14610414575b600080fd5b61012f600435602435610433565b005b341561013c57600080fd5b61012f600160a060020a0360043516602435610567565b341561015e57600080fd5b61012f600435602435610659565b341561017757600080fd5b61017f610693565b60405190815260200160405180910390f35b341561019c57600080fd5b61017f610699565b34156101af57600080fd5b61017f61069f565b34156101c257600080fd5b6101cd6004356106a6565b604051600160a060020a03909116815260200160405180910390f35b34156101f457600080fd5b610208600160a060020a03600435166106c1565b60405160208082528190810183818151815260200191508051906020019060200280838360005b8381101561024757808201518382015260200161022f565b505050509050019250505060405180910390f35b341561026657600080fd5b61012f600435602435610744565b341561027f57600080fd5b6101cd600435610771565b341561029557600080fd5b61017f600160a060020a036004351661079b565b34156102b457600080fd5b61017f6107b6565b34156102c757600080fd5b61017f6107bc565b34156102da57600080fd5b6101cd6107c2565b34156102ed57600080fd5b61017f6004356107d1565b341561030357600080fd5b61017f6107ec565b61012f6004602481358181019083013580602081810201604051908101604052809392919081815260200183836020028082843782019150505050505091908035906020019082018035906020019080806020026020016040519081016040528093929190818152602001838360200280828437509496506107f295505050505050565b341561039a57600080fd5b61012f600160a060020a036004351660243561085a565b61012f600480359060446024803590810190830135806020601f82018190048102016040519081016040528181529291906020840183838082843750949650509335935061088c92505050565b341561040957600080fd5b61012f600435610950565b341561041f57600080fd5b61012f600160a060020a036004351661097b565b600061043e83610a16565b151561044957600080fd5b61045283610771565b905061045e8184610a2a565b6104688184610abc565b6104723384610c34565b33600160a060020a031681600160a060020a03167fddf252ad1be2c89b69c2b068fc378daa952ba7f163c4a11628f55a4df523b3ef8560405190815260200160405180910390a36000838152600660205260409020829055600160a060020a0381166108fc6104f86104eb34606463ffffffff610cfa16565b349063ffffffff610d1116565b9081150290604051600060405180830381858888f19350505050151561051d57600080fd5b600054600160a060020a03166108fc61053d34606463ffffffff610cfa16565b9081150290604051600060405180830381858888f19350505050151561056257600080fd5b505050565b60008133600160a060020a031661057d82610771565b600160a060020a03161461059057600080fd5b61059983610771565b9150600160a060020a0384811690831614156105b457600080fd5b6105bd836106a6565b600160a060020a03161515806105db5750600160a060020a03841615155b156106535760008381526003602052604090819020805473ffffffffffffffffffffffffffffffffffffffff1916600160a060020a0387811691821790925591908416907f8c5be1e5ebec7d5bd14f71427d1e84f3dd0314c0f7b2291e5b200ac8c7c3b9259086905190815260200160405180910390a35b50505050565b8133600160a060020a031661066d82610771565b600160a060020a03161461068057600080fd5b5060009182526006602052604090912055565b60095481565b60085481565b6001545b90565b600090815260036020526040902054600160a060020a031690565b6106c96111f3565b6004600083600160a060020a0316600160a060020a0316815260200190815260200160002080548060200260200160405190810160405280929190818152602001828054801561073857602002820191906000526020600020905b815481526020019060010190808311610724575b50505050509050919050565b60005433600160a060020a0390811691161461075f57600080fd5b60009182526006602052604090912055565b600081815260026020526040812054600160a060020a031680151561079557600080fd5b92915050565b600160a060020a031660009081526004602052604090205490565b600b5481565b60075481565b600054600160a060020a031681565b60008181526006602052604081205481811161079557600080fd5b600a5481565b600060058351111561080357600080fd5b815183511461081157600080fd5b5060005b82518110156105625761085283828151811061082d57fe5b9060200190602002015183838151811061084357fe5b90602001906020020151610433565b600101610815565b8033600160a060020a031661086e82610771565b600160a060020a03161461088157600080fd5b610562338484610d23565b6000341161089957600080fd5b6108a38383610de9565b15156108ae57600080fd5b33600160a060020a031615156108c357600080fd5b6108cd3384610c34565b33600160a060020a031660007fddf252ad1be2c89b69c2b068fc378daa952ba7f163c4a11628f55a4df523b3ef8560405190815260200160405180910390a36000838152600660205260408082208390559054600160a060020a0316903480156108fc029151600060405180830381858888f19350505050151561056257600080fd5b61095a33826111b7565b151561096557600080fd5b61097861097182610771565b3383610d23565b50565b60005433600160a060020a0390811691161461099657600080fd5b600160a060020a03811615156109ab57600080fd5b600054600160a060020a0380831691167f8be0079c531659141344cd1fd0a4f28419497f9722a3daafe3b4186f6b6457e060405160405180910390a36000805473ffffffffffffffffffffffffffffffffffffffff1916600160a060020a0392909216919091179055565b600090815260066020526040902054341490565b81600160a060020a0316610a3d82610771565b600160a060020a031614610a5057600080fd5b600081815260036020526040808220805473ffffffffffffffffffffffffffffffffffffffff19169055600160a060020a038416907f8c5be1e5ebec7d5bd14f71427d1e84f3dd0314c0f7b2291e5b200ac8c7c3b9259084905190815260200160405180910390a35050565b600080600084600160a060020a0316610ad485610771565b600160a060020a031614610ae757600080fd5b6000848152600560205260409020549250610b126001610b068761079b565b9063ffffffff610d1116565b600160a060020a038616600090815260046020526040902080549193509083908110610b3a57fe5b6000918252602080832090910154868352600282526040808420805473ffffffffffffffffffffffffffffffffffffffff19169055600160a060020a0389168452600490925291208054919250829185908110610b9357fe5b6000918252602080832090910192909255600160a060020a0387168152600490915260408120805484908110610bc557fe5b6000918252602080832090910192909255600160a060020a0387168152600490915260409020805490610bfc906000198301611205565b50600084815260056020526040808220829055828252902083905560018054610c2a9163ffffffff610d1116565b6001555050505050565b600081815260026020526040812054600160a060020a031615610c5657600080fd5b6000828152600260205260409020805473ffffffffffffffffffffffffffffffffffffffff1916600160a060020a038516179055610c938361079b565b600160a060020a038416600090815260046020526040902080549192509060018101610cbf8382611205565b506000918252602080832091909101849055838252600590526040902081905560018054610cf29163ffffffff6111dd16565b600155505050565b6000808284811515610d0857fe5b04949350505050565b600082821115610d1d57fe5b50900390565b600160a060020a0382161515610d3857600080fd5b610d4181610771565b600160a060020a0383811691161415610d5957600080fd5b82600160a060020a0316610d6c82610771565b600160a060020a031614610d7f57600080fd5b610d898382610a2a565b610d938382610abc565b610d9d8282610c34565b81600160a060020a031683600160a060020a03167fddf252ad1be2c89b69c2b068fc378daa952ba7f163c4a11628f55a4df523b3ef8360405190815260200160405180910390a3505050565b60006040517f73746172000000000000000000000000000000000000000000000000000000008152600401604051908190039020826040518082805190602001908083835b60208310610e4d5780518252601f199092019160209182019101610e2e565b6001836020036101000a03801982511681845116179092525050509190910192506040915050519081900390201415610eaa5760018310158015610e9457506201820a8311155b1515610e9f57600080fd5b506007543414610795565b6040517f65786f706c616e657400000000000000000000000000000000000000000000008152600901604051908190039020826040518082805190602001908083835b60208310610f0c5780518252601f199092019160209182019101610eed565b6001836020036101000a03801982511681845116179092525050509190910192506040915050519081900390201415610f6b57620182258310158015610f55575062018fdb8311155b1515610f6057600080fd5b50600b543414610795565b6040517f736174656c6c69746500000000000000000000000000000000000000000000008152600901604051908190039020826040518082805190602001908083835b60208310610fcd5780518252601f199092019160209182019101610fae565b6001836020036101000a0380198251168184511617909252505050919091019250604091505051908190039020141561102c576201821e83101580156110165750620182248311155b151561102157600080fd5b50600a543414610795565b6040517f706c616e657400000000000000000000000000000000000000000000000000008152600601604051908190039020826040518082805190602001908083835b6020831061108e5780518252601f19909201916020918201910161106f565b6001836020036101000a038019825116818451161790925250505091909101925060409150505190819003902014156110ed576201820b83101580156110d757506201821d8311155b15156110e257600080fd5b506008543414610795565b6040517f6477617266506c616e65740000000000000000000000000000000000000000008152600b01604051908190039020826040518082805190602001908083835b6020831061114f5780518252601f199092019160209182019101611130565b6001836020036101000a038019825116818451161790925250505091909101925060409150505190819003902014156111ae5762018fdc8310158015611198575062018fe68311155b15156111a357600080fd5b506009543414610795565b50600092915050565b600082600160a060020a03166111cc836106a6565b600160a060020a0316149392505050565b6000828201838110156111ec57fe5b9392505050565b60206040519081016040526000815290565b815481835581811511610562576000838152602090206105629181019083016106a391905b8082111561123e576000815560010161122a565b50905600a165627a7a72305820f3d78b265502c53b0ec6427586e2cf20f1f97fb8dd4d24c475ec9b97347980d50029",
  "source": "pragma solidity ^0.4.17;\n\nimport '../node_modules/zeppelin-solidity/contracts/ownership/Ownable.sol';\nimport \"./ERC721Token.sol\";\n\ncontract HeadInTheStars is Ownable, ERC721Token {\n  \n  // Mapping from tokenId to TokenPrice\n  mapping (uint256 => uint256) private tokenPrice;\n\n  uint public initStarsPrice;\n  uint public initPlanetsPrice;\n  uint public initDwarfPlanetsPrice;\n  uint public initSatellitesPrice;\n  uint public initExoplanetsPrice;\n\n  function HeadInTheStars(uint[] _sun, uint[] _initPrice) public {\n    initStarsPrice = _initPrice[0];\n    initPlanetsPrice = _initPrice[1];\n    initDwarfPlanetsPrice = _initPrice[2];\n    initSatellitesPrice = _initPrice[3];\n    initExoplanetsPrice = _initPrice[4];\n\n    tokenPrice[_sun[0]] = _sun[1];\n\n    addToken(msg.sender, _sun[0]);\n    Transfer(0x0, msg.sender, _sun[0]);\n  }\n\n  function () public payable {\n    revert();\n  }\n\n  /**\n  * @dev Mint token function\n  * @param _tokenId uint256 ID of the token to be minted by the msg.sender\n  * @param _tokenPrice uint256 Price of the token for future sale in WEI to be minted by the msg.sender\n  * @param _tokenType string eg. star, planet etc.\n  */\n  function mint(uint256 _tokenId, string _tokenType, uint256 _tokenPrice) payable public {\n    require(msg.value > 0);\n    require(isTheInitialPriceCorrect(_tokenId,  _tokenType));\n    require(msg.sender != address(0));\n\n    addToken(msg.sender, _tokenId);\n    Transfer(0x0, msg.sender, _tokenId);\n\n    tokenPrice[_tokenId] = _tokenPrice;\n    owner.transfer(msg.value);\n  }\n\n  function changeTokenPriceByOwner(uint256 _tokenId, uint256 _tokenPrice) public onlyOwnerOf(_tokenId) {\n      tokenPrice[_tokenId] = _tokenPrice;\n  }\n\n  function changeTokenPrice(uint256 _tokenId, uint256 _tokenPrice) public onlyOwner {\n      tokenPrice[_tokenId] = _tokenPrice;\n  }\n  \n  function isTheInitialPriceCorrect(uint256 _tokenId, string _tokenType) internal view returns (bool) {\n\n    if (keccak256(_tokenType) == keccak256(\"star\")) {\n      require(_tokenId >= 1 && _tokenId <= 98826);\n      return initStarsPrice == msg.value;\n\n    } else if (keccak256(_tokenType) == keccak256(\"exoplanet\")) {\n      require(_tokenId >= 98853 && _tokenId <= 102363);\n      return initExoplanetsPrice == msg.value;\n\n    } else if (keccak256(_tokenType) == keccak256(\"satellite\")) {\n      require(_tokenId >= 98846 && _tokenId <= 98852);\n      return initSatellitesPrice == msg.value;\n\n    } else if (keccak256(_tokenType) == keccak256(\"planet\")) {\n      require(_tokenId >= 98827 && _tokenId <= 98845);\n      return initPlanetsPrice == msg.value;\n\n    } else if (keccak256(_tokenType) == keccak256(\"dwarfPlanet\")) {\n      require(_tokenId >= 102364 && _tokenId <= 102374);\n      return initDwarfPlanetsPrice == msg.value;\n\n    }\n\n    return false;\n\n  }\n  \n  function buyTokens(uint[] _tokensId, uint[] _newTokensPrice) public payable {\n    require(_tokensId.length <= 5);\n    require(_tokensId.length == _newTokensPrice.length);\n\n    for ( uint i = 0; i < _tokensId.length; i++ ) {\n      buyToken(_tokensId[i], _newTokensPrice[i]);\n    }\n  }\n\n  function buyToken(uint256 _tokenId, uint256 _newTokenPrice) public payable {\n    require(isTheCorrectPrice(_tokenId));\n\n    address exOwner = ownerOf(_tokenId);\n\n    clearApproval(exOwner, _tokenId);\n    removeToken(exOwner, _tokenId);\n    addToken(msg.sender, _tokenId);\n    Transfer(exOwner, msg.sender, _tokenId);\n\n    tokenPrice[_tokenId] = _newTokenPrice;\n\n    //substract Trading fees is 1%\n    exOwner.transfer(msg.value.sub((msg.value).div(100)));\n\n    //send trading fee to contract Owner\n    owner.transfer((msg.value).div(100));\n  }\n  \n  function isTheCorrectPrice(uint256 _tokenId) internal view returns(bool) {\n    return tokenPrice[_tokenId] == msg.value;\n  }\n\n  function tokenPriceOf(uint256 _tokenId) public view returns (uint) {\n    uint price = tokenPrice[_tokenId];\n    require(price > 0);\n    return price;\n  }\n\n}",
  "sourcePath": "/home/cyril/Documents/Personal_Projects/Smart_contract_Stars/contracts/HeadInTheStars.sol",
  "compiler": {
    "name": "solc",
    "version": "0.4.19+commit.c4cbbb05.Emscripten.clang"
  },
  "schemaVersion": "2.0.0",
  "updatedAt": "2018-03-19T14:22:27.906Z"
}