{
  "contractName": "Mintable",
  "abi": [
    {
      "constant": false,
      "inputs": [
        {
          "name": "_to",
          "type": "address"
        },
        {
          "name": "_tokenId",
          "type": "uint256"
        }
      ],
      "name": "approve",
      "outputs": [],
      "payable": false,
      "stateMutability": "nonpayable",
      "type": "function"
    },
    {
      "constant": true,
      "inputs": [],
      "name": "initDwarfPlanetsPrice",
      "outputs": [
        {
          "name": "",
          "type": "uint256"
        }
      ],
      "payable": false,
      "stateMutability": "view",
      "type": "function"
    },
    {
      "constant": true,
      "inputs": [],
      "name": "initPlanetsPrice",
      "outputs": [
        {
          "name": "",
          "type": "uint256"
        }
      ],
      "payable": false,
      "stateMutability": "view",
      "type": "function"
    },
    {
      "constant": true,
      "inputs": [],
      "name": "totalSupply",
      "outputs": [
        {
          "name": "",
          "type": "uint256"
        }
      ],
      "payable": false,
      "stateMutability": "view",
      "type": "function"
    },
    {
      "constant": true,
      "inputs": [
        {
          "name": "_tokenId",
          "type": "uint256"
        }
      ],
      "name": "approvedFor",
      "outputs": [
        {
          "name": "",
          "type": "address"
        }
      ],
      "payable": false,
      "stateMutability": "view",
      "type": "function"
    },
    {
      "constant": true,
      "inputs": [
        {
          "name": "_owner",
          "type": "address"
        }
      ],
      "name": "tokensOf",
      "outputs": [
        {
          "name": "",
          "type": "uint256[]"
        }
      ],
      "payable": false,
      "stateMutability": "view",
      "type": "function"
    },
    {
      "constant": true,
      "inputs": [
        {
          "name": "_tokenId",
          "type": "uint256"
        }
      ],
      "name": "tokenDetailsOf",
      "outputs": [
        {
          "name": "",
          "type": "address"
        },
        {
          "name": "",
          "type": "uint256"
        },
        {
          "name": "",
          "type": "string"
        },
        {
          "name": "",
          "type": "address"
        }
      ],
      "payable": false,
      "stateMutability": "view",
      "type": "function"
    },
    {
      "constant": true,
      "inputs": [
        {
          "name": "_tokenId",
          "type": "uint256"
        }
      ],
      "name": "ownerOf",
      "outputs": [
        {
          "name": "",
          "type": "address"
        }
      ],
      "payable": false,
      "stateMutability": "view",
      "type": "function"
    },
    {
      "constant": true,
      "inputs": [
        {
          "name": "_owner",
          "type": "address"
        }
      ],
      "name": "balanceOf",
      "outputs": [
        {
          "name": "",
          "type": "uint256"
        }
      ],
      "payable": false,
      "stateMutability": "view",
      "type": "function"
    },
    {
      "constant": true,
      "inputs": [],
      "name": "initExoplanetsPrice",
      "outputs": [
        {
          "name": "",
          "type": "uint256"
        }
      ],
      "payable": false,
      "stateMutability": "view",
      "type": "function"
    },
    {
      "constant": true,
      "inputs": [
        {
          "name": "",
          "type": "uint256"
        }
      ],
      "name": "ownedTokensIndex",
      "outputs": [
        {
          "name": "",
          "type": "uint256"
        }
      ],
      "payable": false,
      "stateMutability": "view",
      "type": "function"
    },
    {
      "constant": true,
      "inputs": [],
      "name": "totalTokens",
      "outputs": [
        {
          "name": "",
          "type": "uint256"
        }
      ],
      "payable": false,
      "stateMutability": "view",
      "type": "function"
    },
    {
      "constant": true,
      "inputs": [],
      "name": "initStarsPrice",
      "outputs": [
        {
          "name": "",
          "type": "uint256"
        }
      ],
      "payable": false,
      "stateMutability": "view",
      "type": "function"
    },
    {
      "constant": true,
      "inputs": [],
      "name": "owner",
      "outputs": [
        {
          "name": "",
          "type": "address"
        }
      ],
      "payable": false,
      "stateMutability": "view",
      "type": "function"
    },
    {
      "constant": true,
      "inputs": [
        {
          "name": "_tokenId",
          "type": "uint256"
        }
      ],
      "name": "tokenPriceOf",
      "outputs": [
        {
          "name": "",
          "type": "uint256"
        }
      ],
      "payable": false,
      "stateMutability": "view",
      "type": "function"
    },
    {
      "constant": true,
      "inputs": [],
      "name": "initSatellitesPrice",
      "outputs": [
        {
          "name": "",
          "type": "uint256"
        }
      ],
      "payable": false,
      "stateMutability": "view",
      "type": "function"
    },
    {
      "constant": false,
      "inputs": [
        {
          "name": "_to",
          "type": "address"
        },
        {
          "name": "_tokenId",
          "type": "uint256"
        }
      ],
      "name": "transfer",
      "outputs": [],
      "payable": false,
      "stateMutability": "nonpayable",
      "type": "function"
    },
    {
      "constant": true,
      "inputs": [],
      "name": "amount",
      "outputs": [
        {
          "name": "",
          "type": "uint256"
        }
      ],
      "payable": false,
      "stateMutability": "view",
      "type": "function"
    },
    {
      "constant": false,
      "inputs": [
        {
          "name": "_tokenId",
          "type": "uint256"
        }
      ],
      "name": "takeOwnership",
      "outputs": [],
      "payable": false,
      "stateMutability": "nonpayable",
      "type": "function"
    },
    {
      "constant": true,
      "inputs": [
        {
          "name": "",
          "type": "address"
        },
        {
          "name": "",
          "type": "uint256"
        }
      ],
      "name": "ownedTokens",
      "outputs": [
        {
          "name": "",
          "type": "uint256"
        }
      ],
      "payable": false,
      "stateMutability": "view",
      "type": "function"
    },
    {
      "constant": true,
      "inputs": [
        {
          "name": "_tokenId",
          "type": "uint256"
        }
      ],
      "name": "tokenNameOf",
      "outputs": [
        {
          "name": "",
          "type": "string"
        }
      ],
      "payable": false,
      "stateMutability": "view",
      "type": "function"
    },
    {
      "constant": false,
      "inputs": [
        {
          "name": "newOwner",
          "type": "address"
        }
      ],
      "name": "transferOwnership",
      "outputs": [],
      "payable": false,
      "stateMutability": "nonpayable",
      "type": "function"
    },
    {
      "inputs": [
        {
          "name": "_sun",
          "type": "uint256[]"
        },
        {
          "name": "_tokenName",
          "type": "bytes32"
        },
        {
          "name": "_initPrice",
          "type": "uint256[]"
        }
      ],
      "payable": false,
      "stateMutability": "nonpayable",
      "type": "constructor"
    },
    {
      "payable": true,
      "stateMutability": "payable",
      "type": "fallback"
    },
    {
      "anonymous": false,
      "inputs": [
        {
          "indexed": true,
          "name": "previousOwner",
          "type": "address"
        },
        {
          "indexed": true,
          "name": "newOwner",
          "type": "address"
        }
      ],
      "name": "OwnershipTransferred",
      "type": "event"
    },
    {
      "anonymous": false,
      "inputs": [
        {
          "indexed": true,
          "name": "_from",
          "type": "address"
        },
        {
          "indexed": true,
          "name": "_to",
          "type": "address"
        },
        {
          "indexed": false,
          "name": "_tokenId",
          "type": "uint256"
        }
      ],
      "name": "Transfer",
      "type": "event"
    },
    {
      "anonymous": false,
      "inputs": [
        {
          "indexed": true,
          "name": "_owner",
          "type": "address"
        },
        {
          "indexed": true,
          "name": "_approved",
          "type": "address"
        },
        {
          "indexed": false,
          "name": "_tokenId",
          "type": "uint256"
        }
      ],
      "name": "Approval",
      "type": "event"
    },
    {
      "constant": false,
      "inputs": [
        {
          "name": "_tokensId",
          "type": "uint256[]"
        },
        {
          "name": "_tokensType",
          "type": "bytes32[]"
        },
        {
          "name": "_tokensPrice",
          "type": "uint256[]"
        },
        {
          "name": "_tokensName",
          "type": "bytes32[]"
        }
      ],
      "name": "mintTokens",
      "outputs": [],
      "payable": true,
      "stateMutability": "payable",
      "type": "function"
    },
    {
      "constant": false,
      "inputs": [
        {
          "name": "_tokenId",
          "type": "uint256"
        },
        {
          "name": "_tokenPrice",
          "type": "uint256"
        }
      ],
      "name": "changeTokenPriceByOwner",
      "outputs": [],
      "payable": false,
      "stateMutability": "nonpayable",
      "type": "function"
    },
    {
      "constant": false,
      "inputs": [
        {
          "name": "_tokenId",
          "type": "uint256"
        },
        {
          "name": "_tokenName",
          "type": "bytes32"
        }
      ],
      "name": "changeTokenName",
      "outputs": [],
      "payable": false,
      "stateMutability": "nonpayable",
      "type": "function"
    }
  ],
  "bytecode": "0x606060405234156200001057600080fd5b604051620016f8380380620016f88339810160405280805182019190602001805191906020018051600a8054600160a060020a03191633600160a060020a0316179055919091019050806000815181106200006757fe5b90602001906020020151600455806001815181106200008257fe5b90602001906020020151600555806002815181106200009d57fe5b9060200190602002015160065580600381518110620000b857fe5b9060200190602002015160075580600481518110620000d357fe5b9060200190602002015160085582600181518110620000ee57fe5b9060200190602002015160016000856000815181106200010a57fe5b906020019060200201518152602001908152602001600020600101819055508160016000856000815181106200013c57fe5b90602001906020020151815260200190815260200160002060020181600019169055506200019033846000815181106200017257fe5b9060200190602002015164010000000062000e6b620001ef82021704565b33600160a060020a031660007fddf252ad1be2c89b69c2b068fc378daa952ba7f163c4a11628f55a4df523b3ef85600081518110620001cb57fe5b9060200190602002015160405190815260200160405180910390a350505062000346565b600081815260016020526040812054600160a060020a0316156200021257600080fd5b60008281526001602052604090208054600160a060020a031916600160a060020a0385161790556200025283640100000000620002c4810262000a0b1704565b600160a060020a038416600090815260026020526040902080549192509060018101620002808382620002f6565b506000918252602080832091909101849055838252600390526040812082905554620002bc9060016401000000006200110c620002df82021704565b600055505050565b600160a060020a031660009081526002602052604090205490565b600082820183811015620002ef57fe5b9392505050565b8154818355818115116200031d576000838152602090206200031d91810190830162000322565b505050565b6200034391905b808211156200033f576000815560010162000329565b5090565b90565b6113a280620003566000396000f3006060604052600436106101485763ffffffff7c0100000000000000000000000000000000000000000000000000000000600035041663095ea7b3811461014d5780630dd350a714610171578063110c96121461018a578063133b489c146101af57806318160ddd146101c257806327701247146101d55780632a6dd48f146101ee5780634ce7ac82146102205780635a3f2672146102575780635e61af8d146102c95780636352211e1461037757806370a082311461038d578063725c7404146103ac57806374e24367146103bf5780637e1c0c09146103d55780638c9d329a146103e85780638da5cb5b146103fb5780638e36977a1461040e578063938a09c114610424578063a9059cbb14610437578063aa8c217c14610459578063b2e6ceeb1461046c578063e149f03614610482578063e324c664146104a4578063f2fde38b14610531575b600080fd5b341561015857600080fd5b61016f600160a060020a0360043516602435610550565b005b341561017c57600080fd5b61016f600435602435610645565b341561019557600080fd5b61019d610684565b60405190815260200160405180910390f35b34156101ba57600080fd5b61019d61068a565b34156101cd57600080fd5b61019d610690565b34156101e057600080fd5b61016f600435602435610697565b34156101f957600080fd5b6102046004356106d4565b604051600160a060020a03909116815260200160405180910390f35b61016f60246004803582810192908201359181358083019290820135916044358083019290820135916064359182019101356106f2565b341561026257600080fd5b610276600160a060020a03600435166108f3565b60405160208082528190810183818151815260200191508051906020019060200280838360005b838110156102b557808201518382015260200161029d565b505050509050019250505060405180910390f35b34156102d457600080fd5b6102df600435610976565b604051600160a060020a038086168252602082018590528216606082015260806040820181815290820184818151815260200191508051906020019080838360005b83811015610339578082015183820152602001610321565b50505050905090810190601f1680156103665780820380516001836020036101000a031916815260200191505b509550505050505060405180910390f35b341561038257600080fd5b6102046004356109dd565b341561039857600080fd5b61019d600160a060020a0360043516610a0b565b34156103b757600080fd5b61019d610a26565b34156103ca57600080fd5b61019d600435610a2c565b34156103e057600080fd5b61019d610a3e565b34156103f357600080fd5b61019d610a44565b341561040657600080fd5b610204610a4a565b341561041957600080fd5b61019d600435610a59565b341561042f57600080fd5b61019d610a77565b341561044257600080fd5b61016f600160a060020a0360043516602435610a7d565b341561046457600080fd5b61019d610ab4565b341561047757600080fd5b61016f600435610aba565b341561048d57600080fd5b61019d600160a060020a0360043516602435610ae5565b34156104af57600080fd5b6104ba600435610b13565b60405160208082528190810183818151815260200191508051906020019080838360005b838110156104f65780820151838201526020016104de565b50505050905090810190601f1680156105235780820380516001836020036101000a031916815260200191505b509250505060405180910390f35b341561053c57600080fd5b61016f600160a060020a0360043516610b3d565b60008133600160a060020a0316610566826109dd565b600160a060020a03161461057957600080fd5b610582836109dd565b9150600160a060020a03848116908316141561059d57600080fd5b6105a6836106d4565b600160a060020a03161515806105c45750600160a060020a03841615155b1561063f5760008381526001602052604090819020600301805473ffffffffffffffffffffffffffffffffffffffff1916600160a060020a0387811691821790925591908416907f8c5be1e5ebec7d5bd14f71427d1e84f3dd0314c0f7b2291e5b200ac8c7c3b9259086905190815260200160405180910390a35b50505050565b8133600160a060020a0316610659826109dd565b600160a060020a03161461066c57600080fd5b50600091825260016020819052604090922090910155565b60065481565b60055481565b6000545b90565b8133600160a060020a03166106ab826109dd565b600160a060020a0316146106be57600080fd5b5060009182526001602052604090912060020155565b600090815260016020526040902060030154600160a060020a031690565b60003481901161070157600080fd5b33600160a060020a0316151561071657600080fd5b6000881161072357600080fd5b600588111561073157600080fd5b87861461073d57600080fd5b87841461074957600080fd5b87821461075557600080fd5b503460095560005b878110156108a25761079989898381811061077457fe5b90506020020135888884818110151561078957fe5b9050602002013560001916610bd8565b15156107a457600080fd5b6107c0338a8a848181106107b457fe5b90506020020135610e6b565b600160a060020a03331660007fddf252ad1be2c89b69c2b068fc378daa952ba7f163c4a11628f55a4df523b3ef8b8b858181106107f957fe5b9050602002013560405190815260200160405180910390a382828281811061081d57fe5b60200291909101359050600160008b8b8581811061083757fe5b602090810292909201358352508101919091526040016000206002015584848281811061086057fe5b90506020020135600160008b8b85818110151561087957fe5b90506020020135815260200190815260200160002060010181905550808060010191505061075d565b600954156108af57600080fd5b600a54600160a060020a039081169030163180156108fc0290604051600060405180830381858888f1935050505015156108e857600080fd5b505050505050505050565b6108fb611327565b6002600083600160a060020a0316600160a060020a0316815260200190815260200160002080548060200260200160405190810160405280929190818152602001828054801561096a57602002820191906000526020600020905b815481526020019060010190808311610956575b50505050509050919050565b600080610981611327565b60008481526001602081905260408220805491810154600290910154600160a060020a03909216916109b290610f30565b60009788526001602052604090972060030154919790969550600160a060020a039091169350915050565b600081815260016020526040812054600160a060020a0316801515610a0157600080fd5b8091505b50919050565b600160a060020a031660009081526002602052604090205490565b60085481565b60036020526000908152604090205481565b60005481565b60045481565b600a54600160a060020a031681565b600081815260016020819052604082200154818111610a0157600080fd5b60075481565b8033600160a060020a0316610a91826109dd565b600160a060020a031614610aa457600080fd5b610aaf338484610fe5565b505050565b60095481565b610ac433826110ab565b1515610acf57600080fd5b610ae2610adb826109dd565b3383610fe5565b50565b600260205281600052604060002081815481101515610b0057fe5b6000918252602090912001549150829050565b610b1b611327565b600082815260016020526040902060020154610b3681610f30565b9392505050565b600a5433600160a060020a03908116911614610b5857600080fd5b600160a060020a0381161515610b6d57600080fd5b600a54600160a060020a0380831691167f8be0079c531659141344cd1fd0a4f28419497f9722a3daafe3b4186f6b6457e060405160405180910390a3600a805473ffffffffffffffffffffffffffffffffffffffff1916600160a060020a0392909216919091179055565b600080610c1760408051908101604052600481527f737461720000000000000000000000000000000000000000000000000000000060208201526110d1565b831415610c635760018410158015610c3257506201820a8411155b1515610c3d57600080fd5b506009546004548181111591610c589163ffffffff6110fa16565b600955905080610e64565b610c9f60408051908101604052600981527f65786f706c616e6574000000000000000000000000000000000000000000000060208201526110d1565b831415610ce257620182258410158015610cbc575062018fdb8411155b1515610cc757600080fd5b506009546008548181111591610c589163ffffffff6110fa16565b610d1e60408051908101604052600981527f736174656c6c697465000000000000000000000000000000000000000000000060208201526110d1565b831415610d61576201821e8410158015610d3b5750620182248411155b1515610d4657600080fd5b506009546007548181111591610c589163ffffffff6110fa16565b610d9d60408051908101604052600681527f706c616e6574000000000000000000000000000000000000000000000000000060208201526110d1565b831415610de0576201820b8410158015610dba57506201821d8411155b1515610dc557600080fd5b506009546005548181111591610c589163ffffffff6110fa16565b610e1c60408051908101604052600b81527f6477617266506c616e657400000000000000000000000000000000000000000060208201526110d1565b831415610e5f5762018fdc8410158015610e39575062018fe68411155b1515610e4457600080fd5b506009546006548181111591610c589163ffffffff6110fa16565b600091505b5092915050565b600081815260016020526040812054600160a060020a031615610e8d57600080fd5b6000828152600160205260409020805473ffffffffffffffffffffffffffffffffffffffff1916600160a060020a038516179055610eca83610a0b565b600160a060020a038416600090815260026020526040902080549192509060018101610ef68382611339565b506000918252602080832091909101849055838252600390526040812082905554610f2890600163ffffffff61110c16565b600055505050565b610f38611327565b610f40611327565b60006020604051805910610f515750595b818152601f19601f8301168101602001604052905091505b6020811015610e6457838160208110610f7e57fe5b1a7f010000000000000000000000000000000000000000000000000000000000000002828281518110610fad57fe5b9060200101907effffffffffffffffffffffffffffffffffffffffffffffffffffffffffffff1916908160001a905350600101610f69565b600160a060020a0382161515610ffa57600080fd5b611003816109dd565b600160a060020a038381169116141561101b57600080fd5b82600160a060020a031661102e826109dd565b600160a060020a03161461104157600080fd5b61104b838261111b565b61105583826111b0565b61105f8282610e6b565b81600160a060020a031683600160a060020a03167fddf252ad1be2c89b69c2b068fc378daa952ba7f163c4a11628f55a4df523b3ef8360405190815260200160405180910390a3505050565b600082600160a060020a03166110c0836106d4565b600160a060020a0316149392505050565b60006110db611327565b5081805115156110ee5760009150610a05565b60208301519392505050565b60008282111561110657fe5b50900390565b600082820183811015610b3657fe5b81600160a060020a031661112e826109dd565b600160a060020a03161461114157600080fd5b600081815260016020526040808220600301805473ffffffffffffffffffffffffffffffffffffffff19169055600160a060020a038416907f8c5be1e5ebec7d5bd14f71427d1e84f3dd0314c0f7b2291e5b200ac8c7c3b9259084905190815260200160405180910390a35050565b600080600084600160a060020a03166111c8856109dd565b600160a060020a0316146111db57600080fd5b600084815260036020526040902054925061120660016111fa87610a0b565b9063ffffffff6110fa16565b600160a060020a03861660009081526002602052604090208054919350908390811061122e57fe5b6000918252602080832090910154868352600182526040808420805473ffffffffffffffffffffffffffffffffffffffff19169055600160a060020a038916845260029092529120805491925082918590811061128757fe5b6000918252602080832090910192909255600160a060020a03871681526002909152604081208054849081106112b957fe5b6000918252602080832090910192909255600160a060020a03871681526002909152604090208054906112f0906000198301611339565b5060008481526003602052604080822082905582825281208490555461131d90600163ffffffff6110fa16565b6000555050505050565b60206040519081016040526000815290565b815481835581811511610aaf57600083815260209020610aaf91810190830161069491905b80821115611372576000815560010161135e565b50905600a165627a7a723058200f4864a382cf1546bf5c86bd53c245ea5f5bf28099165e01bb889f5c996550f80029",
  "source": "pragma solidity ^0.4.19;\n\nimport \"./ERC721Token.sol\";\n\ncontract Mintable is ERC721Token {\n\n    function Mintable(uint[] _sun, bytes32 _tokenName, uint[] _initPrice) public {\n        initStarsPrice = _initPrice[0];\n        initPlanetsPrice = _initPrice[1];\n        initDwarfPlanetsPrice = _initPrice[2];\n        initSatellitesPrice = _initPrice[3];\n        initExoplanetsPrice = _initPrice[4];\n\n        tokens[_sun[0]].tokenPrice = _sun[1];\n        tokens[_sun[0]].tokenName = _tokenName;\n\n        addToken(msg.sender, _sun[0]);\n        Transfer(0x0, msg.sender, _sun[0]);\n    }\n\n    function () public payable {\n        revert();\n    }\n\n    function mintTokens(uint[] _tokensId, bytes32[] _tokensType, uint[] _tokensPrice, bytes32[] _tokensName) payable external {\n        require(msg.value > 0);\n        require(msg.sender != address(0));\n        require(_tokensId.length > 0);\n        require(_tokensId.length <= 5);\n        require(_tokensId.length == _tokensType.length);\n        require(_tokensId.length == _tokensPrice.length); \n        require(_tokensId.length == _tokensName.length); \n        \n        amount = msg.value;\n\n        for ( uint i = 0; i < _tokensId.length; i++ ) {\n            require(isTheInitialPriceCorrect(_tokensId[i],  _tokensType[i])); \n\n            addToken(msg.sender, _tokensId[i]);\n            Transfer(0x0, msg.sender, _tokensId[i]);\n\n            tokens[_tokensId[i]].tokenName = _tokensName[i];\n            tokens[_tokensId[i]].tokenPrice = _tokensPrice[i];\n        }\n\n        require(amount == 0);\n        owner.transfer(this.balance);\n        \n    }\n\n    function isTheInitialPriceCorrect(uint256 _tokenId, bytes32 _tokenType) internal returns (bool) {\n        bool isTrue;\n\n        if (_tokenType == stringToBytes32(\"star\")) {\n            require(_tokenId >= 1 && _tokenId <= 98826);\n            \n            isTrue = initStarsPrice <= amount;\n\n            amount = amount.sub(initStarsPrice);\n\n            return isTrue;\n\n        } else if (_tokenType == stringToBytes32(\"exoplanet\")) {\n            require(_tokenId >= 98853 && _tokenId <= 102363);\n            \n            isTrue = initExoplanetsPrice <= amount;\n\n            amount = amount.sub(initExoplanetsPrice);\n\n            return isTrue;\n\n        } else if (_tokenType == stringToBytes32(\"satellite\")) {\n            require(_tokenId >= 98846 && _tokenId <= 98852);\n\n            isTrue = initSatellitesPrice <= amount;\n\n            amount = amount.sub(initSatellitesPrice);\n            \n            return isTrue;\n\n        } else if (_tokenType == stringToBytes32(\"planet\")) {\n            require(_tokenId >= 98827 && _tokenId <= 98845); \n            \n            isTrue = initPlanetsPrice <= amount;\n\n            amount = amount.sub(initPlanetsPrice);\n            \n            return isTrue;\n\n        } else if (_tokenType == stringToBytes32(\"dwarfPlanet\")) {\n            require(_tokenId >= 102364 && _tokenId <= 102374);\n\n            isTrue = initDwarfPlanetsPrice <= amount;\n\n            amount = amount.sub(initDwarfPlanetsPrice);\n            \n            return isTrue;\n\n        }\n\n        return false;\n\n    }\n    \n    function changeTokenPriceByOwner(uint256 _tokenId, uint256 _tokenPrice) external onlyOwnerOf(_tokenId) {\n        tokens[_tokenId].tokenPrice = _tokenPrice;\n    }\n\n    function changeTokenName(uint256 _tokenId, bytes32 _tokenName) external onlyOwnerOf(_tokenId) {\n        tokens[_tokenId].tokenName = _tokenName;\n    }\n\n    //only owner can mint a completly new token\n\n}",
  "sourcePath": "/home/cyril/Documents/Personal_Projects/Smart_contract_Stars/contracts/Mintable.sol",
  "compiler": {
    "name": "solc",
    "version": "0.4.19+commit.c4cbbb05.Emscripten.clang"
  },
  "schemaVersion": "2.0.0",
  "updatedAt": "2018-03-21T15:17:41.937Z"
}