{
  "contractName": "Mintable",
  "abi": [
    {
      "constant": true,
      "inputs": [],
      "name": "initDwarfPlanetsPrice",
      "outputs": [
        {
          "name": "",
          "type": "uint256"
        }
      ],
      "payable": false,
      "stateMutability": "view",
      "type": "function"
    },
    {
      "constant": true,
      "inputs": [],
      "name": "initPlanetsPrice",
      "outputs": [
        {
          "name": "",
          "type": "uint256"
        }
      ],
      "payable": false,
      "stateMutability": "view",
      "type": "function"
    },
    {
      "constant": true,
      "inputs": [],
      "name": "initExoplanetsPrice",
      "outputs": [
        {
          "name": "",
          "type": "uint256"
        }
      ],
      "payable": false,
      "stateMutability": "view",
      "type": "function"
    },
    {
      "constant": false,
      "inputs": [],
      "name": "destroy",
      "outputs": [],
      "payable": false,
      "stateMutability": "nonpayable",
      "type": "function"
    },
    {
      "constant": true,
      "inputs": [],
      "name": "initStarsPrice",
      "outputs": [
        {
          "name": "",
          "type": "uint256"
        }
      ],
      "payable": false,
      "stateMutability": "view",
      "type": "function"
    },
    {
      "constant": true,
      "inputs": [],
      "name": "owner",
      "outputs": [
        {
          "name": "",
          "type": "address"
        }
      ],
      "payable": false,
      "stateMutability": "view",
      "type": "function"
    },
    {
      "constant": true,
      "inputs": [],
      "name": "initSatellitesPrice",
      "outputs": [
        {
          "name": "",
          "type": "uint256"
        }
      ],
      "payable": false,
      "stateMutability": "view",
      "type": "function"
    },
    {
      "constant": true,
      "inputs": [],
      "name": "amount",
      "outputs": [
        {
          "name": "",
          "type": "uint256"
        }
      ],
      "payable": false,
      "stateMutability": "view",
      "type": "function"
    },
    {
      "constant": false,
      "inputs": [
        {
          "name": "newOwner",
          "type": "address"
        }
      ],
      "name": "transferOwnership",
      "outputs": [],
      "payable": false,
      "stateMutability": "nonpayable",
      "type": "function"
    },
    {
      "constant": false,
      "inputs": [
        {
          "name": "_recipient",
          "type": "address"
        }
      ],
      "name": "destroyAndSend",
      "outputs": [],
      "payable": false,
      "stateMutability": "nonpayable",
      "type": "function"
    },
    {
      "inputs": [
        {
          "name": "_initPrice",
          "type": "uint256[]"
        },
        {
          "name": "_tokenERC721Address",
          "type": "address"
        }
      ],
      "payable": false,
      "stateMutability": "nonpayable",
      "type": "constructor"
    },
    {
      "payable": true,
      "stateMutability": "payable",
      "type": "fallback"
    },
    {
      "anonymous": false,
      "inputs": [
        {
          "indexed": false,
          "name": "",
          "type": "address"
        },
        {
          "indexed": false,
          "name": "",
          "type": "uint256"
        }
      ],
      "name": "MintTokens",
      "type": "event"
    },
    {
      "anonymous": false,
      "inputs": [
        {
          "indexed": true,
          "name": "previousOwner",
          "type": "address"
        },
        {
          "indexed": true,
          "name": "newOwner",
          "type": "address"
        }
      ],
      "name": "OwnershipTransferred",
      "type": "event"
    },
    {
      "constant": false,
      "inputs": [
        {
          "name": "_tokensId",
          "type": "uint256[]"
        },
        {
          "name": "_tokensType",
          "type": "bytes32[]"
        },
        {
          "name": "_tokensPrice",
          "type": "uint256[]"
        },
        {
          "name": "_tokensName",
          "type": "bytes32[]"
        }
      ],
      "name": "mintTokens",
      "outputs": [],
      "payable": true,
      "stateMutability": "payable",
      "type": "function"
    }
  ],
  "bytecode": "0x6060604052341561000f57600080fd5b6040516109253803806109258339810160405280805182019190602001805160008054600160a060020a03191633600160a060020a03161781559092508391508151811061005957fe5b90602001906020020151600190815582908151811061007457fe5b90602001906020020151600290815582908151811061008f57fe5b9060200190602002015160039081558290815181106100aa57fe5b9060200190602002015160049081558290815181106100c557fe5b9060200190602002015160055560078054600160a060020a031916600160a060020a039290921691909117905550610823806101026000396000f3006060604052600436106100ae5763ffffffff7c0100000000000000000000000000000000000000000000000000000000600035041663110c961281146100b3578063133b489c146100d85780634ce7ac82146100eb578063725c74041461012457806383197ef0146101375780638c9d329a1461014a5780638da5cb5b1461015d578063938a09c11461018c578063aa8c217c1461019f578063f2fde38b146101b2578063f5074f41146101d1575b600080fd5b34156100be57600080fd5b6100c66101f0565b60405190815260200160405180910390f35b34156100e357600080fd5b6100c66101f6565b61012260246004803582810192908201359181358083019290820135916044358083019290820135916064359182019101356101fc565b005b341561012f57600080fd5b6100c66103ae565b341561014257600080fd5b6101226103b4565b341561015557600080fd5b6100c66103dd565b341561016857600080fd5b6101706103e3565b604051600160a060020a03909116815260200160405180910390f35b341561019757600080fd5b6100c66103f2565b34156101aa57600080fd5b6100c66103f8565b34156101bd57600080fd5b610122600160a060020a03600435166103fe565b34156101dc57600080fd5b610122600160a060020a0360043516610499565b60035481565b60025481565b60003481901161020b57600080fd5b33600160a060020a0316151561022057600080fd5b6000881161022d57600080fd5b600588111561023b57600080fd5b87861461024757600080fd5b87841461025357600080fd5b87821461025f57600080fd5b503460065560005b878110156103a3576102a389898381811061027e57fe5b90506020020135888884818110151561029357fe5b90506020020135600019166104c0565b15156102ae57600080fd5b600754600160a060020a031663af81c5b9338b8b858181106102cc57fe5b905060200201356040517c010000000000000000000000000000000000000000000000000000000063ffffffff8516028152600160a060020a0390921660048301526024820152604401600060405180830381600087803b151561032f57600080fd5b6102c65a03f1151561034057600080fd5b5050507f7b47457f3af09e5f794b020fd74160963a808f5985883496a096d403d380c343338a8a84818110151561037357fe5b90506020020135604051600160a060020a03909216825260208201526040908101905180910390a1600101610267565b505050505050505050565b60055481565b60005433600160a060020a039081169116146103cf57600080fd5b600054600160a060020a0316ff5b60015481565b600054600160a060020a031681565b60045481565b60065481565b60005433600160a060020a0390811691161461041957600080fd5b600160a060020a038116151561042e57600080fd5b600054600160a060020a0380831691167f8be0079c531659141344cd1fd0a4f28419497f9722a3daafe3b4186f6b6457e060405160405180910390a36000805473ffffffffffffffffffffffffffffffffffffffff1916600160a060020a0392909216919091179055565b60005433600160a060020a039081169116146104b457600080fd5b80600160a060020a0316ff5b6000806104ff60408051908101604052600481527f737461720000000000000000000000000000000000000000000000000000000060208201526107a8565b83141561054b576001841015801561051a57506201820a8411155b151561052557600080fd5b5060065460015481811115916105409163ffffffff6107d316565b6006559050806107a1565b61058760408051908101604052600981527f65786f706c616e6574000000000000000000000000000000000000000000000060208201526107a8565b8314156105e6576201822584101580156105a4575062018fdb8411155b15156105af57600080fd5b50600654600554819011159015156105c85760006105dd565b6005546006546105dd9163ffffffff6107d316565b508091506107a1565b61062260408051908101604052600981527f736174656c6c697465000000000000000000000000000000000000000000000060208201526107a8565b831415610678576201821e841015801561063f5750620182248411155b151561064a57600080fd5b50600654600454819011159015156106635760006105dd565b6004546006546105dd9163ffffffff6107d316565b6106b460408051908101604052600681527f706c616e6574000000000000000000000000000000000000000000000000000060208201526107a8565b83141561070a576201820b84101580156106d157506201821d8411155b15156106dc57600080fd5b50600654600254819011159015156106f55760006105dd565b6002546006546105dd9163ffffffff6107d316565b61074660408051908101604052600b81527f6477617266506c616e657400000000000000000000000000000000000000000060208201526107a8565b83141561079c5762018fdc8410158015610763575062018fe68411155b151561076e57600080fd5b50600654600354819011159015156107875760006105dd565b6003546006546105dd9163ffffffff6107d316565b600091505b5092915050565b60006107b26107e5565b5081805115156107c557600091506107cd565b602083015191505b50919050565b6000828211156107df57fe5b50900390565b602060405190810160405260008152905600a165627a7a72305820c5aa5ccc548442ddbaa2cd65729080b809c2adb1387ac7891e2eb75bd9c271a70029",
  "source": "pragma solidity ^0.4.19;\n\nimport \"../ERC721/ERC721Token.sol\";\nimport \"../../node_modules/zeppelin-solidity/contracts/math/SafeMath.sol\";\nimport \"../../node_modules/zeppelin-solidity/contracts/lifecycle/Destructible.sol\";\n\ncontract Mintable is Destructible {\n    using SafeMath for uint256;\n    \n    uint public initStarsPrice;\n    uint public initPlanetsPrice;\n    uint public initDwarfPlanetsPrice;\n    uint public initSatellitesPrice;\n    uint public initExoplanetsPrice;\n\n    uint public amount;\n\n    ERC721Token tokenERC721;\n\n    event MintTokens(address, uint);\n    \n    function Mintable(uint[] _initPrice, address _tokenERC721Address) public {\n        initStarsPrice = _initPrice[0];\n        initPlanetsPrice = _initPrice[1];\n        initDwarfPlanetsPrice = _initPrice[2];\n        initSatellitesPrice = _initPrice[3];\n        initExoplanetsPrice = _initPrice[4];\n        \n        tokenERC721 = ERC721Token(_tokenERC721Address);\n    }\n\n    function () public payable {\n        revert();\n    }\n\n    function mintTokens(uint[] _tokensId, bytes32[] _tokensType, uint[] _tokensPrice, bytes32[] _tokensName) payable external {\n        require(msg.value > 0);\n        require(msg.sender != address(0));\n        require(_tokensId.length > 0);\n        require(_tokensId.length <= 5);\n        require(_tokensId.length == _tokensType.length);\n        require(_tokensId.length == _tokensPrice.length); \n        require(_tokensId.length == _tokensName.length); \n        \n        amount = msg.value;\n\n        for ( uint i = 0; i < _tokensId.length; i++ ) {\n            require(isTheInitialPriceCorrect(_tokensId[i],  _tokensType[i])); \n            \n            tokenERC721.addToken(msg.sender, _tokensId[i]);\n            // tokenERC721.changeTokenPrice(_tokensId[i], _tokensPrice[i]);\n            // tokenERC721.changeTokenName(_tokensId[i], _tokensName[i]);\n\n            MintTokens(msg.sender, _tokensId[i]);\n        }\n\n        //require(amount == 0);\n        //owner.transfer(this.balance);\n        \n    }\n\n    function isTheInitialPriceCorrect(uint _tokenId, bytes32 _tokenType) internal returns (bool) {\n        bool isTrue;\n\n        if (_tokenType == stringToBytes32(\"star\")) {\n            require(_tokenId >= 1 && _tokenId <= 98826);\n            \n            isTrue = initStarsPrice <= amount;\n\n            amount = amount.sub(initStarsPrice);\n\n            return isTrue;\n\n        } else if (_tokenType == stringToBytes32(\"exoplanet\")) {\n            require(_tokenId >= 98853 && _tokenId <= 102363);\n            \n            isTrue = initExoplanetsPrice <= amount;\n\n            amount != 0 ? amount.sub(initExoplanetsPrice) : 0;\n\n            return isTrue;\n\n        } else if (_tokenType == stringToBytes32(\"satellite\")) {\n            require(_tokenId >= 98846 && _tokenId <= 98852);\n\n            isTrue = initSatellitesPrice <= amount;\n\n            amount != 0 ? amount.sub(initSatellitesPrice) : 0;\n            \n            return isTrue;\n\n        } else if (_tokenType == stringToBytes32(\"planet\")) {\n            require(_tokenId >= 98827 && _tokenId <= 98845); \n            \n            isTrue = initPlanetsPrice <= amount;\n\n            amount != 0 ? amount.sub(initPlanetsPrice) : 0;\n            \n            return isTrue;\n\n        } else if (_tokenType == stringToBytes32(\"dwarfPlanet\")) {\n            require(_tokenId >= 102364 && _tokenId <= 102374);\n\n            isTrue = initDwarfPlanetsPrice <= amount;\n\n            amount != 0 ? amount.sub(initDwarfPlanetsPrice) : 0;\n            \n            return isTrue;\n\n        }\n\n        return false;\n\n    }\n\n    function stringToBytes32(string memory source) internal pure returns (bytes32 result) {\n        bytes memory tempEmptyStringTest = bytes(source);\n        if (tempEmptyStringTest.length == 0) {\n            return 0x0;\n        }\n\n        assembly {\n            result := mload(add(source, 32))\n        }\n    }\n\n}",
  "sourcePath": "/home/cyril/Documents/Personal_Projects/Smart_contract_Stars/contracts/logic/Mintable.sol",
  "compiler": {
    "name": "solc",
    "version": "0.4.19+commit.c4cbbb05.Emscripten.clang"
  },
  "schemaVersion": "2.0.0",
  "updatedAt": "2018-03-22T17:09:12.774Z"
}