{
  "contractName": "Mintable",
  "abi": [
    {
      "constant": true,
      "inputs": [],
      "name": "initDwarfPlanetsPrice",
      "outputs": [
        {
          "name": "",
          "type": "uint256"
        }
      ],
      "payable": false,
      "stateMutability": "view",
      "type": "function"
    },
    {
      "constant": true,
      "inputs": [],
      "name": "initPlanetsPrice",
      "outputs": [
        {
          "name": "",
          "type": "uint256"
        }
      ],
      "payable": false,
      "stateMutability": "view",
      "type": "function"
    },
    {
      "constant": true,
      "inputs": [],
      "name": "initExoplanetsPrice",
      "outputs": [
        {
          "name": "",
          "type": "uint256"
        }
      ],
      "payable": false,
      "stateMutability": "view",
      "type": "function"
    },
    {
      "constant": false,
      "inputs": [],
      "name": "destroy",
      "outputs": [],
      "payable": false,
      "stateMutability": "nonpayable",
      "type": "function"
    },
    {
      "constant": true,
      "inputs": [],
      "name": "initStarsPrice",
      "outputs": [
        {
          "name": "",
          "type": "uint256"
        }
      ],
      "payable": false,
      "stateMutability": "view",
      "type": "function"
    },
    {
      "constant": true,
      "inputs": [],
      "name": "owner",
      "outputs": [
        {
          "name": "",
          "type": "address"
        }
      ],
      "payable": false,
      "stateMutability": "view",
      "type": "function"
    },
    {
      "constant": true,
      "inputs": [],
      "name": "initSatellitesPrice",
      "outputs": [
        {
          "name": "",
          "type": "uint256"
        }
      ],
      "payable": false,
      "stateMutability": "view",
      "type": "function"
    },
    {
      "constant": false,
      "inputs": [
        {
          "name": "_tokensId",
          "type": "uint256[]"
        },
        {
          "name": "_newTokensPrice",
          "type": "uint256[]"
        }
      ],
      "name": "buyTokens",
      "outputs": [],
      "payable": true,
      "stateMutability": "payable",
      "type": "function"
    },
    {
      "constant": false,
      "inputs": [
        {
          "name": "newOwner",
          "type": "address"
        }
      ],
      "name": "transferOwnership",
      "outputs": [],
      "payable": false,
      "stateMutability": "nonpayable",
      "type": "function"
    },
    {
      "constant": false,
      "inputs": [
        {
          "name": "_recipient",
          "type": "address"
        }
      ],
      "name": "destroyAndSend",
      "outputs": [],
      "payable": false,
      "stateMutability": "nonpayable",
      "type": "function"
    },
    {
      "inputs": [
        {
          "name": "_initPrice",
          "type": "uint256[]"
        },
        {
          "name": "_tokenERC721Address",
          "type": "address"
        }
      ],
      "payable": false,
      "stateMutability": "nonpayable",
      "type": "constructor"
    },
    {
      "payable": true,
      "stateMutability": "payable",
      "type": "fallback"
    },
    {
      "anonymous": false,
      "inputs": [
        {
          "indexed": false,
          "name": "from",
          "type": "address"
        },
        {
          "indexed": false,
          "name": "id",
          "type": "uint256"
        }
      ],
      "name": "MintTokens",
      "type": "event"
    },
    {
      "anonymous": false,
      "inputs": [
        {
          "indexed": false,
          "name": "exOwner",
          "type": "address"
        },
        {
          "indexed": false,
          "name": "newOwner",
          "type": "address"
        },
        {
          "indexed": false,
          "name": "id",
          "type": "uint256"
        },
        {
          "indexed": false,
          "name": "Price",
          "type": "uint256"
        }
      ],
      "name": "BuyTokens",
      "type": "event"
    },
    {
      "anonymous": false,
      "inputs": [
        {
          "indexed": true,
          "name": "previousOwner",
          "type": "address"
        },
        {
          "indexed": true,
          "name": "newOwner",
          "type": "address"
        }
      ],
      "name": "OwnershipTransferred",
      "type": "event"
    },
    {
      "constant": false,
      "inputs": [
        {
          "name": "_tokensId",
          "type": "uint256[]"
        },
        {
          "name": "_tokensType",
          "type": "bytes32[]"
        },
        {
          "name": "_tokensPrice",
          "type": "uint256[]"
        },
        {
          "name": "_tokensName",
          "type": "bytes32[]"
        }
      ],
      "name": "mintTokens",
      "outputs": [],
      "payable": true,
      "stateMutability": "payable",
      "type": "function"
    }
  ],
  "bytecode": "0x6060604052341561000f57600080fd5b604051610d19380380610d198339810160405280805182019190602001805160008054600160a060020a03191633600160a060020a03161781559092508391508151811061005957fe5b906020019060200201516002558160018151811061007357fe5b906020019060200201516003558160028151811061008d57fe5b90602001906020020151600455816003815181106100a757fe5b90602001906020020151600555816004815181106100c157fe5b9060200190602002015160065560018054600160a060020a031916600160a060020a039290921691909117905550610c1b806100fe6000396000f3006060604052600436106100955763ffffffff60e060020a600035041663110c9612811461009a578063133b489c146100bf5780634ce7ac82146100d2578063725c74041461010b57806383197ef01461011e5780638c9d329a146101315780638da5cb5b14610144578063938a09c114610173578063942a846714610186578063f2fde38b146101a5578063f5074f41146101c4575b600080fd5b34156100a557600080fd5b6100ad6101e3565b60405190815260200160405180910390f35b34156100ca57600080fd5b6100ad6101e9565b61010960246004803582810192908201359181358083019290820135916044358083019290820135916064359182019101356101ef565b005b341561011657600080fd5b6100ad610490565b341561012957600080fd5b610109610496565b341561013c57600080fd5b6100ad6104bf565b341561014f57600080fd5b6101576104c5565b604051600160a060020a03909116815260200160405180910390f35b341561017e57600080fd5b6100ad6104d4565b61010960246004803582810192908201359181359182019101356104da565b34156101b057600080fd5b610109600160a060020a03600435166107fc565b34156101cf57600080fd5b610109600160a060020a0360043516610897565b60045481565b60035481565b6000348190116101fe57600080fd5b33600160a060020a0316151561021357600080fd5b6000881161022057600080fd5b600588111561022e57600080fd5b87861461023a57600080fd5b87841461024657600080fd5b87821461025257600080fd5b503460075560005b8781101561043f5761029689898381811061027157fe5b90506020020135888884818110151561028657fe5b90506020020135600019166108be565b15156102a157600080fd5b600154600160a060020a031663c81e128b8a8a848181106102be57fe5b9050602002013589898581811015156102d357fe5b602002919091013590508686868181106102e957fe5b602002919091013590508989878181106102ff57fe5b9050602002013560405160e060020a63ffffffff87160281526004810194909452602484019290925260448301526064820152608401600060405180830381600087803b151561034e57600080fd5b6102c65a03f1151561035f57600080fd5b5050600154600160a060020a0316905063af81c5b9338b8b8581811061038157fe5b9050602002013560405160e060020a63ffffffff8516028152600160a060020a0390921660048301526024820152604401600060405180830381600087803b15156103cb57600080fd5b6102c65a03f115156103dc57600080fd5b5050507f7b47457f3af09e5f794b020fd74160963a808f5985883496a096d403d380c343338a8a84818110151561040f57fe5b90506020020135604051600160a060020a03909216825260208201526040908101905180910390a160010161025a565b6007541561044c57600080fd5b600054600160a060020a039081169030163180156108fc0290604051600060405180830381858888f19350505050151561048557600080fd5b505050505050505050565b60065481565b60005433600160a060020a039081169116146104b157600080fd5b600054600160a060020a0316ff5b60025481565b600054600160a060020a031681565b60055481565b6000808080348190116104ec57600080fd5b33600160a060020a0316151561050157600080fd5b600587111561050f57600080fd5b86851461051b57600080fd5b349350600092505b868310156107e757600154600160a060020a0316638e36977a89898681811061054857fe5b9050602002013560006040516020015260405160e060020a63ffffffff84160281526004810191909152602401602060405180830381600087803b151561058e57600080fd5b6102c65a03f1151561059f57600080fd5b5050506040518051925050838211156105b757600080fd5b83156105d0576105cd848363ffffffff610b8916565b93505b600154600160a060020a0316636352211e8989868181106105ed57fe5b9050602002013560006040516020015260405160e060020a63ffffffff84160281526004810191909152602401602060405180830381600087803b151561063357600080fd5b6102c65a03f1151561064457600080fd5b5050506040518051915050600160a060020a0381166108fc61067d61067085606463ffffffff610b9b16565b859063ffffffff610b8916565b9081150290604051600060405180830381858888f1935050505015156106a257600080fd5b600054600160a060020a03166108fc6106c284606463ffffffff610b9b16565b9081150290604051600060405180830381858888f1935050505015156106e757600080fd5b600154600160a060020a031663dc8b020382338b8b8881811061070657fe5b9050602002013560405160e060020a63ffffffff8616028152600160a060020a0393841660048201529190921660248201526044810191909152606401600060405180830381600087803b151561075c57600080fd5b6102c65a03f1151561076d57600080fd5b5050507e77a7b9b8b8207f3903ca75eade7730a828eadd952909ed2de6b640b069fb1781338a8a8781811015156107a057fe5b9050602002013585604051600160a060020a0394851681529290931660208301526040808301919091526060820192909252608001905180910390a1600190920191610523565b83156107f257600080fd5b5050505050505050565b60005433600160a060020a0390811691161461081757600080fd5b600160a060020a038116151561082c57600080fd5b600054600160a060020a0380831691167f8be0079c531659141344cd1fd0a4f28419497f9722a3daafe3b4186f6b6457e060405160405180910390a36000805473ffffffffffffffffffffffffffffffffffffffff1916600160a060020a0392909216919091179055565b60005433600160a060020a039081169116146108b257600080fd5b80600160a060020a0316ff5b6000806108fd60408051908101604052600481527f73746172000000000000000000000000000000000000000000000000000000006020820152610bb2565b831415610955576001841015801561091857506201820a8411155b151561092357600080fd5b5060075460025481901115901561094d576002546007546109499163ffffffff610b8916565b6007555b809150610b82565b61099160408051908101604052600981527f65786f706c616e657400000000000000000000000000000000000000000000006020820152610bb2565b8314156109df576201822584101580156109ae575062018fdb8411155b15156109b957600080fd5b5060075460065481901115901561094d576006546007546109499163ffffffff610b8916565b610a1b60408051908101604052600981527f736174656c6c69746500000000000000000000000000000000000000000000006020820152610bb2565b831415610a69576201820b8410158015610a3857506201821d8411155b1515610a4357600080fd5b5060075460055481901115901561094d576005546007546109499163ffffffff610b8916565b610aa560408051908101604052600681527f706c616e657400000000000000000000000000000000000000000000000000006020820152610bb2565b831415610af3576201821e8410158015610ac25750620182248411155b1515610acd57600080fd5b5060075460035481901115901561094d576003546007546109499163ffffffff610b8916565b610b2f60408051908101604052600b81527f6477617266506c616e65740000000000000000000000000000000000000000006020820152610bb2565b831415610b7d5762018fdc8410158015610b4c575062018fe68411155b1515610b5757600080fd5b5060075460045481901115901561094d576004546007546109499163ffffffff610b8916565b600091505b5092915050565b600082821115610b9557fe5b50900390565b6000808284811515610ba957fe5b04949350505050565b6000610bbc610bdd565b508180511515610bcf5760009150610bd7565b602083015191505b50919050565b602060405190810160405260008152905600a165627a7a72305820b652e3b364c6c0e63db9e690e86a089b6f803c133e0eba404c0e793feaf4e9740029",
  "source": "pragma solidity ^0.4.19;\n\nimport \"./Buyable.sol\";\n\ncontract Mintable is Buyable {\n    \n    uint public initStarsPrice;\n    uint public initPlanetsPrice;\n    uint public initDwarfPlanetsPrice;\n    uint public initSatellitesPrice;\n    uint public initExoplanetsPrice;\n\n    uint amount;\n    \n    event MintTokens(address from, uint id);\n    \n    function Mintable(uint[] _initPrice, address _tokenERC721Address) public {\n        initStarsPrice = _initPrice[0];\n        initPlanetsPrice = _initPrice[1];\n        initDwarfPlanetsPrice = _initPrice[2];\n        initSatellitesPrice = _initPrice[3];\n        initExoplanetsPrice = _initPrice[4];\n        \n        tokenERC721 = ERC721Token(_tokenERC721Address);\n    }\n\n    function mintTokens(uint[] _tokensId, bytes32[] _tokensType, uint[] _tokensPrice, bytes32[] _tokensName) payable external {\n        require(msg.value > 0);\n        require(msg.sender != address(0));\n        require(_tokensId.length > 0);\n        require(_tokensId.length <= 5);\n        require(_tokensId.length == _tokensType.length);\n        require(_tokensId.length == _tokensPrice.length); \n        require(_tokensId.length == _tokensName.length); \n        \n        amount = msg.value;\n\n        for ( uint i = 0; i < _tokensId.length; i++ ) {\n            require(isTheInitialPriceCorrect(_tokensId[i],  _tokensType[i])); \n            \n            tokenERC721.createToken(_tokensId[i], _tokensType[i], _tokensName[i], _tokensPrice[i]);\n            tokenERC721.addToken(msg.sender, _tokensId[i]);\n\n            MintTokens(msg.sender, _tokensId[i]);\n        }\n\n        require(amount == 0);\n        owner.transfer(this.balance);\n        \n    }\n\n    function isTheInitialPriceCorrect(uint _tokenId, bytes32 _tokenType) internal returns (bool) {\n        bool isTrue;\n\n        if (_tokenType == stringToBytes32(\"star\")) {\n            require(_tokenId >= 1 && _tokenId <= 98826);\n            \n            isTrue = initStarsPrice <= amount;\n\n            if(amount != 0) {\n                amount = amount.sub(initStarsPrice);\n            }\n\n            return isTrue;\n\n        } else if (_tokenType == stringToBytes32(\"exoplanet\")) {\n            require(_tokenId >= 98853 && _tokenId <= 102363);\n            \n            isTrue = initExoplanetsPrice <= amount;\n\n            if(amount != 0) {\n                amount = amount.sub(initExoplanetsPrice);\n            }\n\n            return isTrue;\n\n        } else if (_tokenType == stringToBytes32(\"satellite\")) {\n            require(_tokenId >= 98827 && _tokenId <= 98845);\n\n            isTrue = initSatellitesPrice <= amount;\n\n            if(amount != 0) {\n                amount = amount.sub(initSatellitesPrice);\n            }\n            \n            return isTrue;\n\n        } else if (_tokenType == stringToBytes32(\"planet\")) {\n            require(_tokenId >= 98846 && _tokenId <= 98852); \n            \n            isTrue = initPlanetsPrice <= amount;\n\n            if(amount != 0) {\n                amount = amount.sub(initPlanetsPrice);\n            }\n            \n            return isTrue;\n\n        } else if (_tokenType == stringToBytes32(\"dwarfPlanet\")) {\n            require(_tokenId >= 102364 && _tokenId <= 102374);\n\n            isTrue = initDwarfPlanetsPrice <= amount;\n\n            if(amount != 0) {\n                amount = amount.sub(initDwarfPlanetsPrice);\n            }\n            \n            return isTrue;\n\n        }\n\n        return false;\n\n    }\n\n    function stringToBytes32(string memory source) internal pure returns (bytes32 result) {\n        bytes memory tempEmptyStringTest = bytes(source);\n        if (tempEmptyStringTest.length == 0) {\n            return 0x0;\n        }\n\n        assembly {\n            result := mload(add(source, 32))\n        }\n    }\n\n}",
  "sourcePath": "/home/cyril/Documents/headInTheStars_Smart_Contract/contracts/logic/Mintable.sol",
  "compiler": {
    "name": "solc",
    "version": "0.4.19+commit.c4cbbb05.Emscripten.clang"
  },
  "schemaVersion": "2.0.0",
  "updatedAt": "2018-03-24T22:49:43.342Z"
}