{
  "contractName": "StorageGetter",
  "abi": [
    {
      "constant": true,
      "inputs": [
        {
          "name": "",
          "type": "address"
        }
      ],
      "name": "accessAllowed",
      "outputs": [
        {
          "name": "",
          "type": "bool"
        }
      ],
      "payable": false,
      "stateMutability": "view",
      "type": "function"
    },
    {
      "constant": true,
      "inputs": [
        {
          "name": "",
          "type": "uint256"
        }
      ],
      "name": "ownedTokensIndex",
      "outputs": [
        {
          "name": "",
          "type": "uint256"
        }
      ],
      "payable": false,
      "stateMutability": "view",
      "type": "function"
    },
    {
      "constant": true,
      "inputs": [],
      "name": "totalTokens",
      "outputs": [
        {
          "name": "",
          "type": "uint256"
        }
      ],
      "payable": false,
      "stateMutability": "view",
      "type": "function"
    },
    {
      "constant": true,
      "inputs": [
        {
          "name": "",
          "type": "address"
        },
        {
          "name": "",
          "type": "uint256"
        }
      ],
      "name": "ownedTokens",
      "outputs": [
        {
          "name": "",
          "type": "uint256"
        }
      ],
      "payable": false,
      "stateMutability": "view",
      "type": "function"
    },
    {
      "constant": true,
      "inputs": [],
      "name": "totalSupply",
      "outputs": [
        {
          "name": "",
          "type": "uint256"
        }
      ],
      "payable": false,
      "stateMutability": "view",
      "type": "function"
    },
    {
      "constant": true,
      "inputs": [
        {
          "name": "_owner",
          "type": "address"
        }
      ],
      "name": "balanceOf",
      "outputs": [
        {
          "name": "",
          "type": "uint256"
        }
      ],
      "payable": false,
      "stateMutability": "view",
      "type": "function"
    },
    {
      "constant": true,
      "inputs": [
        {
          "name": "_owner",
          "type": "address"
        }
      ],
      "name": "tokensOf",
      "outputs": [
        {
          "name": "",
          "type": "uint256[]"
        }
      ],
      "payable": false,
      "stateMutability": "view",
      "type": "function"
    },
    {
      "constant": true,
      "inputs": [
        {
          "name": "_tokenId",
          "type": "uint256"
        }
      ],
      "name": "ownerOf",
      "outputs": [
        {
          "name": "",
          "type": "address"
        }
      ],
      "payable": false,
      "stateMutability": "view",
      "type": "function"
    },
    {
      "constant": true,
      "inputs": [
        {
          "name": "_tokenId",
          "type": "uint256"
        }
      ],
      "name": "approvedFor",
      "outputs": [
        {
          "name": "",
          "type": "address"
        }
      ],
      "payable": false,
      "stateMutability": "view",
      "type": "function"
    },
    {
      "constant": true,
      "inputs": [
        {
          "name": "_tokenId",
          "type": "uint256"
        }
      ],
      "name": "tokenPriceOf",
      "outputs": [
        {
          "name": "",
          "type": "uint256"
        }
      ],
      "payable": false,
      "stateMutability": "view",
      "type": "function"
    },
    {
      "constant": true,
      "inputs": [
        {
          "name": "_tokenId",
          "type": "uint256"
        }
      ],
      "name": "tokenNameOf",
      "outputs": [
        {
          "name": "",
          "type": "string"
        }
      ],
      "payable": false,
      "stateMutability": "view",
      "type": "function"
    },
    {
      "constant": true,
      "inputs": [
        {
          "name": "_tokenId",
          "type": "uint256"
        }
      ],
      "name": "tokenDetailsOf",
      "outputs": [
        {
          "name": "",
          "type": "address"
        },
        {
          "name": "",
          "type": "uint256"
        },
        {
          "name": "",
          "type": "string"
        },
        {
          "name": "",
          "type": "address"
        }
      ],
      "payable": false,
      "stateMutability": "view",
      "type": "function"
    }
  ],
  "bytecode": "0x60606040908152600160a060020a0333166000908152600460205220805460ff19166001179055610673806100356000396000f3006060604052600436106100b95763ffffffff7c010000000000000000000000000000000000000000000000000000000060003504166318160ddd81146100be5780632a6dd48f146100e35780635a3f2672146101155780635e61af8d146101875780636352211e1461023557806370a082311461024b578063725019761461026a57806374e243671461029d5780637e1c0c09146102b35780638e36977a146102c6578063e149f036146102dc578063e324c664146102fe575b600080fd5b34156100c957600080fd5b6100d161038b565b60405190815260200160405180910390f35b34156100ee57600080fd5b6100f9600435610391565b604051600160a060020a03909116815260200160405180910390f35b341561012057600080fd5b610134600160a060020a03600435166103af565b60405160208082528190810183818151815260200191508051906020019060200280838360005b8381101561017357808201518382015260200161015b565b505050509050019250505060405180910390f35b341561019257600080fd5b61019d600435610432565b604051600160a060020a038086168252602082018590528216606082015260806040820181815290820184818151815260200191508051906020019080838360005b838110156101f75780820151838201526020016101df565b50505050905090810190601f1680156102245780820380516001836020036101000a031916815260200191505b509550505050505060405180910390f35b341561024057600080fd5b6100f9600435610499565b341561025657600080fd5b6100d1600160a060020a03600435166104c3565b341561027557600080fd5b610289600160a060020a03600435166104de565b604051901515815260200160405180910390f35b34156102a857600080fd5b6100d16004356104f3565b34156102be57600080fd5b6100d1610505565b34156102d157600080fd5b6100d160043561050b565b34156102e757600080fd5b6100d1600160a060020a0360043516602435610521565b341561030957600080fd5b61031460043561054f565b60405160208082528190810183818151815260200191508051906020019080838360005b83811015610350578082015183820152602001610338565b50505050905090810190601f16801561037d5780820380516001836020036101000a031916815260200191505b509250505060405180910390f35b60005490565b600090815260016020526040902060030154600160a060020a031690565b6103b7610635565b6002600083600160a060020a0316600160a060020a0316815260200190815260200160002080548060200260200160405190810160405280929190818152602001828054801561042657602002820191906000526020600020905b815481526020019060010190808311610412575b50505050509050919050565b60008061043d610635565b60008481526001602081905260408220805491810154600290910154600160a060020a039092169161046e90610579565b60009788526001602052604090972060030154919790969550600160a060020a039091169350915050565b600081815260016020526040812054600160a060020a03168015156104bd57600080fd5b92915050565b600160a060020a031660009081526002602052604090205490565b60046020526000908152604090205460ff1681565b60036020526000908152604090205481565b60005481565b6000908152600160208190526040909120015490565b60026020528160005260406000208181548110151561053c57fe5b6000918252602090912001549150829050565b610557610635565b60008281526001602052604090206002015461057281610579565b9392505050565b610581610635565b610589610635565b6000602060405180591061059a5750595b818152601f19601f8301168101602001604052905091505b602081101561062e578381602081106105c757fe5b1a7f0100000000000000000000000000000000000000000000000000000000000000028282815181106105f657fe5b9060200101907effffffffffffffffffffffffffffffffffffffffffffffffffffffffffffff1916908160001a9053506001016105b2565b5092915050565b602060405190810160405260008152905600a165627a7a72305820e096445ceb32054096db0978b3ba3a1d2d98268d1acbd453f50893b3082f4a820029",
  "source": "pragma solidity ^0.4.18;\n\nimport \"./Storage.sol\";\nimport \"../../node_modules/zeppelin-solidity/contracts/math/SafeMath.sol\";\n\ncontract StorageGetter is Storage {\n    \n    /**\n    * @dev Gets the total amount of tokens stored by the contract\n    * @return uint256 representing the total amount of tokens\n    */\n    function totalSupply() external view returns (uint256) {\n        return totalTokens;\n    }\n\n    /**\n    * @dev Gets the balance of the specified address\n    * @param _owner address to query the balance of\n    * @return uint256 representing the amount owned by the passed address\n    */\n    function balanceOf(address _owner) public view returns (uint256) {\n        return ownedTokens[_owner].length;\n    }\n\n    /**\n    * @dev Gets the list of tokens owned by a given address\n    * @param _owner address to query the tokens of\n    * @return uint256[] representing the list of tokens owned by the passed address\n    */\n    function tokensOf(address _owner) external view returns (uint256[]) {\n        return ownedTokens[_owner];\n    }\n\n    /**\n    * @dev Gets the owner of the specified token ID\n    * @param _tokenId uint256 ID of the token to query the owner of\n    * @return owner address currently marked as the owner of the given token ID\n    */\n    function ownerOf(uint256 _tokenId) public view returns (address) {\n        address owner = tokens[_tokenId].tokenOwner;\n        require(owner != address(0));\n        return owner;\n    }\n\n    /**\n    * @dev Gets the approved address to take ownership of a given token ID\n    * @param _tokenId uint256 ID of the token to query the approval of\n    * @return address currently approved to take ownership of the given token ID\n    */\n    function approvedFor(uint256 _tokenId) public view returns (address) {\n        return tokens[_tokenId].tokenApproval;\n    }\n\n    /**\n    * @dev Tells whether the msg.sender is approved for the given token ID or not\n    * This function is not private so it can be extended in further implementations like the operatable ERC721\n    * @param _owner address of the owner to query the approval of\n    * @param _tokenId uint256 ID of the token to query the approval of\n    * @return bool whether the msg.sender is approved for the given token ID or not\n    */\n    function isApprovedFor(address _owner, uint256 _tokenId) internal view returns (bool) {\n        return approvedFor(_tokenId) == _owner;\n    }\n    \n    function tokenPriceOf(uint256 _tokenId) public view returns (uint) {\n        return tokens[_tokenId].tokenPrice;\n    }\n\n    function tokenNameOf(uint256 _tokenId) public view returns (string) {\n        bytes32 name = tokens[_tokenId].tokenName;\n        return bytes32ToStr(name);\n    }\n\n    function tokenDetailsOf(uint256 _tokenId) public view returns (address, uint, string, address) {\n        return (\n            tokens[_tokenId].tokenOwner, \n            tokens[_tokenId].tokenPrice,\n            bytes32ToStr(tokens[_tokenId].tokenName),\n            tokens[_tokenId].tokenApproval\n            );\n    }\n\n    function bytes32ToStr(bytes32 _bytes32) internal pure returns (string){\n        bytes memory bytesArray = new bytes(32);\n        for (uint256 i; i < 32; i++) {\n            bytesArray[i] = _bytes32[i];\n            }\n        return string(bytesArray);\n    }\n\n}",
  "sourcePath": "/home/cyril/Documents/Personal_Projects/Smart_contract_Stars/contracts/ERC721/StorageGetter.sol",
  "compiler": {
    "name": "solc",
    "version": "0.4.19+commit.c4cbbb05.Emscripten.clang"
  },
  "schemaVersion": "2.0.0",
  "updatedAt": "2018-03-22T17:03:11.010Z"
}