{
  "contractName": "StorageGetter",
  "abi": [
    {
      "constant": true,
      "inputs": [
        {
          "name": "",
          "type": "address"
        }
      ],
      "name": "accessAllowed",
      "outputs": [
        {
          "name": "",
          "type": "bool"
        }
      ],
      "payable": false,
      "stateMutability": "view",
      "type": "function"
    },
    {
      "constant": true,
      "inputs": [
        {
          "name": "",
          "type": "uint256"
        }
      ],
      "name": "ownedTokensIndex",
      "outputs": [
        {
          "name": "",
          "type": "uint256"
        }
      ],
      "payable": false,
      "stateMutability": "view",
      "type": "function"
    },
    {
      "constant": true,
      "inputs": [],
      "name": "totalTokens",
      "outputs": [
        {
          "name": "",
          "type": "uint256"
        }
      ],
      "payable": false,
      "stateMutability": "view",
      "type": "function"
    },
    {
      "constant": true,
      "inputs": [
        {
          "name": "",
          "type": "address"
        },
        {
          "name": "",
          "type": "uint256"
        }
      ],
      "name": "ownedTokens",
      "outputs": [
        {
          "name": "",
          "type": "uint256"
        }
      ],
      "payable": false,
      "stateMutability": "view",
      "type": "function"
    },
    {
      "constant": true,
      "inputs": [],
      "name": "totalSupply",
      "outputs": [
        {
          "name": "",
          "type": "uint256"
        }
      ],
      "payable": false,
      "stateMutability": "view",
      "type": "function"
    },
    {
      "constant": true,
      "inputs": [
        {
          "name": "_owner",
          "type": "address"
        }
      ],
      "name": "balanceOf",
      "outputs": [
        {
          "name": "",
          "type": "uint256"
        }
      ],
      "payable": false,
      "stateMutability": "view",
      "type": "function"
    },
    {
      "constant": true,
      "inputs": [
        {
          "name": "_owner",
          "type": "address"
        }
      ],
      "name": "tokensOf",
      "outputs": [
        {
          "name": "",
          "type": "uint256[]"
        }
      ],
      "payable": false,
      "stateMutability": "view",
      "type": "function"
    },
    {
      "constant": true,
      "inputs": [
        {
          "name": "_tokenId",
          "type": "uint256"
        }
      ],
      "name": "ownerOf",
      "outputs": [
        {
          "name": "",
          "type": "address"
        }
      ],
      "payable": false,
      "stateMutability": "view",
      "type": "function"
    },
    {
      "constant": true,
      "inputs": [
        {
          "name": "_tokenId",
          "type": "uint256"
        }
      ],
      "name": "approvedFor",
      "outputs": [
        {
          "name": "",
          "type": "address"
        }
      ],
      "payable": false,
      "stateMutability": "view",
      "type": "function"
    },
    {
      "constant": true,
      "inputs": [
        {
          "name": "_tokenId",
          "type": "uint256"
        }
      ],
      "name": "tokenPriceOf",
      "outputs": [
        {
          "name": "",
          "type": "uint256"
        }
      ],
      "payable": false,
      "stateMutability": "view",
      "type": "function"
    },
    {
      "constant": true,
      "inputs": [
        {
          "name": "_tokenId",
          "type": "uint256"
        }
      ],
      "name": "tokenNameOf",
      "outputs": [
        {
          "name": "",
          "type": "string"
        }
      ],
      "payable": false,
      "stateMutability": "view",
      "type": "function"
    },
    {
      "constant": true,
      "inputs": [
        {
          "name": "_tokenId",
          "type": "uint256"
        }
      ],
      "name": "tokenDetailsOf",
      "outputs": [
        {
          "name": "",
          "type": "address"
        },
        {
          "name": "",
          "type": "uint256"
        },
        {
          "name": "",
          "type": "string"
        },
        {
          "name": "",
          "type": "string"
        },
        {
          "name": "",
          "type": "address"
        }
      ],
      "payable": false,
      "stateMutability": "view",
      "type": "function"
    }
  ],
  "bytecode": "0x60606040908152600160a060020a0333811660009081526004602052828120805460ff19908116600190811790925530909316825292902080549091169091179055610703806100506000396000f3006060604052600436106100b95763ffffffff7c010000000000000000000000000000000000000000000000000000000060003504166318160ddd81146100be5780632a6dd48f146100e35780635a3f2672146101155780635e61af8d146101875780636352211e1461029f57806370a08231146102b557806372501976146102d457806374e24367146103075780637e1c0c091461031d5780638e36977a14610330578063e149f03614610346578063e324c66414610368575b600080fd5b34156100c957600080fd5b6100d16103f5565b60405190815260200160405180910390f35b34156100ee57600080fd5b6100f96004356103fb565b604051600160a060020a03909116815260200160405180910390f35b341561012057600080fd5b610134600160a060020a0360043516610419565b60405160208082528190810183818151815260200191508051906020019060200280838360005b8381101561017357808201518382015260200161015b565b505050509050019250505060405180910390f35b341561019257600080fd5b61019d60043561049c565b604051600160a060020a038087168252602082018690528216608082015260a060408201818152906060830190830186818151815260200191508051906020019080838360005b838110156101fc5780820151838201526020016101e4565b50505050905090810190601f1680156102295780820380516001836020036101000a031916815260200191505b50838103825285818151815260200191508051906020019080838360005b8381101561025f578082015183820152602001610247565b50505050905090810190601f16801561028c5780820380516001836020036101000a031916815260200191505b5097505050505050505060405180910390f35b34156102aa57600080fd5b6100f9600435610529565b34156102c057600080fd5b6100d1600160a060020a0360043516610553565b34156102df57600080fd5b6102f3600160a060020a036004351661056e565b604051901515815260200160405180910390f35b341561031257600080fd5b6100d1600435610583565b341561032857600080fd5b6100d1610595565b341561033b57600080fd5b6100d160043561059b565b341561035157600080fd5b6100d1600160a060020a03600435166024356105b1565b341561037357600080fd5b61037e6004356105df565b60405160208082528190810183818151815260200191508051906020019080838360005b838110156103ba5780820151838201526020016103a2565b50505050905090810190601f1680156103e75780820380516001836020036101000a031916815260200191505b509250505060405180910390f35b60005490565b600090815260016020526040902060040154600160a060020a031690565b6104216106c5565b6002600083600160a060020a0316600160a060020a0316815260200190815260200160002080548060200260200160405190810160405280929190818152602001828054801561049057602002820191906000526020600020905b81548152602001906001019080831161047c575b50505050509050919050565b6000806104a76106c5565b6104af6106c5565b60008581526001602081905260408220805491810154600390910154600160a060020a03909216916104e090610609565b6000898152600160205260409020600201546104fb90610609565b6000998a526001602052604090992060040154929991989097509550600160a060020a039091169350915050565b600081815260016020526040812054600160a060020a031680151561054d57600080fd5b92915050565b600160a060020a031660009081526002602052604090205490565b60046020526000908152604090205460ff1681565b60036020526000908152604090205481565b60005481565b6000908152600160208190526040909120015490565b6002602052816000526040600020818154811015156105cc57fe5b6000918252602090912001549150829050565b6105e76106c5565b60008281526001602052604090206002015461060281610609565b9392505050565b6106116106c5565b6106196106c5565b6000602060405180591061062a5750595b818152601f19601f8301168101602001604052905091505b60208110156106be5783816020811061065757fe5b1a7f01000000000000000000000000000000000000000000000000000000000000000282828151811061068657fe5b9060200101907effffffffffffffffffffffffffffffffffffffffffffffffffffffffffffff1916908160001a905350600101610642565b5092915050565b602060405190810160405260008152905600a165627a7a72305820a57224fb87fe0a62727126280bdcf7e016b5eee8f0c3a48d98d864320d2230a00029",
  "source": "pragma solidity ^0.4.18;\n\nimport \"./Storage.sol\";\nimport \"../../node_modules/zeppelin-solidity/contracts/math/SafeMath.sol\";\n\ncontract StorageGetter is Storage {\n    \n    /**\n    * @dev Gets the total amount of tokens stored by the contract\n    * @return uint256 representing the total amount of tokens\n    */\n    function totalSupply() external view returns (uint256) {\n        return totalTokens;\n    }\n\n    /**\n    * @dev Gets the balance of the specified address\n    * @param _owner address to query the balance of\n    * @return uint256 representing the amount owned by the passed address\n    */\n    function balanceOf(address _owner) public view returns (uint256) {\n        return ownedTokens[_owner].length;\n    }\n\n    /**\n    * @dev Gets the list of tokens owned by a given address\n    * @param _owner address to query the tokens of\n    * @return uint256[] representing the list of tokens owned by the passed address\n    */\n    function tokensOf(address _owner) external view returns (uint256[]) {\n        return ownedTokens[_owner];\n    }\n\n    /**\n    * @dev Gets the owner of the specified token ID\n    * @param _tokenId uint256 ID of the token to query the owner of\n    * @return owner address currently marked as the owner of the given token ID\n    */\n    function ownerOf(uint256 _tokenId) public view returns (address) {\n        address owner = tokens[_tokenId].tokenOwner;\n        require(owner != address(0));\n        return owner;\n    }\n\n    /**\n    * @dev Gets the approved address to take ownership of a given token ID\n    * @param _tokenId uint256 ID of the token to query the approval of\n    * @return address currently approved to take ownership of the given token ID\n    */\n    function approvedFor(uint256 _tokenId) public view returns (address) {\n        return tokens[_tokenId].tokenApproval;\n    }\n\n    /**\n    * @dev Tells whether the msg.sender is approved for the given token ID or not\n    * This function is not private so it can be extended in further implementations like the operatable ERC721\n    * @param _owner address of the owner to query the approval of\n    * @param _tokenId uint256 ID of the token to query the approval of\n    * @return bool whether the msg.sender is approved for the given token ID or not\n    */\n    function isApprovedFor(address _owner, uint256 _tokenId) internal view returns (bool) {\n        return approvedFor(_tokenId) == _owner;\n    }\n    \n    function tokenPriceOf(uint256 _tokenId) public view returns (uint) {\n        return tokens[_tokenId].tokenPrice;\n    }\n\n    function tokenNameOf(uint256 _tokenId) external view returns (string) {\n        bytes32 name = tokens[_tokenId].tokenName;\n        return bytes32ToStr(name);\n    }\n\n    function tokenDetailsOf(uint256 _tokenId) external view returns (address, uint, string, string, address) {\n        return (\n            tokens[_tokenId].tokenOwner, \n            tokens[_tokenId].tokenPrice,\n            bytes32ToStr(tokens[_tokenId].tokenType),\n            bytes32ToStr(tokens[_tokenId].tokenName),\n            tokens[_tokenId].tokenApproval\n            );\n    }\n\n    function bytes32ToStr(bytes32 _bytes32) internal pure returns (string){\n        bytes memory bytesArray = new bytes(32);\n        for (uint256 i; i < 32; i++) {\n            bytesArray[i] = _bytes32[i];\n            }\n        return string(bytesArray);\n    }\n\n}",
  "sourcePath": "/home/cyril/Documents/headInTheStars_Smart_Contract/contracts/ERC721/StorageGetter.sol",
  "compiler": {
    "name": "solc",
    "version": "0.4.19+commit.c4cbbb05.Emscripten.clang"
  },
  "schemaVersion": "2.0.0",
  "updatedAt": "2018-03-24T22:45:40.669Z"
}