{
  "contractName": "Storage",
  "abi": [
    {
      "constant": true,
      "inputs": [],
      "name": "initDwarfPlanetsPrice",
      "outputs": [
        {
          "name": "",
          "type": "uint256"
        }
      ],
      "payable": false,
      "stateMutability": "view",
      "type": "function"
    },
    {
      "constant": true,
      "inputs": [],
      "name": "initPlanetsPrice",
      "outputs": [
        {
          "name": "",
          "type": "uint256"
        }
      ],
      "payable": false,
      "stateMutability": "view",
      "type": "function"
    },
    {
      "constant": true,
      "inputs": [],
      "name": "initExoplanetsPrice",
      "outputs": [
        {
          "name": "",
          "type": "uint256"
        }
      ],
      "payable": false,
      "stateMutability": "view",
      "type": "function"
    },
    {
      "constant": true,
      "inputs": [
        {
          "name": "",
          "type": "uint256"
        }
      ],
      "name": "ownedTokensIndex",
      "outputs": [
        {
          "name": "",
          "type": "uint256"
        }
      ],
      "payable": false,
      "stateMutability": "view",
      "type": "function"
    },
    {
      "constant": true,
      "inputs": [],
      "name": "totalTokens",
      "outputs": [
        {
          "name": "",
          "type": "uint256"
        }
      ],
      "payable": false,
      "stateMutability": "view",
      "type": "function"
    },
    {
      "constant": true,
      "inputs": [],
      "name": "initStarsPrice",
      "outputs": [
        {
          "name": "",
          "type": "uint256"
        }
      ],
      "payable": false,
      "stateMutability": "view",
      "type": "function"
    },
    {
      "constant": true,
      "inputs": [],
      "name": "initSatellitesPrice",
      "outputs": [
        {
          "name": "",
          "type": "uint256"
        }
      ],
      "payable": false,
      "stateMutability": "view",
      "type": "function"
    },
    {
      "constant": true,
      "inputs": [],
      "name": "amount",
      "outputs": [
        {
          "name": "",
          "type": "uint256"
        }
      ],
      "payable": false,
      "stateMutability": "view",
      "type": "function"
    },
    {
      "constant": true,
      "inputs": [
        {
          "name": "",
          "type": "address"
        },
        {
          "name": "",
          "type": "uint256"
        }
      ],
      "name": "ownedTokens",
      "outputs": [
        {
          "name": "",
          "type": "uint256"
        }
      ],
      "payable": false,
      "stateMutability": "view",
      "type": "function"
    }
  ],
  "bytecode": "0x6060604052341561000f57600080fd5b61020f8061001e6000396000f3006060604052600436106100985763ffffffff7c0100000000000000000000000000000000000000000000000000000000600035041663110c9612811461009d578063133b489c146100c2578063725c7404146100d557806374e24367146100e85780637e1c0c09146100fe5780638c9d329a14610111578063938a09c114610124578063aa8c217c14610137578063e149f0361461014a575b600080fd5b34156100a857600080fd5b6100b0610179565b60405190815260200160405180910390f35b34156100cd57600080fd5b6100b061017f565b34156100e057600080fd5b6100b0610185565b34156100f357600080fd5b6100b060043561018b565b341561010957600080fd5b6100b061019d565b341561011c57600080fd5b6100b06101a3565b341561012f57600080fd5b6100b06101a9565b341561014257600080fd5b6100b06101af565b341561015557600080fd5b6100b073ffffffffffffffffffffffffffffffffffffffff600435166024356101b5565b60065481565b60055481565b60085481565b60036020526000908152604090205481565b60005481565b60045481565b60075481565b60095481565b6002602052816000526040600020818154811015156101d057fe5b60009182526020909120015491508290505600a165627a7a723058204e02cc4677751876770982b917179a08e1d39076dc2e6f7ea9285c5a8f5927980029",
  "source": "pragma solidity ^0.4.19;\n\ncontract Storage {\n\n    // Total amount of tokens\n    uint public totalTokens;\n    \n    struct Token {\n        address tokenOwner;\n        uint tokenPrice;\n        bytes32 tokenName;\n        address tokenApproval;\n    }\n    //mapping from tokenID to token details\n    mapping (uint => Token) tokens;\n\n    // Mapping from owner to list of owned token IDs\n    mapping (address => uint[]) public ownedTokens;\n\n    // Mapping from token ID to index of the owner tokens list\n    mapping(uint => uint) public ownedTokensIndex;\n\n    uint public initStarsPrice;\n    uint public initPlanetsPrice;\n    uint public initDwarfPlanetsPrice;\n    uint public initSatellitesPrice;\n    uint public initExoplanetsPrice;\n\n    uint public amount;\n}",
  "sourcePath": "/home/cyril/Documents/Personal_Projects/Smart_contract_Stars/contracts/Storage.sol",
  "compiler": {
    "name": "solc",
    "version": "0.4.19+commit.c4cbbb05.Emscripten.clang"
  },
  "schemaVersion": "2.0.0",
  "updatedAt": "2018-03-21T15:15:10.700Z"
}