{
  "contractName": "Storage",
  "abi": [
    {
      "constant": true,
      "inputs": [
        {
          "name": "",
          "type": "address"
        }
      ],
      "name": "accessAllowed",
      "outputs": [
        {
          "name": "",
          "type": "bool"
        }
      ],
      "payable": false,
      "stateMutability": "view",
      "type": "function"
    },
    {
      "constant": true,
      "inputs": [
        {
          "name": "",
          "type": "uint256"
        }
      ],
      "name": "ownedTokensIndex",
      "outputs": [
        {
          "name": "",
          "type": "uint256"
        }
      ],
      "payable": false,
      "stateMutability": "view",
      "type": "function"
    },
    {
      "constant": true,
      "inputs": [],
      "name": "totalTokens",
      "outputs": [
        {
          "name": "",
          "type": "uint256"
        }
      ],
      "payable": false,
      "stateMutability": "view",
      "type": "function"
    },
    {
      "constant": true,
      "inputs": [
        {
          "name": "",
          "type": "address"
        },
        {
          "name": "",
          "type": "uint256"
        }
      ],
      "name": "ownedTokens",
      "outputs": [
        {
          "name": "",
          "type": "uint256"
        }
      ],
      "payable": false,
      "stateMutability": "view",
      "type": "function"
    },
    {
      "inputs": [],
      "payable": false,
      "stateMutability": "nonpayable",
      "type": "constructor"
    }
  ],
  "bytecode": "0x6060604052341561000f57600080fd5b600160a060020a0333166000908152600460205260409020805460ff19166001179055610197806100416000396000f3006060604052600436106100615763ffffffff7c010000000000000000000000000000000000000000000000000000000060003504166372501976811461006657806374e24367146100a65780637e1c0c09146100ce578063e149f036146100e1575b600080fd5b341561007157600080fd5b61009273ffffffffffffffffffffffffffffffffffffffff60043516610110565b604051901515815260200160405180910390f35b34156100b157600080fd5b6100bc600435610125565b60405190815260200160405180910390f35b34156100d957600080fd5b6100bc610137565b34156100ec57600080fd5b6100bc73ffffffffffffffffffffffffffffffffffffffff6004351660243561013d565b60046020526000908152604090205460ff1681565b60036020526000908152604090205481565b60005481565b60026020528160005260406000208181548110151561015857fe5b60009182526020909120015491508290505600a165627a7a72305820578e95262d1d327cc672cd2ac914e76bc632af10038e2ff7a74eecae107388da0029",
  "source": "pragma solidity ^0.4.18;\n\ncontract Storage {\n\n    // Total amount of tokens\n    uint public totalTokens;\n    \n    struct Token {\n        address tokenOwner;\n        uint tokenPrice;\n        bytes32 tokenName;\n        address tokenApproval;\n    }\n    //mapping from tokenID to token details\n    mapping (uint => Token) tokens;\n\n    // Mapping from owner to list of owned token IDs\n    mapping (address => uint[]) public ownedTokens;\n\n    // Mapping from token ID to index of the owner tokens list\n    mapping(uint => uint) public ownedTokensIndex;\n\n    // Mapping to allow access to change Storage\n    mapping(address => bool) public accessAllowed;\n    \n    function Storage() public {\n        accessAllowed[msg.sender] = true;\n    }\n\n}",
  "sourcePath": "/home/cyril/Documents/Personal_Projects/Smart_contract_Stars/contracts/ERC721/Storage.sol",
  "compiler": {
    "name": "solc",
    "version": "0.4.19+commit.c4cbbb05.Emscripten.clang"
  },
  "schemaVersion": "2.0.0",
  "updatedAt": "2018-03-22T17:03:11.010Z"
}