{
  "contractName": "StorageModifier",
  "abi": [
    {
      "constant": true,
      "inputs": [],
      "name": "totalSupply",
      "outputs": [
        {
          "name": "",
          "type": "uint256"
        }
      ],
      "payable": false,
      "stateMutability": "view",
      "type": "function"
    },
    {
      "constant": true,
      "inputs": [
        {
          "name": "_tokenId",
          "type": "uint256"
        }
      ],
      "name": "approvedFor",
      "outputs": [
        {
          "name": "",
          "type": "address"
        }
      ],
      "payable": false,
      "stateMutability": "view",
      "type": "function"
    },
    {
      "constant": true,
      "inputs": [
        {
          "name": "_owner",
          "type": "address"
        }
      ],
      "name": "tokensOf",
      "outputs": [
        {
          "name": "",
          "type": "uint256[]"
        }
      ],
      "payable": false,
      "stateMutability": "view",
      "type": "function"
    },
    {
      "constant": true,
      "inputs": [
        {
          "name": "_tokenId",
          "type": "uint256"
        }
      ],
      "name": "tokenDetailsOf",
      "outputs": [
        {
          "name": "",
          "type": "address"
        },
        {
          "name": "",
          "type": "uint256"
        },
        {
          "name": "",
          "type": "string"
        },
        {
          "name": "",
          "type": "string"
        },
        {
          "name": "",
          "type": "address"
        }
      ],
      "payable": false,
      "stateMutability": "view",
      "type": "function"
    },
    {
      "constant": true,
      "inputs": [
        {
          "name": "_tokenId",
          "type": "uint256"
        }
      ],
      "name": "ownerOf",
      "outputs": [
        {
          "name": "",
          "type": "address"
        }
      ],
      "payable": false,
      "stateMutability": "view",
      "type": "function"
    },
    {
      "constant": true,
      "inputs": [
        {
          "name": "_owner",
          "type": "address"
        }
      ],
      "name": "balanceOf",
      "outputs": [
        {
          "name": "",
          "type": "uint256"
        }
      ],
      "payable": false,
      "stateMutability": "view",
      "type": "function"
    },
    {
      "constant": true,
      "inputs": [
        {
          "name": "",
          "type": "address"
        }
      ],
      "name": "accessAllowed",
      "outputs": [
        {
          "name": "",
          "type": "bool"
        }
      ],
      "payable": false,
      "stateMutability": "view",
      "type": "function"
    },
    {
      "constant": true,
      "inputs": [
        {
          "name": "",
          "type": "uint256"
        }
      ],
      "name": "ownedTokensIndex",
      "outputs": [
        {
          "name": "",
          "type": "uint256"
        }
      ],
      "payable": false,
      "stateMutability": "view",
      "type": "function"
    },
    {
      "constant": true,
      "inputs": [],
      "name": "totalTokens",
      "outputs": [
        {
          "name": "",
          "type": "uint256"
        }
      ],
      "payable": false,
      "stateMutability": "view",
      "type": "function"
    },
    {
      "constant": true,
      "inputs": [
        {
          "name": "_tokenId",
          "type": "uint256"
        }
      ],
      "name": "tokenPriceOf",
      "outputs": [
        {
          "name": "",
          "type": "uint256"
        }
      ],
      "payable": false,
      "stateMutability": "view",
      "type": "function"
    },
    {
      "constant": true,
      "inputs": [
        {
          "name": "",
          "type": "address"
        },
        {
          "name": "",
          "type": "uint256"
        }
      ],
      "name": "ownedTokens",
      "outputs": [
        {
          "name": "",
          "type": "uint256"
        }
      ],
      "payable": false,
      "stateMutability": "view",
      "type": "function"
    },
    {
      "constant": true,
      "inputs": [
        {
          "name": "_tokenId",
          "type": "uint256"
        }
      ],
      "name": "tokenNameOf",
      "outputs": [
        {
          "name": "",
          "type": "string"
        }
      ],
      "payable": false,
      "stateMutability": "view",
      "type": "function"
    },
    {
      "constant": false,
      "inputs": [
        {
          "name": "_address",
          "type": "address"
        }
      ],
      "name": "allowAccess",
      "outputs": [],
      "payable": false,
      "stateMutability": "nonpayable",
      "type": "function"
    },
    {
      "constant": false,
      "inputs": [
        {
          "name": "_address",
          "type": "address"
        }
      ],
      "name": "denyAccess",
      "outputs": [],
      "payable": false,
      "stateMutability": "nonpayable",
      "type": "function"
    },
    {
      "constant": false,
      "inputs": [
        {
          "name": "_tokenId",
          "type": "uint256"
        },
        {
          "name": "_to",
          "type": "address"
        }
      ],
      "name": "changeTokenOwner",
      "outputs": [],
      "payable": false,
      "stateMutability": "nonpayable",
      "type": "function"
    },
    {
      "constant": false,
      "inputs": [
        {
          "name": "_tokenId",
          "type": "uint256"
        },
        {
          "name": "_tokenPrice",
          "type": "uint256"
        }
      ],
      "name": "changeTokenPrice",
      "outputs": [],
      "payable": false,
      "stateMutability": "nonpayable",
      "type": "function"
    },
    {
      "constant": false,
      "inputs": [
        {
          "name": "_tokenId",
          "type": "uint256"
        },
        {
          "name": "_tokenName",
          "type": "bytes32"
        }
      ],
      "name": "changeTokenName",
      "outputs": [],
      "payable": false,
      "stateMutability": "nonpayable",
      "type": "function"
    },
    {
      "constant": false,
      "inputs": [
        {
          "name": "_tokenId",
          "type": "uint256"
        },
        {
          "name": "_tokenType",
          "type": "bytes32"
        },
        {
          "name": "_tokenName",
          "type": "bytes32"
        },
        {
          "name": "_tokenPrice",
          "type": "uint256"
        }
      ],
      "name": "createToken",
      "outputs": [],
      "payable": false,
      "stateMutability": "nonpayable",
      "type": "function"
    }
  ],
  "bytecode": "0x60606040908152600160a060020a0333811660009081526004602052828120805460ff19908116600190811790925530909316825292902080549091169091179055610a03806100506000396000f3006060604052600436106100fb5763ffffffff7c010000000000000000000000000000000000000000000000000000000060003504166318160ddd811461010057806327701247146101255780632a6dd48f146101405780634fc06994146101725780635a3f2672146101945780635e61af8d1461020657806361afd5ac1461031e57806362e8e8ac1461033d5780636352211e1461035657806370a082311461036c578063725019761461038b57806374e24367146103be5780637e1c0c09146103d45780638e36977a146103e7578063c4a85bc1146103fd578063c81e128b1461041c578063e149f0361461043b578063e324c6641461045d575b600080fd5b341561010b57600080fd5b6101136104ea565b60405190815260200160405180910390f35b341561013057600080fd5b61013e6004356024356104f0565b005b341561014b57600080fd5b610156600435610550565b604051600160a060020a03909116815260200160405180910390f35b341561017d57600080fd5b61013e600435600160a060020a036024351661056e565b341561019f57600080fd5b6101b3600160a060020a03600435166105d3565b60405160208082528190810183818151815260200191508051906020019060200280838360005b838110156101f25780820151838201526020016101da565b505050509050019250505060405180910390f35b341561021157600080fd5b61021c600435610656565b604051600160a060020a038087168252602082018690528216608082015260a060408201818152906060830190830186818151815260200191508051906020019080838360005b8381101561027b578082015183820152602001610263565b50505050905090810190601f1680156102a85780820380516001836020036101000a031916815260200191505b50838103825285818151815260200191508051906020019080838360005b838110156102de5780820151838201526020016102c6565b50505050905090810190601f16801561030b5780820380516001836020036101000a031916815260200191505b5097505050505050505060405180910390f35b341561032957600080fd5b61013e600160a060020a03600435166106e3565b341561034857600080fd5b61013e60043560243561072e565b341561036157600080fd5b61015660043561076f565b341561037757600080fd5b610113600160a060020a0360043516610799565b341561039657600080fd5b6103aa600160a060020a03600435166107b4565b604051901515815260200160405180910390f35b34156103c957600080fd5b6101136004356107c9565b34156103df57600080fd5b6101136107db565b34156103f257600080fd5b6101136004356107e1565b341561040857600080fd5b61013e600160a060020a03600435166107f7565b341561042757600080fd5b61013e600435602435604435606435610845565b341561044657600080fd5b610113600160a060020a03600435166024356108b1565b341561046857600080fd5b6104736004356108df565b60405160208082528190810183818151815260200191508051906020019080838360005b838110156104af578082015183820152602001610497565b50505050905090810190601f1680156104dc5780820380516001836020036101000a031916815260200191505b509250505060405180910390f35b60005490565b600160a060020a03331660009081526004602052604090205460ff16151560011461051a57600080fd5b60008281526001602052604090206003015463737461721461053b57600080fd5b60009182526001602052604090912060020155565b600090815260016020526040902060040154600160a060020a031690565b600160a060020a03331660009081526004602052604090205460ff16151560011461059857600080fd5b600091825260016020526040909120805473ffffffffffffffffffffffffffffffffffffffff1916600160a060020a03909216919091179055565b6105db6109c5565b6002600083600160a060020a0316600160a060020a0316815260200190815260200160002080548060200260200160405190810160405280929190818152602001828054801561064a57602002820191906000526020600020905b815481526020019060010190808311610636575b50505050509050919050565b6000806106616109c5565b6106696109c5565b60008581526001602081905260408220805491810154600390910154600160a060020a039092169161069a90610909565b6000898152600160205260409020600201546106b590610909565b6000998a526001602052604090992060040154929991989097509550600160a060020a039091169350915050565b600160a060020a03331660009081526004602052604090205460ff16151560011461070d57600080fd5b600160a060020a03166000908152600460205260409020805460ff19169055565b600160a060020a03331660009081526004602052604090205460ff16151560011461075857600080fd5b600091825260016020819052604090922090910155565b600081815260016020526040812054600160a060020a031680151561079357600080fd5b92915050565b600160a060020a031660009081526002602052604090205490565b60046020526000908152604090205460ff1681565b60036020526000908152604090205481565b60005481565b6000908152600160208190526040909120015490565b600160a060020a03331660009081526004602052604090205460ff16151560011461082157600080fd5b600160a060020a03166000908152600460205260409020805460ff19166001179055565b600160a060020a03331660009081526004602052604090205460ff16151560011461086f57600080fd5b6000848152600160205260409020600301541561088b57600080fd5b600093845260016020819052604090942060038101939093556002830191909155910155565b6002602052816000526040600020818154811015156108cc57fe5b6000918252602090912001549150829050565b6108e76109c5565b60008281526001602052604090206002015461090281610909565b9392505050565b6109116109c5565b6109196109c5565b6000602060405180591061092a5750595b818152601f19601f8301168101602001604052905091505b60208110156109be5783816020811061095757fe5b1a7f01000000000000000000000000000000000000000000000000000000000000000282828151811061098657fe5b9060200101907effffffffffffffffffffffffffffffffffffffffffffffffffffffffffffff1916908160001a905350600101610942565b5092915050565b602060405190810160405260008152905600a165627a7a72305820c8aa04da27c5d08f14f0000f616b8eef92cf2aaf83cbedadb6b4f1db86e6d8d70029",
  "source": "pragma solidity ^0.4.18;\n\nimport \"./StorageGetter.sol\";\n\ncontract StorageModifier is StorageGetter {\n    \n    modifier onlyAllowedAddresses() {\n        require(accessAllowed[msg.sender] == true);\n        _;\n    }\n\n    function allowAccess(address _address) onlyAllowedAddresses external {\n        accessAllowed[_address] = true;\n    }\n\n    function denyAccess(address _address) onlyAllowedAddresses external {\n        accessAllowed[_address] = false;\n    }\n    \n    function changeTokenOwner(uint _tokenId, address _to) onlyAllowedAddresses external {\n        tokens[_tokenId].tokenOwner = _to;\n    }\n\n    function changeTokenPrice(uint _tokenId, uint _tokenPrice) onlyAllowedAddresses external {\n        tokens[_tokenId].tokenPrice = _tokenPrice;\n    }\n\n    function changeTokenName(uint _tokenId, bytes32 _tokenName) onlyAllowedAddresses external {\n        require(tokens[_tokenId].tokenType == 0x73746172);\n        tokens[_tokenId].tokenName = _tokenName;\n    }\n    \n    function createToken(uint _tokenId, bytes32 _tokenType, bytes32 _tokenName, uint _tokenPrice) onlyAllowedAddresses external {\n        require(tokens[_tokenId].tokenType == 0);\n        tokens[_tokenId].tokenType = _tokenType;\n        tokens[_tokenId].tokenName = _tokenName;\n        tokens[_tokenId].tokenPrice = _tokenPrice;\n    }\n\n}",
  "sourcePath": "/home/cyril/Documents/headInTheStars_Smart_Contract/contracts/ERC721/StorageModifier.sol",
  "compiler": {
    "name": "solc",
    "version": "0.4.19+commit.c4cbbb05.Emscripten.clang"
  },
  "schemaVersion": "2.0.0",
  "updatedAt": "2018-03-24T22:45:40.677Z"
}