{
  "contractName": "StorageModifier",
  "abi": [
    {
      "constant": true,
      "inputs": [],
      "name": "totalSupply",
      "outputs": [
        {
          "name": "",
          "type": "uint256"
        }
      ],
      "payable": false,
      "stateMutability": "view",
      "type": "function"
    },
    {
      "constant": true,
      "inputs": [
        {
          "name": "_tokenId",
          "type": "uint256"
        }
      ],
      "name": "approvedFor",
      "outputs": [
        {
          "name": "",
          "type": "address"
        }
      ],
      "payable": false,
      "stateMutability": "view",
      "type": "function"
    },
    {
      "constant": true,
      "inputs": [
        {
          "name": "_owner",
          "type": "address"
        }
      ],
      "name": "tokensOf",
      "outputs": [
        {
          "name": "",
          "type": "uint256[]"
        }
      ],
      "payable": false,
      "stateMutability": "view",
      "type": "function"
    },
    {
      "constant": true,
      "inputs": [
        {
          "name": "_tokenId",
          "type": "uint256"
        }
      ],
      "name": "tokenDetailsOf",
      "outputs": [
        {
          "name": "",
          "type": "address"
        },
        {
          "name": "",
          "type": "uint256"
        },
        {
          "name": "",
          "type": "string"
        },
        {
          "name": "",
          "type": "address"
        }
      ],
      "payable": false,
      "stateMutability": "view",
      "type": "function"
    },
    {
      "constant": true,
      "inputs": [
        {
          "name": "_tokenId",
          "type": "uint256"
        }
      ],
      "name": "ownerOf",
      "outputs": [
        {
          "name": "",
          "type": "address"
        }
      ],
      "payable": false,
      "stateMutability": "view",
      "type": "function"
    },
    {
      "constant": true,
      "inputs": [
        {
          "name": "_owner",
          "type": "address"
        }
      ],
      "name": "balanceOf",
      "outputs": [
        {
          "name": "",
          "type": "uint256"
        }
      ],
      "payable": false,
      "stateMutability": "view",
      "type": "function"
    },
    {
      "constant": true,
      "inputs": [
        {
          "name": "",
          "type": "address"
        }
      ],
      "name": "accessAllowed",
      "outputs": [
        {
          "name": "",
          "type": "bool"
        }
      ],
      "payable": false,
      "stateMutability": "view",
      "type": "function"
    },
    {
      "constant": true,
      "inputs": [
        {
          "name": "",
          "type": "uint256"
        }
      ],
      "name": "ownedTokensIndex",
      "outputs": [
        {
          "name": "",
          "type": "uint256"
        }
      ],
      "payable": false,
      "stateMutability": "view",
      "type": "function"
    },
    {
      "constant": true,
      "inputs": [],
      "name": "totalTokens",
      "outputs": [
        {
          "name": "",
          "type": "uint256"
        }
      ],
      "payable": false,
      "stateMutability": "view",
      "type": "function"
    },
    {
      "constant": true,
      "inputs": [
        {
          "name": "_tokenId",
          "type": "uint256"
        }
      ],
      "name": "tokenPriceOf",
      "outputs": [
        {
          "name": "",
          "type": "uint256"
        }
      ],
      "payable": false,
      "stateMutability": "view",
      "type": "function"
    },
    {
      "constant": true,
      "inputs": [
        {
          "name": "",
          "type": "address"
        },
        {
          "name": "",
          "type": "uint256"
        }
      ],
      "name": "ownedTokens",
      "outputs": [
        {
          "name": "",
          "type": "uint256"
        }
      ],
      "payable": false,
      "stateMutability": "view",
      "type": "function"
    },
    {
      "constant": true,
      "inputs": [
        {
          "name": "_tokenId",
          "type": "uint256"
        }
      ],
      "name": "tokenNameOf",
      "outputs": [
        {
          "name": "",
          "type": "string"
        }
      ],
      "payable": false,
      "stateMutability": "view",
      "type": "function"
    },
    {
      "constant": false,
      "inputs": [
        {
          "name": "_address",
          "type": "address"
        }
      ],
      "name": "allowAccess",
      "outputs": [],
      "payable": false,
      "stateMutability": "nonpayable",
      "type": "function"
    },
    {
      "constant": false,
      "inputs": [
        {
          "name": "_address",
          "type": "address"
        }
      ],
      "name": "denyAccess",
      "outputs": [],
      "payable": false,
      "stateMutability": "nonpayable",
      "type": "function"
    },
    {
      "constant": false,
      "inputs": [
        {
          "name": "_tokenId",
          "type": "uint256"
        },
        {
          "name": "_to",
          "type": "address"
        }
      ],
      "name": "changeTokenOwner",
      "outputs": [],
      "payable": false,
      "stateMutability": "nonpayable",
      "type": "function"
    },
    {
      "constant": false,
      "inputs": [
        {
          "name": "_tokenId",
          "type": "uint256"
        },
        {
          "name": "_tokenPrice",
          "type": "uint256"
        }
      ],
      "name": "changeTokenPrice",
      "outputs": [],
      "payable": false,
      "stateMutability": "nonpayable",
      "type": "function"
    },
    {
      "constant": false,
      "inputs": [
        {
          "name": "_tokenId",
          "type": "uint256"
        },
        {
          "name": "_tokenName",
          "type": "bytes32"
        }
      ],
      "name": "changeTokenName",
      "outputs": [],
      "payable": false,
      "stateMutability": "nonpayable",
      "type": "function"
    }
  ],
  "bytecode": "0x60606040908152600160a060020a0333166000908152600460205220805460ff191660011790556108bc806100356000396000f3006060604052600436106100f05763ffffffff7c010000000000000000000000000000000000000000000000000000000060003504166318160ddd81146100f5578063277012471461011a5780632a6dd48f146101355780634fc06994146101675780635a3f2672146101895780635e61af8d146101fb57806361afd5ac146102a957806362e8e8ac146102c85780636352211e146102e157806370a08231146102f7578063725019761461031657806374e24367146103495780637e1c0c091461035f5780638e36977a14610372578063c4a85bc114610388578063e149f036146103a7578063e324c664146103c9575b600080fd5b341561010057600080fd5b610108610456565b60405190815260200160405180910390f35b341561012557600080fd5b61013360043560243561045c565b005b341561014057600080fd5b61014b60043561049b565b604051600160a060020a03909116815260200160405180910390f35b341561017257600080fd5b610133600435600160a060020a03602435166104b9565b341561019457600080fd5b6101a8600160a060020a036004351661051e565b60405160208082528190810183818151815260200191508051906020019060200280838360005b838110156101e75780820151838201526020016101cf565b505050509050019250505060405180910390f35b341561020657600080fd5b6102116004356105a1565b604051600160a060020a038086168252602082018590528216606082015260806040820181815290820184818151815260200191508051906020019080838360005b8381101561026b578082015183820152602001610253565b50505050905090810190601f1680156102985780820380516001836020036101000a031916815260200191505b509550505050505060405180910390f35b34156102b457600080fd5b610133600160a060020a0360043516610608565b34156102d357600080fd5b610133600435602435610653565b34156102ec57600080fd5b61014b600435610694565b341561030257600080fd5b610108600160a060020a03600435166106be565b341561032157600080fd5b610335600160a060020a03600435166106d9565b604051901515815260200160405180910390f35b341561035457600080fd5b6101086004356106ee565b341561036a57600080fd5b610108610700565b341561037d57600080fd5b610108600435610706565b341561039357600080fd5b610133600160a060020a036004351661071c565b34156103b257600080fd5b610108600160a060020a036004351660243561076a565b34156103d457600080fd5b6103df600435610798565b60405160208082528190810183818151815260200191508051906020019080838360005b8381101561041b578082015183820152602001610403565b50505050905090810190601f1680156104485780820380516001836020036101000a031916815260200191505b509250505060405180910390f35b60005490565b600160a060020a03331660009081526004602052604090205460ff16151560011461048657600080fd5b60009182526001602052604090912060020155565b600090815260016020526040902060030154600160a060020a031690565b600160a060020a03331660009081526004602052604090205460ff1615156001146104e357600080fd5b600091825260016020526040909120805473ffffffffffffffffffffffffffffffffffffffff1916600160a060020a03909216919091179055565b61052661087e565b6002600083600160a060020a0316600160a060020a0316815260200190815260200160002080548060200260200160405190810160405280929190818152602001828054801561059557602002820191906000526020600020905b815481526020019060010190808311610581575b50505050509050919050565b6000806105ac61087e565b60008481526001602081905260408220805491810154600290910154600160a060020a03909216916105dd906107c2565b60009788526001602052604090972060030154919790969550600160a060020a039091169350915050565b600160a060020a03331660009081526004602052604090205460ff16151560011461063257600080fd5b600160a060020a03166000908152600460205260409020805460ff19169055565b600160a060020a03331660009081526004602052604090205460ff16151560011461067d57600080fd5b600091825260016020819052604090922090910155565b600081815260016020526040812054600160a060020a03168015156106b857600080fd5b92915050565b600160a060020a031660009081526002602052604090205490565b60046020526000908152604090205460ff1681565b60036020526000908152604090205481565b60005481565b6000908152600160208190526040909120015490565b600160a060020a03331660009081526004602052604090205460ff16151560011461074657600080fd5b600160a060020a03166000908152600460205260409020805460ff19166001179055565b60026020528160005260406000208181548110151561078557fe5b6000918252602090912001549150829050565b6107a061087e565b6000828152600160205260409020600201546107bb816107c2565b9392505050565b6107ca61087e565b6107d261087e565b600060206040518059106107e35750595b818152601f19601f8301168101602001604052905091505b60208110156108775783816020811061081057fe5b1a7f01000000000000000000000000000000000000000000000000000000000000000282828151811061083f57fe5b9060200101907effffffffffffffffffffffffffffffffffffffffffffffffffffffffffffff1916908160001a9053506001016107fb565b5092915050565b602060405190810160405260008152905600a165627a7a72305820465755c405c8b78348a3e1180a363c803406e1f5ac5f1bc8a6067a6530a5ee0b0029",
  "source": "pragma solidity ^0.4.18;\n\nimport \"./StorageGetter.sol\";\n\ncontract StorageModifier is StorageGetter {\n    \n    modifier platform() {\n        require(accessAllowed[msg.sender] == true);\n        _;\n    }\n\n    function allowAccess(address _address) platform external {\n        accessAllowed[_address] = true;\n    }\n\n    function denyAccess(address _address) platform external {\n        accessAllowed[_address] = false;\n    }\n    \n    function changeTokenOwner(uint _tokenId, address _to) platform external {\n        tokens[_tokenId].tokenOwner = _to;\n    }\n\n    function changeTokenPrice(uint _tokenId, uint _tokenPrice) platform external {\n        tokens[_tokenId].tokenPrice = _tokenPrice;\n    }\n\n    function changeTokenName(uint _tokenId, bytes32 _tokenName) platform external {\n        tokens[_tokenId].tokenName = _tokenName;\n    }\n\n}",
  "sourcePath": "/home/cyril/Documents/Personal_Projects/Smart_contract_Stars/contracts/ERC721/StorageModifier.sol",
  "compiler": {
    "name": "solc",
    "version": "0.4.19+commit.c4cbbb05.Emscripten.clang"
  },
  "schemaVersion": "2.0.0",
  "updatedAt": "2018-03-22T17:03:11.010Z"
}